{
	"SmartContracts/task_1.sol": {
		"MyShop": {
			"abi": [
				{
					"inputs": [],
					"stateMutability": "nonpayable",
					"type": "constructor"
				},
				{
					"inputs": [],
					"name": "owner",
					"outputs": [
						{
							"internalType": "address",
							"name": "",
							"type": "address"
						}
					],
					"stateMutability": "view",
					"type": "function"
				},
				{
					"inputs": [],
					"name": "payForItem",
					"outputs": [],
					"stateMutability": "payable",
					"type": "function"
				},
				{
					"inputs": [
						{
							"internalType": "address",
							"name": "",
							"type": "address"
						}
					],
					"name": "payments",
					"outputs": [
						{
							"internalType": "uint256",
							"name": "",
							"type": "uint256"
						}
					],
					"stateMutability": "view",
					"type": "function"
				},
				{
					"inputs": [],
					"name": "withdrawAll",
					"outputs": [],
					"stateMutability": "nonpayable",
					"type": "function"
				}
			],
			"devdoc": {
				"kind": "dev",
				"methods": {},
				"version": 1
			},
			"evm": {
				"assembly": "    /* \"SmartContracts/task_1.sol\":496:975  contract MyShop {... */\n  mstore(0x40, 0x80)\n    /* \"SmartContracts/task_1.sol\":602:653  constructor() {... */\n  callvalue\n  dup1\n  iszero\n  tag_1\n  jumpi\n  revert(0x00, 0x00)\ntag_1:\n  pop\n    /* \"SmartContracts/task_1.sol\":635:645  msg.sender */\n  caller\n    /* \"SmartContracts/task_1.sol\":627:632  owner */\n  0x00\n  0x00\n    /* \"SmartContracts/task_1.sol\":627:645  owner = msg.sender */\n  0x0100\n  exp\n  dup2\n  sload\n  dup2\n  0xffffffffffffffffffffffffffffffffffffffff\n  mul\n  not\n  and\n  swap1\n  dup4\n  0xffffffffffffffffffffffffffffffffffffffff\n  and\n  mul\n  or\n  swap1\n  sstore\n  pop\n    /* \"SmartContracts/task_1.sol\":496:975  contract MyShop {... */\n  dataSize(sub_0)\n  dup1\n  dataOffset(sub_0)\n  0x00\n  codecopy\n  0x00\n  return\nstop\n\nsub_0: assembly {\n        /* \"SmartContracts/task_1.sol\":496:975  contract MyShop {... */\n      mstore(0x40, 0x80)\n      jumpi(tag_1, lt(calldatasize, 0x04))\n      shr(0xe0, calldataload(0x00))\n      dup1\n      0x13bea460\n      eq\n      tag_2\n      jumpi\n      dup1\n      0x853828b6\n      eq\n      tag_3\n      jumpi\n      dup1\n      0x8da5cb5b\n      eq\n      tag_4\n      jumpi\n      dup1\n      0xe2982c21\n      eq\n      tag_5\n      jumpi\n    tag_1:\n      revert(0x00, 0x00)\n        /* \"SmartContracts/task_1.sol\":661:750  function payForItem() public payable {... */\n    tag_2:\n      tag_6\n      tag_7\n      jump\t// in\n    tag_6:\n      stop\n        /* \"SmartContracts/task_1.sol\":758:972  function withdrawAll() public {... */\n    tag_3:\n      callvalue\n      dup1\n      iszero\n      tag_8\n      jumpi\n      revert(0x00, 0x00)\n    tag_8:\n      pop\n      tag_9\n      tag_10\n      jump\t// in\n    tag_9:\n      stop\n        /* \"SmartContracts/task_1.sol\":525:545  address public owner */\n    tag_4:\n      callvalue\n      dup1\n      iszero\n      tag_11\n      jumpi\n      revert(0x00, 0x00)\n    tag_11:\n      pop\n      tag_12\n      tag_13\n      jump\t// in\n    tag_12:\n      mload(0x40)\n      tag_14\n      swap2\n      swap1\n      tag_15\n      jump\t// in\n    tag_14:\n      mload(0x40)\n      dup1\n      swap2\n      sub\n      swap1\n      return\n        /* \"SmartContracts/task_1.sol\":552:593  mapping (address => uint) public payments */\n    tag_5:\n      callvalue\n      dup1\n      iszero\n      tag_16\n      jumpi\n      revert(0x00, 0x00)\n    tag_16:\n      pop\n      tag_17\n      0x04\n      dup1\n      calldatasize\n      sub\n      dup2\n      add\n      swap1\n      tag_18\n      swap2\n      swap1\n      tag_19\n      jump\t// in\n    tag_18:\n      tag_20\n      jump\t// in\n    tag_17:\n      mload(0x40)\n      tag_21\n      swap2\n      swap1\n      tag_22\n      jump\t// in\n    tag_21:\n      mload(0x40)\n      dup1\n      swap2\n      sub\n      swap1\n      return\n        /* \"SmartContracts/task_1.sol\":661:750  function payForItem() public payable {... */\n    tag_7:\n        /* \"SmartContracts/task_1.sol\":733:742  msg.value */\n      callvalue\n        /* \"SmartContracts/task_1.sol\":709:717  payments */\n      0x01\n        /* \"SmartContracts/task_1.sol\":709:729  payments[msg.sender] */\n      0x00\n        /* \"SmartContracts/task_1.sol\":718:728  msg.sender */\n      caller\n        /* \"SmartContracts/task_1.sol\":709:729  payments[msg.sender] */\n      0xffffffffffffffffffffffffffffffffffffffff\n      and\n      0xffffffffffffffffffffffffffffffffffffffff\n      and\n      dup2\n      mstore\n      0x20\n      add\n      swap1\n      dup2\n      mstore\n      0x20\n      add\n      0x00\n      keccak256\n      0x00\n        /* \"SmartContracts/task_1.sol\":709:742  payments[msg.sender] += msg.value */\n      dup3\n      dup3\n      sload\n      tag_24\n      swap2\n      swap1\n      tag_25\n      jump\t// in\n    tag_24:\n      swap3\n      pop\n      pop\n      dup2\n      swap1\n      sstore\n      pop\n        /* \"SmartContracts/task_1.sol\":661:750  function payForItem() public payable {... */\n      jump\t// out\n        /* \"SmartContracts/task_1.sol\":758:972  function withdrawAll() public {... */\n    tag_10:\n        /* \"SmartContracts/task_1.sol\":799:818  address payable _to */\n      0x00\n        /* \"SmartContracts/task_1.sol\":829:834  owner */\n      0x00\n      0x00\n      swap1\n      sload\n      swap1\n      0x0100\n      exp\n      swap1\n      div\n      0xffffffffffffffffffffffffffffffffffffffff\n      and\n        /* \"SmartContracts/task_1.sol\":799:835  address payable _to = payable(owner) */\n      swap1\n      pop\n        /* \"SmartContracts/task_1.sol\":846:867  address _thisContract */\n      0x00\n        /* \"SmartContracts/task_1.sol\":878:882  this */\n      address\n        /* \"SmartContracts/task_1.sol\":846:883  address _thisContract = address(this) */\n      swap1\n      pop\n        /* \"SmartContracts/task_1.sol\":894:897  _to */\n      dup2\n        /* \"SmartContracts/task_1.sol\":894:906  _to.transfer */\n      0xffffffffffffffffffffffffffffffffffffffff\n      and\n        /* \"SmartContracts/task_1.sol\":894:929  _to.transfer(_thisContract.balance) */\n      0x08fc\n        /* \"SmartContracts/task_1.sol\":907:920  _thisContract */\n      dup3\n        /* \"SmartContracts/task_1.sol\":907:928  _thisContract.balance */\n      0xffffffffffffffffffffffffffffffffffffffff\n      and\n      balance\n        /* \"SmartContracts/task_1.sol\":894:929  _to.transfer(_thisContract.balance) */\n      swap1\n      dup2\n      iszero\n      mul\n      swap1\n      mload(0x40)\n      0x00\n      mload(0x40)\n      dup1\n      dup4\n      sub\n      dup2\n      dup6\n      dup9\n      dup9\n      call\n      swap4\n      pop\n      pop\n      pop\n      pop\n      iszero\n      dup1\n      iszero\n      tag_28\n      jumpi\n      returndatacopy(0x00, 0x00, returndatasize)\n      revert(0x00, returndatasize)\n    tag_28:\n      pop\n        /* \"SmartContracts/task_1.sol\":963:964  0 */\n      0x00\n        /* \"SmartContracts/task_1.sol\":940:948  payments */\n      0x01\n        /* \"SmartContracts/task_1.sol\":940:960  payments[msg.sender] */\n      0x00\n        /* \"SmartContracts/task_1.sol\":949:959  msg.sender */\n      caller\n        /* \"SmartContracts/task_1.sol\":940:960  payments[msg.sender] */\n      0xffffffffffffffffffffffffffffffffffffffff\n      and\n      0xffffffffffffffffffffffffffffffffffffffff\n      and\n      dup2\n      mstore\n      0x20\n      add\n      swap1\n      dup2\n      mstore\n      0x20\n      add\n      0x00\n      keccak256\n        /* \"SmartContracts/task_1.sol\":940:964  payments[msg.sender] = 0 */\n      dup2\n      swap1\n      sstore\n      pop\n        /* \"SmartContracts/task_1.sol\":788:972  {... */\n      pop\n      pop\n        /* \"SmartContracts/task_1.sol\":758:972  function withdrawAll() public {... */\n      jump\t// out\n        /* \"SmartContracts/task_1.sol\":525:545  address public owner */\n    tag_13:\n      0x00\n      0x00\n      swap1\n      sload\n      swap1\n      0x0100\n      exp\n      swap1\n      div\n      0xffffffffffffffffffffffffffffffffffffffff\n      and\n      dup2\n      jump\t// out\n        /* \"SmartContracts/task_1.sol\":552:593  mapping (address => uint) public payments */\n    tag_20:\n      mstore(0x20, 0x01)\n      dup1\n      0x00\n      mstore\n      keccak256(0x00, 0x40)\n      0x00\n      swap2\n      pop\n      swap1\n      pop\n      sload\n      dup2\n      jump\t// out\n        /* \"#utility.yul\":7:133   */\n    tag_29:\n        /* \"#utility.yul\":44:51   */\n      0x00\n        /* \"#utility.yul\":84:126   */\n      0xffffffffffffffffffffffffffffffffffffffff\n        /* \"#utility.yul\":77:82   */\n      dup3\n        /* \"#utility.yul\":73:127   */\n      and\n        /* \"#utility.yul\":62:127   */\n      swap1\n      pop\n        /* \"#utility.yul\":7:133   */\n      swap2\n      swap1\n      pop\n      jump\t// out\n        /* \"#utility.yul\":139:235   */\n    tag_30:\n        /* \"#utility.yul\":176:183   */\n      0x00\n        /* \"#utility.yul\":205:229   */\n      tag_43\n        /* \"#utility.yul\":223:228   */\n      dup3\n        /* \"#utility.yul\":205:229   */\n      tag_29\n      jump\t// in\n    tag_43:\n        /* \"#utility.yul\":194:229   */\n      swap1\n      pop\n        /* \"#utility.yul\":139:235   */\n      swap2\n      swap1\n      pop\n      jump\t// out\n        /* \"#utility.yul\":241:359   */\n    tag_31:\n        /* \"#utility.yul\":328:352   */\n      tag_45\n        /* \"#utility.yul\":346:351   */\n      dup2\n        /* \"#utility.yul\":328:352   */\n      tag_30\n      jump\t// in\n    tag_45:\n        /* \"#utility.yul\":323:326   */\n      dup3\n        /* \"#utility.yul\":316:353   */\n      mstore\n        /* \"#utility.yul\":241:359   */\n      pop\n      pop\n      jump\t// out\n        /* \"#utility.yul\":365:587   */\n    tag_15:\n        /* \"#utility.yul\":458:462   */\n      0x00\n        /* \"#utility.yul\":496:498   */\n      0x20\n        /* \"#utility.yul\":485:494   */\n      dup3\n        /* \"#utility.yul\":481:499   */\n      add\n        /* \"#utility.yul\":473:499   */\n      swap1\n      pop\n        /* \"#utility.yul\":509:580   */\n      tag_47\n        /* \"#utility.yul\":577:578   */\n      0x00\n        /* \"#utility.yul\":566:575   */\n      dup4\n        /* \"#utility.yul\":562:579   */\n      add\n        /* \"#utility.yul\":553:559   */\n      dup5\n        /* \"#utility.yul\":509:580   */\n      tag_31\n      jump\t// in\n    tag_47:\n        /* \"#utility.yul\":365:587   */\n      swap3\n      swap2\n      pop\n      pop\n      jump\t// out\n        /* \"#utility.yul\":674:791   */\n    tag_33:\n        /* \"#utility.yul\":783:784   */\n      0x00\n        /* \"#utility.yul\":780:781   */\n      0x00\n        /* \"#utility.yul\":773:785   */\n      revert\n        /* \"#utility.yul\":920:1042   */\n    tag_35:\n        /* \"#utility.yul\":993:1017   */\n      tag_52\n        /* \"#utility.yul\":1011:1016   */\n      dup2\n        /* \"#utility.yul\":993:1017   */\n      tag_30\n      jump\t// in\n    tag_52:\n        /* \"#utility.yul\":986:991   */\n      dup2\n        /* \"#utility.yul\":983:1018   */\n      eq\n        /* \"#utility.yul\":973:1036   */\n      tag_53\n      jumpi\n        /* \"#utility.yul\":1032:1033   */\n      0x00\n        /* \"#utility.yul\":1029:1030   */\n      0x00\n        /* \"#utility.yul\":1022:1034   */\n      revert\n        /* \"#utility.yul\":973:1036   */\n    tag_53:\n        /* \"#utility.yul\":920:1042   */\n      pop\n      jump\t// out\n        /* \"#utility.yul\":1048:1187   */\n    tag_36:\n        /* \"#utility.yul\":1094:1099   */\n      0x00\n        /* \"#utility.yul\":1132:1138   */\n      dup2\n        /* \"#utility.yul\":1119:1139   */\n      calldataload\n        /* \"#utility.yul\":1110:1139   */\n      swap1\n      pop\n        /* \"#utility.yul\":1148:1181   */\n      tag_55\n        /* \"#utility.yul\":1175:1180   */\n      dup2\n        /* \"#utility.yul\":1148:1181   */\n      tag_35\n      jump\t// in\n    tag_55:\n        /* \"#utility.yul\":1048:1187   */\n      swap3\n      swap2\n      pop\n      pop\n      jump\t// out\n        /* \"#utility.yul\":1193:1522   */\n    tag_19:\n        /* \"#utility.yul\":1252:1258   */\n      0x00\n        /* \"#utility.yul\":1301:1303   */\n      0x20\n        /* \"#utility.yul\":1289:1298   */\n      dup3\n        /* \"#utility.yul\":1280:1287   */\n      dup5\n        /* \"#utility.yul\":1276:1299   */\n      sub\n        /* \"#utility.yul\":1272:1304   */\n      slt\n        /* \"#utility.yul\":1269:1388   */\n      iszero\n      tag_57\n      jumpi\n        /* \"#utility.yul\":1307:1386   */\n      tag_58\n      tag_33\n      jump\t// in\n    tag_58:\n        /* \"#utility.yul\":1269:1388   */\n    tag_57:\n        /* \"#utility.yul\":1427:1428   */\n      0x00\n        /* \"#utility.yul\":1452:1505   */\n      tag_59\n        /* \"#utility.yul\":1497:1504   */\n      dup5\n        /* \"#utility.yul\":1488:1494   */\n      dup3\n        /* \"#utility.yul\":1477:1486   */\n      dup6\n        /* \"#utility.yul\":1473:1495   */\n      add\n        /* \"#utility.yul\":1452:1505   */\n      tag_36\n      jump\t// in\n    tag_59:\n        /* \"#utility.yul\":1442:1505   */\n      swap2\n      pop\n        /* \"#utility.yul\":1398:1515   */\n      pop\n        /* \"#utility.yul\":1193:1522   */\n      swap3\n      swap2\n      pop\n      pop\n      jump\t// out\n        /* \"#utility.yul\":1528:1605   */\n    tag_37:\n        /* \"#utility.yul\":1565:1572   */\n      0x00\n        /* \"#utility.yul\":1594:1599   */\n      dup2\n        /* \"#utility.yul\":1583:1599   */\n      swap1\n      pop\n        /* \"#utility.yul\":1528:1605   */\n      swap2\n      swap1\n      pop\n      jump\t// out\n        /* \"#utility.yul\":1611:1729   */\n    tag_38:\n        /* \"#utility.yul\":1698:1722   */\n      tag_62\n        /* \"#utility.yul\":1716:1721   */\n      dup2\n        /* \"#utility.yul\":1698:1722   */\n      tag_37\n      jump\t// in\n    tag_62:\n        /* \"#utility.yul\":1693:1696   */\n      dup3\n        /* \"#utility.yul\":1686:1723   */\n      mstore\n        /* \"#utility.yul\":1611:1729   */\n      pop\n      pop\n      jump\t// out\n        /* \"#utility.yul\":1735:1957   */\n    tag_22:\n        /* \"#utility.yul\":1828:1832   */\n      0x00\n        /* \"#utility.yul\":1866:1868   */\n      0x20\n        /* \"#utility.yul\":1855:1864   */\n      dup3\n        /* \"#utility.yul\":1851:1869   */\n      add\n        /* \"#utility.yul\":1843:1869   */\n      swap1\n      pop\n        /* \"#utility.yul\":1879:1950   */\n      tag_64\n        /* \"#utility.yul\":1947:1948   */\n      0x00\n        /* \"#utility.yul\":1936:1945   */\n      dup4\n        /* \"#utility.yul\":1932:1949   */\n      add\n        /* \"#utility.yul\":1923:1929   */\n      dup5\n        /* \"#utility.yul\":1879:1950   */\n      tag_38\n      jump\t// in\n    tag_64:\n        /* \"#utility.yul\":1735:1957   */\n      swap3\n      swap2\n      pop\n      pop\n      jump\t// out\n        /* \"#utility.yul\":1963:2143   */\n    tag_39:\n        /* \"#utility.yul\":2011:2088   */\n      0x4e487b7100000000000000000000000000000000000000000000000000000000\n        /* \"#utility.yul\":2008:2009   */\n      0x00\n        /* \"#utility.yul\":2001:2089   */\n      mstore\n        /* \"#utility.yul\":2108:2112   */\n      0x11\n        /* \"#utility.yul\":2105:2106   */\n      0x04\n        /* \"#utility.yul\":2098:2113   */\n      mstore\n        /* \"#utility.yul\":2132:2136   */\n      0x24\n        /* \"#utility.yul\":2129:2130   */\n      0x00\n        /* \"#utility.yul\":2122:2137   */\n      revert\n        /* \"#utility.yul\":2149:2340   */\n    tag_25:\n        /* \"#utility.yul\":2189:2192   */\n      0x00\n        /* \"#utility.yul\":2208:2228   */\n      tag_67\n        /* \"#utility.yul\":2226:2227   */\n      dup3\n        /* \"#utility.yul\":2208:2228   */\n      tag_37\n      jump\t// in\n    tag_67:\n        /* \"#utility.yul\":2203:2228   */\n      swap2\n      pop\n        /* \"#utility.yul\":2242:2262   */\n      tag_68\n        /* \"#utility.yul\":2260:2261   */\n      dup4\n        /* \"#utility.yul\":2242:2262   */\n      tag_37\n      jump\t// in\n    tag_68:\n        /* \"#utility.yul\":2237:2262   */\n      swap3\n      pop\n        /* \"#utility.yul\":2285:2286   */\n      dup3\n        /* \"#utility.yul\":2282:2283   */\n      dup3\n        /* \"#utility.yul\":2278:2287   */\n      add\n        /* \"#utility.yul\":2271:2287   */\n      swap1\n      pop\n        /* \"#utility.yul\":2306:2309   */\n      dup1\n        /* \"#utility.yul\":2303:2304   */\n      dup3\n        /* \"#utility.yul\":2300:2310   */\n      gt\n        /* \"#utility.yul\":2297:2333   */\n      iszero\n      tag_69\n      jumpi\n        /* \"#utility.yul\":2313:2331   */\n      tag_70\n      tag_39\n      jump\t// in\n    tag_70:\n        /* \"#utility.yul\":2297:2333   */\n    tag_69:\n        /* \"#utility.yul\":2149:2340   */\n      swap3\n      swap2\n      pop\n      pop\n      jump\t// out\n\n    auxdata: 0xa264697066735822122022546f9b4b37d6996acd10fd73ade5da7bc5a66a7c41bb07b2f5177813c345ae64736f6c634300081e0033\n}\n",
				"bytecode": {
					"linkReferences": {},
					"object": "6080604052348015600e575f5ffd5b50335f5f6101000a81548173ffffffffffffffffffffffffffffffffffffffff021916908373ffffffffffffffffffffffffffffffffffffffff1602179055506103978061005b5f395ff3fe60806040526004361061003e575f3560e01c806313bea46014610042578063853828b61461004c5780638da5cb5b14610062578063e2982c211461008c575b5f5ffd5b61004a6100c8565b005b348015610057575f5ffd5b5061006061011d565b005b34801561006d575f5ffd5b506100766101e6565b604051610083919061025e565b60405180910390f35b348015610097575f5ffd5b506100b260048036038101906100ad91906102a5565b61020a565b6040516100bf91906102e8565b60405180910390f35b3460015f3373ffffffffffffffffffffffffffffffffffffffff1673ffffffffffffffffffffffffffffffffffffffff1681526020019081526020015f205f828254610114919061032e565b92505081905550565b5f5f5f9054906101000a900473ffffffffffffffffffffffffffffffffffffffff1690505f3090508173ffffffffffffffffffffffffffffffffffffffff166108fc8273ffffffffffffffffffffffffffffffffffffffff163190811502906040515f60405180830381858888f1935050505015801561019f573d5f5f3e3d5ffd5b505f60015f3373ffffffffffffffffffffffffffffffffffffffff1673ffffffffffffffffffffffffffffffffffffffff1681526020019081526020015f20819055505050565b5f5f9054906101000a900473ffffffffffffffffffffffffffffffffffffffff1681565b6001602052805f5260405f205f915090505481565b5f73ffffffffffffffffffffffffffffffffffffffff82169050919050565b5f6102488261021f565b9050919050565b6102588161023e565b82525050565b5f6020820190506102715f83018461024f565b92915050565b5f5ffd5b6102848161023e565b811461028e575f5ffd5b50565b5f8135905061029f8161027b565b92915050565b5f602082840312156102ba576102b9610277565b5b5f6102c784828501610291565b91505092915050565b5f819050919050565b6102e2816102d0565b82525050565b5f6020820190506102fb5f8301846102d9565b92915050565b7f4e487b71000000000000000000000000000000000000000000000000000000005f52601160045260245ffd5b5f610338826102d0565b9150610343836102d0565b925082820190508082111561035b5761035a610301565b5b9291505056fea264697066735822122022546f9b4b37d6996acd10fd73ade5da7bc5a66a7c41bb07b2f5177813c345ae64736f6c634300081e0033",
					"opcodes": "PUSH1 0x80 PUSH1 0x40 MSTORE CALLVALUE DUP1 ISZERO PUSH1 0xE JUMPI PUSH0 PUSH0 REVERT JUMPDEST POP CALLER PUSH0 PUSH0 PUSH2 0x100 EXP DUP2 SLOAD DUP2 PUSH20 0xFFFFFFFFFFFFFFFFFFFFFFFFFFFFFFFFFFFFFFFF MUL NOT AND SWAP1 DUP4 PUSH20 0xFFFFFFFFFFFFFFFFFFFFFFFFFFFFFFFFFFFFFFFF AND MUL OR SWAP1 SSTORE POP PUSH2 0x397 DUP1 PUSH2 0x5B PUSH0 CODECOPY PUSH0 RETURN INVALID PUSH1 0x80 PUSH1 0x40 MSTORE PUSH1 0x4 CALLDATASIZE LT PUSH2 0x3E JUMPI PUSH0 CALLDATALOAD PUSH1 0xE0 SHR DUP1 PUSH4 0x13BEA460 EQ PUSH2 0x42 JUMPI DUP1 PUSH4 0x853828B6 EQ PUSH2 0x4C JUMPI DUP1 PUSH4 0x8DA5CB5B EQ PUSH2 0x62 JUMPI DUP1 PUSH4 0xE2982C21 EQ PUSH2 0x8C JUMPI JUMPDEST PUSH0 PUSH0 REVERT JUMPDEST PUSH2 0x4A PUSH2 0xC8 JUMP JUMPDEST STOP JUMPDEST CALLVALUE DUP1 ISZERO PUSH2 0x57 JUMPI PUSH0 PUSH0 REVERT JUMPDEST POP PUSH2 0x60 PUSH2 0x11D JUMP JUMPDEST STOP JUMPDEST CALLVALUE DUP1 ISZERO PUSH2 0x6D JUMPI PUSH0 PUSH0 REVERT JUMPDEST POP PUSH2 0x76 PUSH2 0x1E6 JUMP JUMPDEST PUSH1 0x40 MLOAD PUSH2 0x83 SWAP2 SWAP1 PUSH2 0x25E JUMP JUMPDEST PUSH1 0x40 MLOAD DUP1 SWAP2 SUB SWAP1 RETURN JUMPDEST CALLVALUE DUP1 ISZERO PUSH2 0x97 JUMPI PUSH0 PUSH0 REVERT JUMPDEST POP PUSH2 0xB2 PUSH1 0x4 DUP1 CALLDATASIZE SUB DUP2 ADD SWAP1 PUSH2 0xAD SWAP2 SWAP1 PUSH2 0x2A5 JUMP JUMPDEST PUSH2 0x20A JUMP JUMPDEST PUSH1 0x40 MLOAD PUSH2 0xBF SWAP2 SWAP1 PUSH2 0x2E8 JUMP JUMPDEST PUSH1 0x40 MLOAD DUP1 SWAP2 SUB SWAP1 RETURN JUMPDEST CALLVALUE PUSH1 0x1 PUSH0 CALLER PUSH20 0xFFFFFFFFFFFFFFFFFFFFFFFFFFFFFFFFFFFFFFFF AND PUSH20 0xFFFFFFFFFFFFFFFFFFFFFFFFFFFFFFFFFFFFFFFF AND DUP2 MSTORE PUSH1 0x20 ADD SWAP1 DUP2 MSTORE PUSH1 0x20 ADD PUSH0 KECCAK256 PUSH0 DUP3 DUP3 SLOAD PUSH2 0x114 SWAP2 SWAP1 PUSH2 0x32E JUMP JUMPDEST SWAP3 POP POP DUP2 SWAP1 SSTORE POP JUMP JUMPDEST PUSH0 PUSH0 PUSH0 SWAP1 SLOAD SWAP1 PUSH2 0x100 EXP SWAP1 DIV PUSH20 0xFFFFFFFFFFFFFFFFFFFFFFFFFFFFFFFFFFFFFFFF AND SWAP1 POP PUSH0 ADDRESS SWAP1 POP DUP2 PUSH20 0xFFFFFFFFFFFFFFFFFFFFFFFFFFFFFFFFFFFFFFFF AND PUSH2 0x8FC DUP3 PUSH20 0xFFFFFFFFFFFFFFFFFFFFFFFFFFFFFFFFFFFFFFFF AND BALANCE SWAP1 DUP2 ISZERO MUL SWAP1 PUSH1 0x40 MLOAD PUSH0 PUSH1 0x40 MLOAD DUP1 DUP4 SUB DUP2 DUP6 DUP9 DUP9 CALL SWAP4 POP POP POP POP ISZERO DUP1 ISZERO PUSH2 0x19F JUMPI RETURNDATASIZE PUSH0 PUSH0 RETURNDATACOPY RETURNDATASIZE PUSH0 REVERT JUMPDEST POP PUSH0 PUSH1 0x1 PUSH0 CALLER PUSH20 0xFFFFFFFFFFFFFFFFFFFFFFFFFFFFFFFFFFFFFFFF AND PUSH20 0xFFFFFFFFFFFFFFFFFFFFFFFFFFFFFFFFFFFFFFFF AND DUP2 MSTORE PUSH1 0x20 ADD SWAP1 DUP2 MSTORE PUSH1 0x20 ADD PUSH0 KECCAK256 DUP2 SWAP1 SSTORE POP POP POP JUMP JUMPDEST PUSH0 PUSH0 SWAP1 SLOAD SWAP1 PUSH2 0x100 EXP SWAP1 DIV PUSH20 0xFFFFFFFFFFFFFFFFFFFFFFFFFFFFFFFFFFFFFFFF AND DUP2 JUMP JUMPDEST PUSH1 0x1 PUSH1 0x20 MSTORE DUP1 PUSH0 MSTORE PUSH1 0x40 PUSH0 KECCAK256 PUSH0 SWAP2 POP SWAP1 POP SLOAD DUP2 JUMP JUMPDEST PUSH0 PUSH20 0xFFFFFFFFFFFFFFFFFFFFFFFFFFFFFFFFFFFFFFFF DUP3 AND SWAP1 POP SWAP2 SWAP1 POP JUMP JUMPDEST PUSH0 PUSH2 0x248 DUP3 PUSH2 0x21F JUMP JUMPDEST SWAP1 POP SWAP2 SWAP1 POP JUMP JUMPDEST PUSH2 0x258 DUP2 PUSH2 0x23E JUMP JUMPDEST DUP3 MSTORE POP POP JUMP JUMPDEST PUSH0 PUSH1 0x20 DUP3 ADD SWAP1 POP PUSH2 0x271 PUSH0 DUP4 ADD DUP5 PUSH2 0x24F JUMP JUMPDEST SWAP3 SWAP2 POP POP JUMP JUMPDEST PUSH0 PUSH0 REVERT JUMPDEST PUSH2 0x284 DUP2 PUSH2 0x23E JUMP JUMPDEST DUP2 EQ PUSH2 0x28E JUMPI PUSH0 PUSH0 REVERT JUMPDEST POP JUMP JUMPDEST PUSH0 DUP2 CALLDATALOAD SWAP1 POP PUSH2 0x29F DUP2 PUSH2 0x27B JUMP JUMPDEST SWAP3 SWAP2 POP POP JUMP JUMPDEST PUSH0 PUSH1 0x20 DUP3 DUP5 SUB SLT ISZERO PUSH2 0x2BA JUMPI PUSH2 0x2B9 PUSH2 0x277 JUMP JUMPDEST JUMPDEST PUSH0 PUSH2 0x2C7 DUP5 DUP3 DUP6 ADD PUSH2 0x291 JUMP JUMPDEST SWAP2 POP POP SWAP3 SWAP2 POP POP JUMP JUMPDEST PUSH0 DUP2 SWAP1 POP SWAP2 SWAP1 POP JUMP JUMPDEST PUSH2 0x2E2 DUP2 PUSH2 0x2D0 JUMP JUMPDEST DUP3 MSTORE POP POP JUMP JUMPDEST PUSH0 PUSH1 0x20 DUP3 ADD SWAP1 POP PUSH2 0x2FB PUSH0 DUP4 ADD DUP5 PUSH2 0x2D9 JUMP JUMPDEST SWAP3 SWAP2 POP POP JUMP JUMPDEST PUSH32 0x4E487B7100000000000000000000000000000000000000000000000000000000 PUSH0 MSTORE PUSH1 0x11 PUSH1 0x4 MSTORE PUSH1 0x24 PUSH0 REVERT JUMPDEST PUSH0 PUSH2 0x338 DUP3 PUSH2 0x2D0 JUMP JUMPDEST SWAP2 POP PUSH2 0x343 DUP4 PUSH2 0x2D0 JUMP JUMPDEST SWAP3 POP DUP3 DUP3 ADD SWAP1 POP DUP1 DUP3 GT ISZERO PUSH2 0x35B JUMPI PUSH2 0x35A PUSH2 0x301 JUMP JUMPDEST JUMPDEST SWAP3 SWAP2 POP POP JUMP INVALID LOG2 PUSH5 0x6970667358 0x22 SLT KECCAK256 0x22 SLOAD PUSH16 0x9B4B37D6996ACD10FD73ADE5DA7BC5A6 PUSH11 0x7C41BB07B2F5177813C345 0xAE PUSH5 0x736F6C6343 STOP ADDMOD 0x1E STOP CALLER "
				},
				"gasEstimates": {
					"creation": {
						"codeDepositCost": "183800",
						"executionCost": "24488",
						"totalCost": "208288"
					},
					"external": {
						"owner()": "2529",
						"payForItem()": "infinite",
						"payments(address)": "2846",
						"withdrawAll()": "infinite"
					}
				},
				"methodIdentifiers": {
					"owner()": "8da5cb5b",
					"payForItem()": "13bea460",
					"payments(address)": "e2982c21",
					"withdrawAll()": "853828b6"
				}
			},
			"storageLayout": {
				"storage": [
					{
						"astId": 3,
						"contract": "SmartContracts/task_1.sol:MyShop",
						"label": "owner",
						"offset": 0,
						"slot": "0",
						"type": "t_address"
					},
					{
						"astId": 7,
						"contract": "SmartContracts/task_1.sol:MyShop",
						"label": "payments",
						"offset": 0,
						"slot": "1",
						"type": "t_mapping(t_address,t_uint256)"
					}
				],
				"types": {
					"t_address": {
						"encoding": "inplace",
						"label": "address",
						"numberOfBytes": "20"
					},
					"t_mapping(t_address,t_uint256)": {
						"encoding": "mapping",
						"key": "t_address",
						"label": "mapping(address => uint256)",
						"numberOfBytes": "32",
						"value": "t_uint256"
					},
					"t_uint256": {
						"encoding": "inplace",
						"label": "uint256",
						"numberOfBytes": "32"
					}
				}
			},
			"userdoc": {
				"kind": "user",
				"methods": {},
				"version": 1
			}
		}
	}
}