{
	"SmartContracts/Urok2.sol": {
		"urok2": {
			"abi": [
				{
					"stateMutability": "payable",
					"type": "fallback"
				},
				{
					"inputs": [],
					"name": "balance",
					"outputs": [
						{
							"internalType": "uint256",
							"name": "",
							"type": "uint256"
						}
					],
					"stateMutability": "view",
					"type": "function"
				},
				{
					"inputs": [],
					"name": "getBalance",
					"outputs": [
						{
							"internalType": "uint256",
							"name": "",
							"type": "uint256"
						}
					],
					"stateMutability": "view",
					"type": "function"
				},
				{
					"inputs": [],
					"name": "getMessage",
					"outputs": [
						{
							"internalType": "string",
							"name": "",
							"type": "string"
						}
					],
					"stateMutability": "view",
					"type": "function"
				},
				{
					"inputs": [],
					"name": "pay",
					"outputs": [],
					"stateMutability": "payable",
					"type": "function"
				},
				{
					"inputs": [
						{
							"internalType": "uint256",
							"name": "amount",
							"type": "uint256"
						}
					],
					"name": "rate",
					"outputs": [
						{
							"internalType": "uint256",
							"name": "",
							"type": "uint256"
						}
					],
					"stateMutability": "pure",
					"type": "function"
				},
				{
					"inputs": [
						{
							"internalType": "string",
							"name": "newMessage",
							"type": "string"
						}
					],
					"name": "setMessage",
					"outputs": [
						{
							"internalType": "string",
							"name": "",
							"type": "string"
						}
					],
					"stateMutability": "nonpayable",
					"type": "function"
				},
				{
					"stateMutability": "payable",
					"type": "receive"
				}
			],
			"devdoc": {
				"kind": "dev",
				"methods": {},
				"version": 1
			},
			"evm": {
				"assembly": "    /* \"SmartContracts/Urok2.sol\":63:3874  contract urok2 {... */\n  mstore(0x40, 0x80)\n    /* \"SmartContracts/Urok2.sol\":911:936  string message = \"hello!\" */\n  mload(0x40)\n  dup1\n  0x40\n  add\n  0x40\n  mstore\n  dup1\n  0x06\n  dup2\n  mstore\n  0x20\n  add\n  0x68656c6c6f210000000000000000000000000000000000000000000000000000\n  dup2\n  mstore\n  pop\n  0x00\n  swap1\n  dup2\n  tag_1\n  swap2\n  swap1\n  tag_2\n  jump\t// in\ntag_1:\n  pop\n    /* \"SmartContracts/Urok2.sol\":63:3874  contract urok2 {... */\n  callvalue\n  dup1\n  iszero\n  tag_3\n  jumpi\n  revert(0x00, 0x00)\ntag_3:\n  pop\n  jump(tag_4)\n    /* \"#utility.yul\":7:106   */\ntag_5:\n    /* \"#utility.yul\":59:65   */\n  0x00\n    /* \"#utility.yul\":93:98   */\n  dup2\n    /* \"#utility.yul\":87:99   */\n  mload\n    /* \"#utility.yul\":77:99   */\n  swap1\n  pop\n    /* \"#utility.yul\":7:106   */\n  swap2\n  swap1\n  pop\n  jump\t// out\n    /* \"#utility.yul\":112:292   */\ntag_6:\n    /* \"#utility.yul\":160:237   */\n  0x4e487b7100000000000000000000000000000000000000000000000000000000\n    /* \"#utility.yul\":157:158   */\n  0x00\n    /* \"#utility.yul\":150:238   */\n  mstore\n    /* \"#utility.yul\":257:261   */\n  0x41\n    /* \"#utility.yul\":254:255   */\n  0x04\n    /* \"#utility.yul\":247:262   */\n  mstore\n    /* \"#utility.yul\":281:285   */\n  0x24\n    /* \"#utility.yul\":278:279   */\n  0x00\n    /* \"#utility.yul\":271:286   */\n  revert\n    /* \"#utility.yul\":298:478   */\ntag_7:\n    /* \"#utility.yul\":346:423   */\n  0x4e487b7100000000000000000000000000000000000000000000000000000000\n    /* \"#utility.yul\":343:344   */\n  0x00\n    /* \"#utility.yul\":336:424   */\n  mstore\n    /* \"#utility.yul\":443:447   */\n  0x22\n    /* \"#utility.yul\":440:441   */\n  0x04\n    /* \"#utility.yul\":433:448   */\n  mstore\n    /* \"#utility.yul\":467:471   */\n  0x24\n    /* \"#utility.yul\":464:465   */\n  0x00\n    /* \"#utility.yul\":457:472   */\n  revert\n    /* \"#utility.yul\":484:804   */\ntag_8:\n    /* \"#utility.yul\":528:534   */\n  0x00\n    /* \"#utility.yul\":565:566   */\n  0x02\n    /* \"#utility.yul\":559:563   */\n  dup3\n    /* \"#utility.yul\":555:567   */\n  div\n    /* \"#utility.yul\":545:567   */\n  swap1\n  pop\n    /* \"#utility.yul\":612:613   */\n  0x01\n    /* \"#utility.yul\":606:610   */\n  dup3\n    /* \"#utility.yul\":602:614   */\n  and\n    /* \"#utility.yul\":633:651   */\n  dup1\n    /* \"#utility.yul\":623:704   */\n  tag_30\n  jumpi\n    /* \"#utility.yul\":689:693   */\n  0x7f\n    /* \"#utility.yul\":681:687   */\n  dup3\n    /* \"#utility.yul\":677:694   */\n  and\n    /* \"#utility.yul\":667:694   */\n  swap2\n  pop\n    /* \"#utility.yul\":623:704   */\ntag_30:\n    /* \"#utility.yul\":751:753   */\n  0x20\n    /* \"#utility.yul\":743:749   */\n  dup3\n    /* \"#utility.yul\":740:754   */\n  lt\n    /* \"#utility.yul\":720:738   */\n  dup2\n    /* \"#utility.yul\":717:755   */\n  sub\n    /* \"#utility.yul\":714:798   */\n  tag_31\n  jumpi\n    /* \"#utility.yul\":770:788   */\n  tag_32\n  tag_7\n  jump\t// in\ntag_32:\n    /* \"#utility.yul\":714:798   */\ntag_31:\n    /* \"#utility.yul\":535:804   */\n  pop\n    /* \"#utility.yul\":484:804   */\n  swap2\n  swap1\n  pop\n  jump\t// out\n    /* \"#utility.yul\":810:951   */\ntag_9:\n    /* \"#utility.yul\":859:863   */\n  0x00\n    /* \"#utility.yul\":882:885   */\n  dup2\n    /* \"#utility.yul\":874:885   */\n  swap1\n  pop\n    /* \"#utility.yul\":905:908   */\n  dup2\n    /* \"#utility.yul\":902:903   */\n  0x00\n    /* \"#utility.yul\":895:909   */\n  mstore\n    /* \"#utility.yul\":939:943   */\n  0x20\n    /* \"#utility.yul\":936:937   */\n  0x00\n    /* \"#utility.yul\":926:944   */\n  keccak256\n    /* \"#utility.yul\":918:944   */\n  swap1\n  pop\n    /* \"#utility.yul\":810:951   */\n  swap2\n  swap1\n  pop\n  jump\t// out\n    /* \"#utility.yul\":957:1050   */\ntag_10:\n    /* \"#utility.yul\":994:1000   */\n  0x00\n    /* \"#utility.yul\":1041:1043   */\n  0x20\n    /* \"#utility.yul\":1036:1038   */\n  0x1f\n    /* \"#utility.yul\":1029:1034   */\n  dup4\n    /* \"#utility.yul\":1025:1039   */\n  add\n    /* \"#utility.yul\":1021:1044   */\n  div\n    /* \"#utility.yul\":1011:1044   */\n  swap1\n  pop\n    /* \"#utility.yul\":957:1050   */\n  swap2\n  swap1\n  pop\n  jump\t// out\n    /* \"#utility.yul\":1056:1163   */\ntag_11:\n    /* \"#utility.yul\":1100:1108   */\n  0x00\n    /* \"#utility.yul\":1150:1155   */\n  dup3\n    /* \"#utility.yul\":1144:1148   */\n  dup3\n    /* \"#utility.yul\":1140:1156   */\n  shl\n    /* \"#utility.yul\":1119:1156   */\n  swap1\n  pop\n    /* \"#utility.yul\":1056:1163   */\n  swap3\n  swap2\n  pop\n  pop\n  jump\t// out\n    /* \"#utility.yul\":1169:1562   */\ntag_12:\n    /* \"#utility.yul\":1238:1244   */\n  0x00\n    /* \"#utility.yul\":1288:1289   */\n  0x08\n    /* \"#utility.yul\":1276:1286   */\n  dup4\n    /* \"#utility.yul\":1272:1290   */\n  mul\n    /* \"#utility.yul\":1311:1408   */\n  tag_37\n    /* \"#utility.yul\":1341:1407   */\n  0xffffffffffffffffffffffffffffffffffffffffffffffffffffffffffffffff\n    /* \"#utility.yul\":1330:1339   */\n  dup3\n    /* \"#utility.yul\":1311:1408   */\n  tag_11\n  jump\t// in\ntag_37:\n    /* \"#utility.yul\":1429:1468   */\n  tag_38\n    /* \"#utility.yul\":1459:1467   */\n  dup7\n    /* \"#utility.yul\":1448:1457   */\n  dup4\n    /* \"#utility.yul\":1429:1468   */\n  tag_11\n  jump\t// in\ntag_38:\n    /* \"#utility.yul\":1417:1468   */\n  swap6\n  pop\n    /* \"#utility.yul\":1501:1505   */\n  dup1\n    /* \"#utility.yul\":1497:1506   */\n  not\n    /* \"#utility.yul\":1490:1495   */\n  dup5\n    /* \"#utility.yul\":1486:1507   */\n  and\n    /* \"#utility.yul\":1477:1507   */\n  swap4\n  pop\n    /* \"#utility.yul\":1550:1554   */\n  dup1\n    /* \"#utility.yul\":1540:1548   */\n  dup7\n    /* \"#utility.yul\":1536:1555   */\n  and\n    /* \"#utility.yul\":1529:1534   */\n  dup5\n    /* \"#utility.yul\":1526:1556   */\n  or\n    /* \"#utility.yul\":1516:1556   */\n  swap3\n  pop\n    /* \"#utility.yul\":1245:1562   */\n  pop\n  pop\n    /* \"#utility.yul\":1169:1562   */\n  swap4\n  swap3\n  pop\n  pop\n  pop\n  jump\t// out\n    /* \"#utility.yul\":1568:1645   */\ntag_13:\n    /* \"#utility.yul\":1605:1612   */\n  0x00\n    /* \"#utility.yul\":1634:1639   */\n  dup2\n    /* \"#utility.yul\":1623:1639   */\n  swap1\n  pop\n    /* \"#utility.yul\":1568:1645   */\n  swap2\n  swap1\n  pop\n  jump\t// out\n    /* \"#utility.yul\":1651:1711   */\ntag_14:\n    /* \"#utility.yul\":1679:1682   */\n  0x00\n    /* \"#utility.yul\":1700:1705   */\n  dup2\n    /* \"#utility.yul\":1693:1705   */\n  swap1\n  pop\n    /* \"#utility.yul\":1651:1711   */\n  swap2\n  swap1\n  pop\n  jump\t// out\n    /* \"#utility.yul\":1717:1859   */\ntag_15:\n    /* \"#utility.yul\":1767:1776   */\n  0x00\n    /* \"#utility.yul\":1800:1853   */\n  tag_42\n    /* \"#utility.yul\":1818:1852   */\n  tag_43\n    /* \"#utility.yul\":1827:1851   */\n  tag_44\n    /* \"#utility.yul\":1845:1850   */\n  dup5\n    /* \"#utility.yul\":1827:1851   */\n  tag_13\n  jump\t// in\ntag_44:\n    /* \"#utility.yul\":1818:1852   */\n  tag_14\n  jump\t// in\ntag_43:\n    /* \"#utility.yul\":1800:1853   */\n  tag_13\n  jump\t// in\ntag_42:\n    /* \"#utility.yul\":1787:1853   */\n  swap1\n  pop\n    /* \"#utility.yul\":1717:1859   */\n  swap2\n  swap1\n  pop\n  jump\t// out\n    /* \"#utility.yul\":1865:1940   */\ntag_16:\n    /* \"#utility.yul\":1908:1911   */\n  0x00\n    /* \"#utility.yul\":1929:1934   */\n  dup2\n    /* \"#utility.yul\":1922:1934   */\n  swap1\n  pop\n    /* \"#utility.yul\":1865:1940   */\n  swap2\n  swap1\n  pop\n  jump\t// out\n    /* \"#utility.yul\":1946:2215   */\ntag_17:\n    /* \"#utility.yul\":2056:2095   */\n  tag_47\n    /* \"#utility.yul\":2087:2094   */\n  dup4\n    /* \"#utility.yul\":2056:2095   */\n  tag_15\n  jump\t// in\ntag_47:\n    /* \"#utility.yul\":2117:2208   */\n  tag_48\n    /* \"#utility.yul\":2166:2207   */\n  tag_49\n    /* \"#utility.yul\":2190:2206   */\n  dup3\n    /* \"#utility.yul\":2166:2207   */\n  tag_16\n  jump\t// in\ntag_49:\n    /* \"#utility.yul\":2158:2164   */\n  dup5\n    /* \"#utility.yul\":2151:2155   */\n  dup5\n    /* \"#utility.yul\":2145:2156   */\n  sload\n    /* \"#utility.yul\":2117:2208   */\n  tag_12\n  jump\t// in\ntag_48:\n    /* \"#utility.yul\":2111:2115   */\n  dup3\n    /* \"#utility.yul\":2104:2209   */\n  sstore\n    /* \"#utility.yul\":2022:2215   */\n  pop\n    /* \"#utility.yul\":1946:2215   */\n  pop\n  pop\n  pop\n  jump\t// out\n    /* \"#utility.yul\":2221:2294   */\ntag_18:\n    /* \"#utility.yul\":2266:2269   */\n  0x00\n    /* \"#utility.yul\":2287:2288   */\n  0x00\n    /* \"#utility.yul\":2280:2288   */\n  swap1\n  pop\n    /* \"#utility.yul\":2221:2294   */\n  swap1\n  jump\t// out\n    /* \"#utility.yul\":2300:2489   */\ntag_19:\n    /* \"#utility.yul\":2377:2409   */\n  tag_52\n  tag_18\n  jump\t// in\ntag_52:\n    /* \"#utility.yul\":2418:2483   */\n  tag_53\n    /* \"#utility.yul\":2476:2482   */\n  dup2\n    /* \"#utility.yul\":2468:2474   */\n  dup5\n    /* \"#utility.yul\":2462:2466   */\n  dup5\n    /* \"#utility.yul\":2418:2483   */\n  tag_17\n  jump\t// in\ntag_53:\n    /* \"#utility.yul\":2353:2489   */\n  pop\n    /* \"#utility.yul\":2300:2489   */\n  pop\n  pop\n  jump\t// out\n    /* \"#utility.yul\":2495:2681   */\ntag_20:\n    /* \"#utility.yul\":2555:2675   */\ntag_55:\n    /* \"#utility.yul\":2572:2575   */\n  dup2\n    /* \"#utility.yul\":2565:2570   */\n  dup2\n    /* \"#utility.yul\":2562:2576   */\n  lt\n    /* \"#utility.yul\":2555:2675   */\n  iszero\n  tag_57\n  jumpi\n    /* \"#utility.yul\":2626:2665   */\n  tag_58\n    /* \"#utility.yul\":2663:2664   */\n  0x00\n    /* \"#utility.yul\":2656:2661   */\n  dup3\n    /* \"#utility.yul\":2626:2665   */\n  tag_19\n  jump\t// in\ntag_58:\n    /* \"#utility.yul\":2599:2600   */\n  0x01\n    /* \"#utility.yul\":2592:2597   */\n  dup2\n    /* \"#utility.yul\":2588:2601   */\n  add\n    /* \"#utility.yul\":2579:2601   */\n  swap1\n  pop\n    /* \"#utility.yul\":2555:2675   */\n  jump(tag_55)\ntag_57:\n    /* \"#utility.yul\":2495:2681   */\n  pop\n  pop\n  jump\t// out\n    /* \"#utility.yul\":2687:3230   */\ntag_21:\n    /* \"#utility.yul\":2788:2790   */\n  0x1f\n    /* \"#utility.yul\":2783:2786   */\n  dup3\n    /* \"#utility.yul\":2780:2791   */\n  gt\n    /* \"#utility.yul\":2777:3223   */\n  iszero\n  tag_60\n  jumpi\n    /* \"#utility.yul\":2822:2860   */\n  tag_61\n    /* \"#utility.yul\":2854:2859   */\n  dup2\n    /* \"#utility.yul\":2822:2860   */\n  tag_9\n  jump\t// in\ntag_61:\n    /* \"#utility.yul\":2906:2935   */\n  tag_62\n    /* \"#utility.yul\":2924:2934   */\n  dup5\n    /* \"#utility.yul\":2906:2935   */\n  tag_10\n  jump\t// in\ntag_62:\n    /* \"#utility.yul\":2896:2904   */\n  dup2\n    /* \"#utility.yul\":2892:2936   */\n  add\n    /* \"#utility.yul\":3089:3091   */\n  0x20\n    /* \"#utility.yul\":3077:3087   */\n  dup6\n    /* \"#utility.yul\":3074:3092   */\n  lt\n    /* \"#utility.yul\":3071:3120   */\n  iszero\n  tag_63\n  jumpi\n    /* \"#utility.yul\":3110:3118   */\n  dup2\n    /* \"#utility.yul\":3095:3118   */\n  swap1\n  pop\n    /* \"#utility.yul\":3071:3120   */\ntag_63:\n    /* \"#utility.yul\":3133:3213   */\n  tag_64\n    /* \"#utility.yul\":3189:3211   */\n  tag_65\n    /* \"#utility.yul\":3207:3210   */\n  dup6\n    /* \"#utility.yul\":3189:3211   */\n  tag_10\n  jump\t// in\ntag_65:\n    /* \"#utility.yul\":3179:3187   */\n  dup4\n    /* \"#utility.yul\":3175:3212   */\n  add\n    /* \"#utility.yul\":3162:3173   */\n  dup3\n    /* \"#utility.yul\":3133:3213   */\n  tag_20\n  jump\t// in\ntag_64:\n    /* \"#utility.yul\":2792:3223   */\n  pop\n  pop\n    /* \"#utility.yul\":2777:3223   */\ntag_60:\n    /* \"#utility.yul\":2687:3230   */\n  pop\n  pop\n  pop\n  jump\t// out\n    /* \"#utility.yul\":3236:3353   */\ntag_22:\n    /* \"#utility.yul\":3290:3298   */\n  0x00\n    /* \"#utility.yul\":3340:3345   */\n  dup3\n    /* \"#utility.yul\":3334:3338   */\n  dup3\n    /* \"#utility.yul\":3330:3346   */\n  shr\n    /* \"#utility.yul\":3309:3346   */\n  swap1\n  pop\n    /* \"#utility.yul\":3236:3353   */\n  swap3\n  swap2\n  pop\n  pop\n  jump\t// out\n    /* \"#utility.yul\":3359:3528   */\ntag_23:\n    /* \"#utility.yul\":3403:3409   */\n  0x00\n    /* \"#utility.yul\":3436:3487   */\n  tag_68\n    /* \"#utility.yul\":3484:3485   */\n  0x00\n    /* \"#utility.yul\":3480:3486   */\n  not\n    /* \"#utility.yul\":3472:3477   */\n  dup5\n    /* \"#utility.yul\":3469:3470   */\n  0x08\n    /* \"#utility.yul\":3465:3478   */\n  mul\n    /* \"#utility.yul\":3436:3487   */\n  tag_22\n  jump\t// in\ntag_68:\n    /* \"#utility.yul\":3432:3488   */\n  not\n    /* \"#utility.yul\":3517:3521   */\n  dup1\n    /* \"#utility.yul\":3511:3515   */\n  dup4\n    /* \"#utility.yul\":3507:3522   */\n  and\n    /* \"#utility.yul\":3497:3522   */\n  swap2\n  pop\n    /* \"#utility.yul\":3410:3528   */\n  pop\n    /* \"#utility.yul\":3359:3528   */\n  swap3\n  swap2\n  pop\n  pop\n  jump\t// out\n    /* \"#utility.yul\":3533:3828   */\ntag_24:\n    /* \"#utility.yul\":3609:3613   */\n  0x00\n    /* \"#utility.yul\":3755:3784   */\n  tag_70\n    /* \"#utility.yul\":3780:3783   */\n  dup4\n    /* \"#utility.yul\":3774:3778   */\n  dup4\n    /* \"#utility.yul\":3755:3784   */\n  tag_23\n  jump\t// in\ntag_70:\n    /* \"#utility.yul\":3747:3784   */\n  swap2\n  pop\n    /* \"#utility.yul\":3817:3820   */\n  dup3\n    /* \"#utility.yul\":3814:3815   */\n  0x02\n    /* \"#utility.yul\":3810:3821   */\n  mul\n    /* \"#utility.yul\":3804:3808   */\n  dup3\n    /* \"#utility.yul\":3801:3822   */\n  or\n    /* \"#utility.yul\":3793:3822   */\n  swap1\n  pop\n    /* \"#utility.yul\":3533:3828   */\n  swap3\n  swap2\n  pop\n  pop\n  jump\t// out\n    /* \"#utility.yul\":3833:5228   */\ntag_2:\n    /* \"#utility.yul\":3950:3987   */\n  tag_72\n    /* \"#utility.yul\":3983:3986   */\n  dup3\n    /* \"#utility.yul\":3950:3987   */\n  tag_5\n  jump\t// in\ntag_72:\n    /* \"#utility.yul\":4052:4070   */\n  0xffffffffffffffff\n    /* \"#utility.yul\":4044:4050   */\n  dup2\n    /* \"#utility.yul\":4041:4071   */\n  gt\n    /* \"#utility.yul\":4038:4094   */\n  iszero\n  tag_73\n  jumpi\n    /* \"#utility.yul\":4074:4092   */\n  tag_74\n  tag_6\n  jump\t// in\ntag_74:\n    /* \"#utility.yul\":4038:4094   */\ntag_73:\n    /* \"#utility.yul\":4118:4156   */\n  tag_75\n    /* \"#utility.yul\":4150:4154   */\n  dup3\n    /* \"#utility.yul\":4144:4155   */\n  sload\n    /* \"#utility.yul\":4118:4156   */\n  tag_8\n  jump\t// in\ntag_75:\n    /* \"#utility.yul\":4203:4270   */\n  tag_76\n    /* \"#utility.yul\":4263:4269   */\n  dup3\n    /* \"#utility.yul\":4255:4261   */\n  dup3\n    /* \"#utility.yul\":4249:4253   */\n  dup6\n    /* \"#utility.yul\":4203:4270   */\n  tag_21\n  jump\t// in\ntag_76:\n    /* \"#utility.yul\":4297:4298   */\n  0x00\n    /* \"#utility.yul\":4321:4325   */\n  0x20\n    /* \"#utility.yul\":4308:4325   */\n  swap1\n  pop\n    /* \"#utility.yul\":4353:4355   */\n  0x1f\n    /* \"#utility.yul\":4345:4351   */\n  dup4\n    /* \"#utility.yul\":4342:4356   */\n  gt\n    /* \"#utility.yul\":4370:4371   */\n  0x01\n    /* \"#utility.yul\":4365:4983   */\n  dup2\n  eq\n  tag_78\n  jumpi\n    /* \"#utility.yul\":5027:5028   */\n  0x00\n    /* \"#utility.yul\":5044:5050   */\n  dup5\n    /* \"#utility.yul\":5041:5118   */\n  iszero\n  tag_79\n  jumpi\n    /* \"#utility.yul\":5093:5102   */\n  dup3\n    /* \"#utility.yul\":5088:5091   */\n  dup8\n    /* \"#utility.yul\":5084:5103   */\n  add\n    /* \"#utility.yul\":5078:5104   */\n  mload\n    /* \"#utility.yul\":5069:5104   */\n  swap1\n  pop\n    /* \"#utility.yul\":5041:5118   */\ntag_79:\n    /* \"#utility.yul\":5144:5211   */\n  tag_80\n    /* \"#utility.yul\":5204:5210   */\n  dup6\n    /* \"#utility.yul\":5197:5202   */\n  dup3\n    /* \"#utility.yul\":5144:5211   */\n  tag_24\n  jump\t// in\ntag_80:\n    /* \"#utility.yul\":5138:5142   */\n  dup7\n    /* \"#utility.yul\":5131:5212   */\n  sstore\n    /* \"#utility.yul\":5000:5222   */\n  pop\n    /* \"#utility.yul\":4335:5222   */\n  jump(tag_77)\n    /* \"#utility.yul\":4365:4983   */\ntag_78:\n    /* \"#utility.yul\":4417:4421   */\n  0x1f\n    /* \"#utility.yul\":4413:4422   */\n  not\n    /* \"#utility.yul\":4405:4411   */\n  dup5\n    /* \"#utility.yul\":4401:4423   */\n  and\n    /* \"#utility.yul\":4451:4488   */\n  tag_81\n    /* \"#utility.yul\":4483:4487   */\n  dup7\n    /* \"#utility.yul\":4451:4488   */\n  tag_9\n  jump\t// in\ntag_81:\n    /* \"#utility.yul\":4510:4511   */\n  0x00\n    /* \"#utility.yul\":4524:4732   */\ntag_82:\n    /* \"#utility.yul\":4538:4545   */\n  dup3\n    /* \"#utility.yul\":4535:4536   */\n  dup2\n    /* \"#utility.yul\":4532:4546   */\n  lt\n    /* \"#utility.yul\":4524:4732   */\n  iszero\n  tag_84\n  jumpi\n    /* \"#utility.yul\":4617:4626   */\n  dup5\n    /* \"#utility.yul\":4612:4615   */\n  dup10\n    /* \"#utility.yul\":4608:4627   */\n  add\n    /* \"#utility.yul\":4602:4628   */\n  mload\n    /* \"#utility.yul\":4594:4600   */\n  dup3\n    /* \"#utility.yul\":4587:4629   */\n  sstore\n    /* \"#utility.yul\":4668:4669   */\n  0x01\n    /* \"#utility.yul\":4660:4666   */\n  dup3\n    /* \"#utility.yul\":4656:4670   */\n  add\n    /* \"#utility.yul\":4646:4670   */\n  swap2\n  pop\n    /* \"#utility.yul\":4715:4717   */\n  0x20\n    /* \"#utility.yul\":4704:4713   */\n  dup6\n    /* \"#utility.yul\":4700:4718   */\n  add\n    /* \"#utility.yul\":4687:4718   */\n  swap5\n  pop\n    /* \"#utility.yul\":4561:4565   */\n  0x20\n    /* \"#utility.yul\":4558:4559   */\n  dup2\n    /* \"#utility.yul\":4554:4566   */\n  add\n    /* \"#utility.yul\":4549:4566   */\n  swap1\n  pop\n    /* \"#utility.yul\":4524:4732   */\n  jump(tag_82)\ntag_84:\n    /* \"#utility.yul\":4760:4766   */\n  dup7\n    /* \"#utility.yul\":4751:4758   */\n  dup4\n    /* \"#utility.yul\":4748:4767   */\n  lt\n    /* \"#utility.yul\":4745:4924   */\n  iszero\n  tag_85\n  jumpi\n    /* \"#utility.yul\":4818:4827   */\n  dup5\n    /* \"#utility.yul\":4813:4816   */\n  dup10\n    /* \"#utility.yul\":4809:4828   */\n  add\n    /* \"#utility.yul\":4803:4829   */\n  mload\n    /* \"#utility.yul\":4861:4909   */\n  tag_86\n    /* \"#utility.yul\":4903:4907   */\n  0x1f\n    /* \"#utility.yul\":4895:4901   */\n  dup10\n    /* \"#utility.yul\":4891:4908   */\n  and\n    /* \"#utility.yul\":4880:4889   */\n  dup3\n    /* \"#utility.yul\":4861:4909   */\n  tag_23\n  jump\t// in\ntag_86:\n    /* \"#utility.yul\":4853:4859   */\n  dup4\n    /* \"#utility.yul\":4846:4910   */\n  sstore\n    /* \"#utility.yul\":4768:4924   */\n  pop\n    /* \"#utility.yul\":4745:4924   */\ntag_85:\n    /* \"#utility.yul\":4970:4971   */\n  0x01\n    /* \"#utility.yul\":4966:4967   */\n  0x02\n    /* \"#utility.yul\":4958:4964   */\n  dup9\n    /* \"#utility.yul\":4954:4968   */\n  mul\n    /* \"#utility.yul\":4950:4972   */\n  add\n    /* \"#utility.yul\":4944:4948   */\n  dup9\n    /* \"#utility.yul\":4937:4973   */\n  sstore\n    /* \"#utility.yul\":4372:4983   */\n  pop\n  pop\n  pop\n    /* \"#utility.yul\":4335:5222   */\ntag_77:\n  pop\n    /* \"#utility.yul\":3925:5228   */\n  pop\n  pop\n  pop\n    /* \"#utility.yul\":3833:5228   */\n  pop\n  pop\n  jump\t// out\n    /* \"SmartContracts/Urok2.sol\":63:3874  contract urok2 {... */\ntag_4:\n  dataSize(sub_0)\n  dup1\n  dataOffset(sub_0)\n  0x00\n  codecopy\n  0x00\n  return\nstop\n\nsub_0: assembly {\n        /* \"SmartContracts/Urok2.sol\":63:3874  contract urok2 {... */\n      mstore(0x40, 0x80)\n      jumpi(tag_1, lt(calldatasize, 0x04))\n      shr(0xe0, calldataload(0x00))\n      dup1\n      0x12065fe0\n      eq\n      tag_3\n      jumpi\n      dup1\n      0x1b9265b8\n      eq\n      tag_4\n      jumpi\n      dup1\n      0x368b8772\n      eq\n      tag_5\n      jumpi\n      dup1\n      0xb69ef8a8\n      eq\n      tag_6\n      jumpi\n      dup1\n      0xce6d41de\n      eq\n      tag_7\n      jumpi\n      dup1\n      0xe7ee6ad6\n      eq\n      tag_8\n      jumpi\n      jump(tag_2)\n    tag_1:\n    tag_2:\n      stop\n        /* \"SmartContracts/Urok2.sol\":2950:3304  function getBalance() public view returns(uint) { // в return можем дать то имя которое хотим вернуть... */\n    tag_3:\n      callvalue\n      dup1\n      iszero\n      tag_13\n      jumpi\n      revert(0x00, 0x00)\n    tag_13:\n      pop\n      tag_14\n      tag_15\n      jump\t// in\n    tag_14:\n      mload(0x40)\n      tag_16\n      swap2\n      swap1\n      tag_17\n      jump\t// in\n    tag_16:\n      mload(0x40)\n      dup1\n      swap2\n      sub\n      swap1\n      return\n        /* \"SmartContracts/Urok2.sol\":1504:2269  function pay() external payable { // если не пометим payable то обратится к msg.value не выйдет, выйдет ошибка но денежные средства вернутся отправителю... */\n    tag_4:\n      tag_18\n      tag_19\n      jump\t// in\n    tag_18:\n      stop\n        /* \"SmartContracts/Urok2.sol\":2333:2799  function setMessage(string memory newMessage) external returns(string memory) { // view и pure не указываем т.к модифицируем, string memory для нового сообщения сохранения в памяти ВРЕМЕННО, storage НЕЛЬЗЯ... */\n    tag_5:\n      callvalue\n      dup1\n      iszero\n      tag_20\n      jumpi\n      revert(0x00, 0x00)\n    tag_20:\n      pop\n      tag_21\n      0x04\n      dup1\n      calldatasize\n      sub\n      dup2\n      add\n      swap1\n      tag_22\n      swap2\n      swap1\n      tag_23\n      jump\t// in\n    tag_22:\n      tag_24\n      jump\t// in\n    tag_21:\n      mload(0x40)\n      tag_25\n      swap2\n      swap1\n      tag_26\n      jump\t// in\n    tag_25:\n      mload(0x40)\n      dup1\n      swap2\n      sub\n      swap1\n      return\n        /* \"SmartContracts/Urok2.sol\":1035:1054  uint public balance */\n    tag_6:\n      callvalue\n      dup1\n      iszero\n      tag_27\n      jumpi\n      revert(0x00, 0x00)\n    tag_27:\n      pop\n      tag_28\n      tag_29\n      jump\t// in\n    tag_28:\n      mload(0x40)\n      tag_30\n      swap2\n      swap1\n      tag_17\n      jump\t// in\n    tag_30:\n      mload(0x40)\n      dup1\n      swap2\n      sub\n      swap1\n      return\n        /* \"SmartContracts/Urok2.sol\":3312:3645  function getMessage() external view returns(string memory) { //memory - где мы хранить будем вывод; временная строка для вывода работы; pure (чистая функция) считать не поулчится, т.к это делать нельзя... */\n    tag_7:\n      callvalue\n      dup1\n      iszero\n      tag_31\n      jumpi\n      revert(0x00, 0x00)\n    tag_31:\n      pop\n      tag_32\n      tag_33\n      jump\t// in\n    tag_32:\n      mload(0x40)\n      tag_34\n      swap2\n      swap1\n      tag_26\n      jump\t// in\n    tag_34:\n      mload(0x40)\n      dup1\n      swap2\n      sub\n      swap1\n      return\n        /* \"SmartContracts/Urok2.sol\":3653:3871  function rate(uint amount) public pure returns(uint) { // функция рейт умножает входящее число на 3, дает пользователю 3 токена... */\n    tag_8:\n      callvalue\n      dup1\n      iszero\n      tag_35\n      jumpi\n      revert(0x00, 0x00)\n    tag_35:\n      pop\n      tag_36\n      0x04\n      dup1\n      calldatasize\n      sub\n      dup2\n      add\n      swap1\n      tag_37\n      swap2\n      swap1\n      tag_38\n      jump\t// in\n    tag_37:\n      tag_39\n      jump\t// in\n    tag_36:\n      mload(0x40)\n      tag_40\n      swap2\n      swap1\n      tag_17\n      jump\t// in\n    tag_40:\n      mload(0x40)\n      dup1\n      swap2\n      sub\n      swap1\n      return\n        /* \"SmartContracts/Urok2.sol\":2950:3304  function getBalance() public view returns(uint) { // в return можем дать то имя которое хотим вернуть... */\n    tag_15:\n        /* \"SmartContracts/Urok2.sol\":2992:2996  uint */\n      0x00\n        /* \"SmartContracts/Urok2.sol\":3102:3123  address(this).balance */\n      selfbalance\n        /* \"SmartContracts/Urok2.sol\":3095:3123  return address(this).balance */\n      swap1\n      pop\n        /* \"SmartContracts/Urok2.sol\":2950:3304  function getBalance() public view returns(uint) { // в return можем дать то имя которое хотим вернуть... */\n      swap1\n      jump\t// out\n        /* \"SmartContracts/Urok2.sol\":1504:2269  function pay() external payable { // если не пометим payable то обратится к msg.value не выйдет, выйдет ошибка но денежные средства вернутся отправителю... */\n    tag_19:\n        /* \"SmartContracts/Urok2.sol\":1759:1768  msg.value */\n      callvalue\n        /* \"SmartContracts/Urok2.sol\":1748:1755  balance */\n      0x01\n      0x00\n        /* \"SmartContracts/Urok2.sol\":1748:1768  balance += msg.value */\n      dup3\n      dup3\n      sload\n      tag_43\n      swap2\n      swap1\n      tag_44\n      jump\t// in\n    tag_43:\n      swap3\n      pop\n      pop\n      dup2\n      swap1\n      sstore\n      pop\n        /* \"SmartContracts/Urok2.sol\":1504:2269  function pay() external payable { // если не пометим payable то обратится к msg.value не выйдет, выйдет ошибка но денежные средства вернутся отправителю... */\n      jump\t// out\n        /* \"SmartContracts/Urok2.sol\":2333:2799  function setMessage(string memory newMessage) external returns(string memory) { // view и pure не указываем т.к модифицируем, string memory для нового сообщения сохранения в памяти ВРЕМЕННО, storage НЕЛЬЗЯ... */\n    tag_24:\n        /* \"SmartContracts/Urok2.sol\":2396:2409  string memory */\n      0x60\n        /* \"SmartContracts/Urok2.sol\":2633:2643  newMessage */\n      dup2\n        /* \"SmartContracts/Urok2.sol\":2623:2630  message */\n      0x00\n        /* \"SmartContracts/Urok2.sol\":2623:2643  message = newMessage */\n      swap1\n      dup2\n      tag_46\n      swap2\n      swap1\n      tag_47\n      jump\t// in\n    tag_46:\n      pop\n        /* \"SmartContracts/Urok2.sol\":2706:2713  message */\n      0x00\n        /* \"SmartContracts/Urok2.sol\":2699:2713  return message */\n      dup1\n      sload\n      tag_48\n      swap1\n      tag_49\n      jump\t// in\n    tag_48:\n      dup1\n      0x1f\n      add\n      0x20\n      dup1\n      swap2\n      div\n      mul\n      0x20\n      add\n      mload(0x40)\n      swap1\n      dup2\n      add\n      0x40\n      mstore\n      dup1\n      swap3\n      swap2\n      swap1\n      dup2\n      dup2\n      mstore\n      0x20\n      add\n      dup3\n      dup1\n      sload\n      tag_50\n      swap1\n      tag_49\n      jump\t// in\n    tag_50:\n      dup1\n      iszero\n      tag_51\n      jumpi\n      dup1\n      0x1f\n      lt\n      tag_52\n      jumpi\n      0x0100\n      dup1\n      dup4\n      sload\n      div\n      mul\n      dup4\n      mstore\n      swap2\n      0x20\n      add\n      swap2\n      jump(tag_51)\n    tag_52:\n      dup3\n      add\n      swap2\n      swap1\n      0x00\n      mstore\n      keccak256(0x00, 0x20)\n      swap1\n    tag_53:\n      dup2\n      sload\n      dup2\n      mstore\n      swap1\n      0x01\n      add\n      swap1\n      0x20\n      add\n      dup1\n      dup4\n      gt\n      tag_53\n      jumpi\n      dup3\n      swap1\n      sub\n      0x1f\n      and\n      dup3\n      add\n      swap2\n    tag_51:\n      pop\n      pop\n      pop\n      pop\n      pop\n      swap1\n      pop\n        /* \"SmartContracts/Urok2.sol\":2333:2799  function setMessage(string memory newMessage) external returns(string memory) { // view и pure не указываем т.к модифицируем, string memory для нового сообщения сохранения в памяти ВРЕМЕННО, storage НЕЛЬЗЯ... */\n      swap2\n      swap1\n      pop\n      jump\t// out\n        /* \"SmartContracts/Urok2.sol\":1035:1054  uint public balance */\n    tag_29:\n      sload(0x01)\n      dup2\n      jump\t// out\n        /* \"SmartContracts/Urok2.sol\":3312:3645  function getMessage() external view returns(string memory) { //memory - где мы хранить будем вывод; временная строка для вывода работы; pure (чистая функция) считать не поулчится, т.к это делать нельзя... */\n    tag_33:\n        /* \"SmartContracts/Urok2.sol\":3356:3369  string memory */\n      0x60\n        /* \"SmartContracts/Urok2.sol\":3630:3637  message */\n      0x00\n        /* \"SmartContracts/Urok2.sol\":3623:3637  return message */\n      dup1\n      sload\n      tag_55\n      swap1\n      tag_49\n      jump\t// in\n    tag_55:\n      dup1\n      0x1f\n      add\n      0x20\n      dup1\n      swap2\n      div\n      mul\n      0x20\n      add\n      mload(0x40)\n      swap1\n      dup2\n      add\n      0x40\n      mstore\n      dup1\n      swap3\n      swap2\n      swap1\n      dup2\n      dup2\n      mstore\n      0x20\n      add\n      dup3\n      dup1\n      sload\n      tag_56\n      swap1\n      tag_49\n      jump\t// in\n    tag_56:\n      dup1\n      iszero\n      tag_57\n      jumpi\n      dup1\n      0x1f\n      lt\n      tag_58\n      jumpi\n      0x0100\n      dup1\n      dup4\n      sload\n      div\n      mul\n      dup4\n      mstore\n      swap2\n      0x20\n      add\n      swap2\n      jump(tag_57)\n    tag_58:\n      dup3\n      add\n      swap2\n      swap1\n      0x00\n      mstore\n      keccak256(0x00, 0x20)\n      swap1\n    tag_59:\n      dup2\n      sload\n      dup2\n      mstore\n      swap1\n      0x01\n      add\n      swap1\n      0x20\n      add\n      dup1\n      dup4\n      gt\n      tag_59\n      jumpi\n      dup3\n      swap1\n      sub\n      0x1f\n      and\n      dup3\n      add\n      swap2\n    tag_57:\n      pop\n      pop\n      pop\n      pop\n      pop\n      swap1\n      pop\n        /* \"SmartContracts/Urok2.sol\":3312:3645  function getMessage() external view returns(string memory) { //memory - где мы хранить будем вывод; временная строка для вывода работы; pure (чистая функция) считать не поулчится, т.к это делать нельзя... */\n      swap1\n      jump\t// out\n        /* \"SmartContracts/Urok2.sol\":3653:3871  function rate(uint amount) public pure returns(uint) { // функция рейт умножает входящее число на 3, дает пользователю 3 токена... */\n    tag_39:\n        /* \"SmartContracts/Urok2.sol\":3700:3704  uint */\n      0x00\n        /* \"SmartContracts/Urok2.sol\":3862:3863  3 */\n      0x03\n        /* \"SmartContracts/Urok2.sol\":3853:3859  amount */\n      dup3\n        /* \"SmartContracts/Urok2.sol\":3853:3863  amount * 3 */\n      tag_61\n      swap2\n      swap1\n      tag_62\n      jump\t// in\n    tag_61:\n        /* \"SmartContracts/Urok2.sol\":3846:3863  return amount * 3 */\n      swap1\n      pop\n        /* \"SmartContracts/Urok2.sol\":3653:3871  function rate(uint amount) public pure returns(uint) { // функция рейт умножает входящее число на 3, дает пользователю 3 токена... */\n      swap2\n      swap1\n      pop\n      jump\t// out\n        /* \"#utility.yul\":7:84   */\n    tag_63:\n        /* \"#utility.yul\":44:51   */\n      0x00\n        /* \"#utility.yul\":73:78   */\n      dup2\n        /* \"#utility.yul\":62:78   */\n      swap1\n      pop\n        /* \"#utility.yul\":7:84   */\n      swap2\n      swap1\n      pop\n      jump\t// out\n        /* \"#utility.yul\":90:208   */\n    tag_64:\n        /* \"#utility.yul\":177:201   */\n      tag_104\n        /* \"#utility.yul\":195:200   */\n      dup2\n        /* \"#utility.yul\":177:201   */\n      tag_63\n      jump\t// in\n    tag_104:\n        /* \"#utility.yul\":172:175   */\n      dup3\n        /* \"#utility.yul\":165:202   */\n      mstore\n        /* \"#utility.yul\":90:208   */\n      pop\n      pop\n      jump\t// out\n        /* \"#utility.yul\":214:436   */\n    tag_17:\n        /* \"#utility.yul\":307:311   */\n      0x00\n        /* \"#utility.yul\":345:347   */\n      0x20\n        /* \"#utility.yul\":334:343   */\n      dup3\n        /* \"#utility.yul\":330:348   */\n      add\n        /* \"#utility.yul\":322:348   */\n      swap1\n      pop\n        /* \"#utility.yul\":358:429   */\n      tag_106\n        /* \"#utility.yul\":426:427   */\n      0x00\n        /* \"#utility.yul\":415:424   */\n      dup4\n        /* \"#utility.yul\":411:428   */\n      add\n        /* \"#utility.yul\":402:408   */\n      dup5\n        /* \"#utility.yul\":358:429   */\n      tag_64\n      jump\t// in\n    tag_106:\n        /* \"#utility.yul\":214:436   */\n      swap3\n      swap2\n      pop\n      pop\n      jump\t// out\n        /* \"#utility.yul\":442:517   */\n    tag_65:\n        /* \"#utility.yul\":475:481   */\n      0x00\n        /* \"#utility.yul\":508:510   */\n      0x40\n        /* \"#utility.yul\":502:511   */\n      mload\n        /* \"#utility.yul\":492:511   */\n      swap1\n      pop\n        /* \"#utility.yul\":442:517   */\n      swap1\n      jump\t// out\n        /* \"#utility.yul\":523:640   */\n    tag_66:\n        /* \"#utility.yul\":632:633   */\n      0x00\n        /* \"#utility.yul\":629:630   */\n      0x00\n        /* \"#utility.yul\":622:634   */\n      revert\n        /* \"#utility.yul\":646:763   */\n    tag_67:\n        /* \"#utility.yul\":755:756   */\n      0x00\n        /* \"#utility.yul\":752:753   */\n      0x00\n        /* \"#utility.yul\":745:757   */\n      revert\n        /* \"#utility.yul\":769:886   */\n    tag_68:\n        /* \"#utility.yul\":878:879   */\n      0x00\n        /* \"#utility.yul\":875:876   */\n      0x00\n        /* \"#utility.yul\":868:880   */\n      revert\n        /* \"#utility.yul\":892:1009   */\n    tag_69:\n        /* \"#utility.yul\":1001:1002   */\n      0x00\n        /* \"#utility.yul\":998:999   */\n      0x00\n        /* \"#utility.yul\":991:1003   */\n      revert\n        /* \"#utility.yul\":1015:1117   */\n    tag_70:\n        /* \"#utility.yul\":1056:1062   */\n      0x00\n        /* \"#utility.yul\":1107:1109   */\n      0x1f\n        /* \"#utility.yul\":1103:1110   */\n      not\n        /* \"#utility.yul\":1098:1100   */\n      0x1f\n        /* \"#utility.yul\":1091:1096   */\n      dup4\n        /* \"#utility.yul\":1087:1101   */\n      add\n        /* \"#utility.yul\":1083:1111   */\n      and\n        /* \"#utility.yul\":1073:1111   */\n      swap1\n      pop\n        /* \"#utility.yul\":1015:1117   */\n      swap2\n      swap1\n      pop\n      jump\t// out\n        /* \"#utility.yul\":1123:1303   */\n    tag_71:\n        /* \"#utility.yul\":1171:1248   */\n      0x4e487b7100000000000000000000000000000000000000000000000000000000\n        /* \"#utility.yul\":1168:1169   */\n      0x00\n        /* \"#utility.yul\":1161:1249   */\n      mstore\n        /* \"#utility.yul\":1268:1272   */\n      0x41\n        /* \"#utility.yul\":1265:1266   */\n      0x04\n        /* \"#utility.yul\":1258:1273   */\n      mstore\n        /* \"#utility.yul\":1292:1296   */\n      0x24\n        /* \"#utility.yul\":1289:1290   */\n      0x00\n        /* \"#utility.yul\":1282:1297   */\n      revert\n        /* \"#utility.yul\":1309:1590   */\n    tag_72:\n        /* \"#utility.yul\":1392:1419   */\n      tag_115\n        /* \"#utility.yul\":1414:1418   */\n      dup3\n        /* \"#utility.yul\":1392:1419   */\n      tag_70\n      jump\t// in\n    tag_115:\n        /* \"#utility.yul\":1384:1390   */\n      dup2\n        /* \"#utility.yul\":1380:1420   */\n      add\n        /* \"#utility.yul\":1522:1528   */\n      dup2\n        /* \"#utility.yul\":1510:1520   */\n      dup2\n        /* \"#utility.yul\":1507:1529   */\n      lt\n        /* \"#utility.yul\":1486:1504   */\n      0xffffffffffffffff\n        /* \"#utility.yul\":1474:1484   */\n      dup3\n        /* \"#utility.yul\":1471:1505   */\n      gt\n        /* \"#utility.yul\":1468:1530   */\n      or\n        /* \"#utility.yul\":1465:1553   */\n      iszero\n      tag_116\n      jumpi\n        /* \"#utility.yul\":1533:1551   */\n      tag_117\n      tag_71\n      jump\t// in\n    tag_117:\n        /* \"#utility.yul\":1465:1553   */\n    tag_116:\n        /* \"#utility.yul\":1573:1583   */\n      dup1\n        /* \"#utility.yul\":1569:1571   */\n      0x40\n        /* \"#utility.yul\":1562:1584   */\n      mstore\n        /* \"#utility.yul\":1352:1590   */\n      pop\n        /* \"#utility.yul\":1309:1590   */\n      pop\n      pop\n      jump\t// out\n        /* \"#utility.yul\":1596:1725   */\n    tag_73:\n        /* \"#utility.yul\":1630:1636   */\n      0x00\n        /* \"#utility.yul\":1657:1677   */\n      tag_119\n      tag_65\n      jump\t// in\n    tag_119:\n        /* \"#utility.yul\":1647:1677   */\n      swap1\n      pop\n        /* \"#utility.yul\":1686:1719   */\n      tag_120\n        /* \"#utility.yul\":1714:1718   */\n      dup3\n        /* \"#utility.yul\":1706:1712   */\n      dup3\n        /* \"#utility.yul\":1686:1719   */\n      tag_72\n      jump\t// in\n    tag_120:\n        /* \"#utility.yul\":1596:1725   */\n      swap2\n      swap1\n      pop\n      jump\t// out\n        /* \"#utility.yul\":1731:2039   */\n    tag_74:\n        /* \"#utility.yul\":1793:1797   */\n      0x00\n        /* \"#utility.yul\":1883:1901   */\n      0xffffffffffffffff\n        /* \"#utility.yul\":1875:1881   */\n      dup3\n        /* \"#utility.yul\":1872:1902   */\n      gt\n        /* \"#utility.yul\":1869:1925   */\n      iszero\n      tag_122\n      jumpi\n        /* \"#utility.yul\":1905:1923   */\n      tag_123\n      tag_71\n      jump\t// in\n    tag_123:\n        /* \"#utility.yul\":1869:1925   */\n    tag_122:\n        /* \"#utility.yul\":1943:1972   */\n      tag_124\n        /* \"#utility.yul\":1965:1971   */\n      dup3\n        /* \"#utility.yul\":1943:1972   */\n      tag_70\n      jump\t// in\n    tag_124:\n        /* \"#utility.yul\":1935:1972   */\n      swap1\n      pop\n        /* \"#utility.yul\":2027:2031   */\n      0x20\n        /* \"#utility.yul\":2021:2025   */\n      dup2\n        /* \"#utility.yul\":2017:2032   */\n      add\n        /* \"#utility.yul\":2009:2032   */\n      swap1\n      pop\n        /* \"#utility.yul\":1731:2039   */\n      swap2\n      swap1\n      pop\n      jump\t// out\n        /* \"#utility.yul\":2045:2193   */\n    tag_75:\n        /* \"#utility.yul\":2143:2149   */\n      dup3\n        /* \"#utility.yul\":2138:2141   */\n      dup2\n        /* \"#utility.yul\":2133:2136   */\n      dup4\n        /* \"#utility.yul\":2120:2150   */\n      calldatacopy\n        /* \"#utility.yul\":2184:2185   */\n      0x00\n        /* \"#utility.yul\":2175:2181   */\n      dup4\n        /* \"#utility.yul\":2170:2173   */\n      dup4\n        /* \"#utility.yul\":2166:2182   */\n      add\n        /* \"#utility.yul\":2159:2186   */\n      mstore\n        /* \"#utility.yul\":2045:2193   */\n      pop\n      pop\n      pop\n      jump\t// out\n        /* \"#utility.yul\":2199:2624   */\n    tag_76:\n        /* \"#utility.yul\":2277:2282   */\n      0x00\n        /* \"#utility.yul\":2302:2368   */\n      tag_127\n        /* \"#utility.yul\":2318:2367   */\n      tag_128\n        /* \"#utility.yul\":2360:2366   */\n      dup5\n        /* \"#utility.yul\":2318:2367   */\n      tag_74\n      jump\t// in\n    tag_128:\n        /* \"#utility.yul\":2302:2368   */\n      tag_73\n      jump\t// in\n    tag_127:\n        /* \"#utility.yul\":2293:2368   */\n      swap1\n      pop\n        /* \"#utility.yul\":2391:2397   */\n      dup3\n        /* \"#utility.yul\":2384:2389   */\n      dup2\n        /* \"#utility.yul\":2377:2398   */\n      mstore\n        /* \"#utility.yul\":2429:2433   */\n      0x20\n        /* \"#utility.yul\":2422:2427   */\n      dup2\n        /* \"#utility.yul\":2418:2434   */\n      add\n        /* \"#utility.yul\":2467:2470   */\n      dup5\n        /* \"#utility.yul\":2458:2464   */\n      dup5\n        /* \"#utility.yul\":2453:2456   */\n      dup5\n        /* \"#utility.yul\":2449:2465   */\n      add\n        /* \"#utility.yul\":2446:2471   */\n      gt\n        /* \"#utility.yul\":2443:2555   */\n      iszero\n      tag_129\n      jumpi\n        /* \"#utility.yul\":2474:2553   */\n      tag_130\n      tag_69\n      jump\t// in\n    tag_130:\n        /* \"#utility.yul\":2443:2555   */\n    tag_129:\n        /* \"#utility.yul\":2564:2618   */\n      tag_131\n        /* \"#utility.yul\":2611:2617   */\n      dup5\n        /* \"#utility.yul\":2606:2609   */\n      dup3\n        /* \"#utility.yul\":2601:2604   */\n      dup6\n        /* \"#utility.yul\":2564:2618   */\n      tag_75\n      jump\t// in\n    tag_131:\n        /* \"#utility.yul\":2283:2624   */\n      pop\n        /* \"#utility.yul\":2199:2624   */\n      swap4\n      swap3\n      pop\n      pop\n      pop\n      jump\t// out\n        /* \"#utility.yul\":2644:2984   */\n    tag_77:\n        /* \"#utility.yul\":2700:2705   */\n      0x00\n        /* \"#utility.yul\":2749:2752   */\n      dup3\n        /* \"#utility.yul\":2742:2746   */\n      0x1f\n        /* \"#utility.yul\":2734:2740   */\n      dup4\n        /* \"#utility.yul\":2730:2747   */\n      add\n        /* \"#utility.yul\":2726:2753   */\n      slt\n        /* \"#utility.yul\":2716:2838   */\n      tag_133\n      jumpi\n        /* \"#utility.yul\":2757:2836   */\n      tag_134\n      tag_68\n      jump\t// in\n    tag_134:\n        /* \"#utility.yul\":2716:2838   */\n    tag_133:\n        /* \"#utility.yul\":2874:2880   */\n      dup2\n        /* \"#utility.yul\":2861:2881   */\n      calldataload\n        /* \"#utility.yul\":2899:2978   */\n      tag_135\n        /* \"#utility.yul\":2974:2977   */\n      dup5\n        /* \"#utility.yul\":2966:2972   */\n      dup3\n        /* \"#utility.yul\":2959:2963   */\n      0x20\n        /* \"#utility.yul\":2951:2957   */\n      dup7\n        /* \"#utility.yul\":2947:2964   */\n      add\n        /* \"#utility.yul\":2899:2978   */\n      tag_76\n      jump\t// in\n    tag_135:\n        /* \"#utility.yul\":2890:2978   */\n      swap2\n      pop\n        /* \"#utility.yul\":2706:2984   */\n      pop\n        /* \"#utility.yul\":2644:2984   */\n      swap3\n      swap2\n      pop\n      pop\n      jump\t// out\n        /* \"#utility.yul\":2990:3499   */\n    tag_23:\n        /* \"#utility.yul\":3059:3065   */\n      0x00\n        /* \"#utility.yul\":3108:3110   */\n      0x20\n        /* \"#utility.yul\":3096:3105   */\n      dup3\n        /* \"#utility.yul\":3087:3094   */\n      dup5\n        /* \"#utility.yul\":3083:3106   */\n      sub\n        /* \"#utility.yul\":3079:3111   */\n      slt\n        /* \"#utility.yul\":3076:3195   */\n      iszero\n      tag_137\n      jumpi\n        /* \"#utility.yul\":3114:3193   */\n      tag_138\n      tag_66\n      jump\t// in\n    tag_138:\n        /* \"#utility.yul\":3076:3195   */\n    tag_137:\n        /* \"#utility.yul\":3262:3263   */\n      0x00\n        /* \"#utility.yul\":3251:3260   */\n      dup3\n        /* \"#utility.yul\":3247:3264   */\n      add\n        /* \"#utility.yul\":3234:3265   */\n      calldataload\n        /* \"#utility.yul\":3292:3310   */\n      0xffffffffffffffff\n        /* \"#utility.yul\":3284:3290   */\n      dup2\n        /* \"#utility.yul\":3281:3311   */\n      gt\n        /* \"#utility.yul\":3278:3395   */\n      iszero\n      tag_139\n      jumpi\n        /* \"#utility.yul\":3314:3393   */\n      tag_140\n      tag_67\n      jump\t// in\n    tag_140:\n        /* \"#utility.yul\":3278:3395   */\n    tag_139:\n        /* \"#utility.yul\":3419:3482   */\n      tag_141\n        /* \"#utility.yul\":3474:3481   */\n      dup5\n        /* \"#utility.yul\":3465:3471   */\n      dup3\n        /* \"#utility.yul\":3454:3463   */\n      dup6\n        /* \"#utility.yul\":3450:3472   */\n      add\n        /* \"#utility.yul\":3419:3482   */\n      tag_77\n      jump\t// in\n    tag_141:\n        /* \"#utility.yul\":3409:3482   */\n      swap2\n      pop\n        /* \"#utility.yul\":3205:3492   */\n      pop\n        /* \"#utility.yul\":2990:3499   */\n      swap3\n      swap2\n      pop\n      pop\n      jump\t// out\n        /* \"#utility.yul\":3505:3604   */\n    tag_78:\n        /* \"#utility.yul\":3557:3563   */\n      0x00\n        /* \"#utility.yul\":3591:3596   */\n      dup2\n        /* \"#utility.yul\":3585:3597   */\n      mload\n        /* \"#utility.yul\":3575:3597   */\n      swap1\n      pop\n        /* \"#utility.yul\":3505:3604   */\n      swap2\n      swap1\n      pop\n      jump\t// out\n        /* \"#utility.yul\":3610:3779   */\n    tag_79:\n        /* \"#utility.yul\":3694:3705   */\n      0x00\n        /* \"#utility.yul\":3728:3734   */\n      dup3\n        /* \"#utility.yul\":3723:3726   */\n      dup3\n        /* \"#utility.yul\":3716:3735   */\n      mstore\n        /* \"#utility.yul\":3768:3772   */\n      0x20\n        /* \"#utility.yul\":3763:3766   */\n      dup3\n        /* \"#utility.yul\":3759:3773   */\n      add\n        /* \"#utility.yul\":3744:3773   */\n      swap1\n      pop\n        /* \"#utility.yul\":3610:3779   */\n      swap3\n      swap2\n      pop\n      pop\n      jump\t// out\n        /* \"#utility.yul\":3785:3924   */\n    tag_80:\n        /* \"#utility.yul\":3874:3880   */\n      dup3\n        /* \"#utility.yul\":3869:3872   */\n      dup2\n        /* \"#utility.yul\":3864:3867   */\n      dup4\n        /* \"#utility.yul\":3858:3881   */\n      mcopy\n        /* \"#utility.yul\":3915:3916   */\n      0x00\n        /* \"#utility.yul\":3906:3912   */\n      dup4\n        /* \"#utility.yul\":3901:3904   */\n      dup4\n        /* \"#utility.yul\":3897:3913   */\n      add\n        /* \"#utility.yul\":3890:3917   */\n      mstore\n        /* \"#utility.yul\":3785:3924   */\n      pop\n      pop\n      pop\n      jump\t// out\n        /* \"#utility.yul\":3930:4307   */\n    tag_81:\n        /* \"#utility.yul\":4018:4021   */\n      0x00\n        /* \"#utility.yul\":4046:4085   */\n      tag_146\n        /* \"#utility.yul\":4079:4084   */\n      dup3\n        /* \"#utility.yul\":4046:4085   */\n      tag_78\n      jump\t// in\n    tag_146:\n        /* \"#utility.yul\":4101:4172   */\n      tag_147\n        /* \"#utility.yul\":4165:4171   */\n      dup2\n        /* \"#utility.yul\":4160:4163   */\n      dup6\n        /* \"#utility.yul\":4101:4172   */\n      tag_79\n      jump\t// in\n    tag_147:\n        /* \"#utility.yul\":4094:4172   */\n      swap4\n      pop\n        /* \"#utility.yul\":4181:4246   */\n      tag_148\n        /* \"#utility.yul\":4239:4245   */\n      dup2\n        /* \"#utility.yul\":4234:4237   */\n      dup6\n        /* \"#utility.yul\":4227:4231   */\n      0x20\n        /* \"#utility.yul\":4220:4225   */\n      dup7\n        /* \"#utility.yul\":4216:4232   */\n      add\n        /* \"#utility.yul\":4181:4246   */\n      tag_80\n      jump\t// in\n    tag_148:\n        /* \"#utility.yul\":4271:4300   */\n      tag_149\n        /* \"#utility.yul\":4293:4299   */\n      dup2\n        /* \"#utility.yul\":4271:4300   */\n      tag_70\n      jump\t// in\n    tag_149:\n        /* \"#utility.yul\":4266:4269   */\n      dup5\n        /* \"#utility.yul\":4262:4301   */\n      add\n        /* \"#utility.yul\":4255:4301   */\n      swap2\n      pop\n        /* \"#utility.yul\":4022:4307   */\n      pop\n        /* \"#utility.yul\":3930:4307   */\n      swap3\n      swap2\n      pop\n      pop\n      jump\t// out\n        /* \"#utility.yul\":4313:4626   */\n    tag_26:\n        /* \"#utility.yul\":4426:4430   */\n      0x00\n        /* \"#utility.yul\":4464:4466   */\n      0x20\n        /* \"#utility.yul\":4453:4462   */\n      dup3\n        /* \"#utility.yul\":4449:4467   */\n      add\n        /* \"#utility.yul\":4441:4467   */\n      swap1\n      pop\n        /* \"#utility.yul\":4513:4522   */\n      dup2\n        /* \"#utility.yul\":4507:4511   */\n      dup2\n        /* \"#utility.yul\":4503:4523   */\n      sub\n        /* \"#utility.yul\":4499:4500   */\n      0x00\n        /* \"#utility.yul\":4488:4497   */\n      dup4\n        /* \"#utility.yul\":4484:4501   */\n      add\n        /* \"#utility.yul\":4477:4524   */\n      mstore\n        /* \"#utility.yul\":4541:4619   */\n      tag_151\n        /* \"#utility.yul\":4614:4618   */\n      dup2\n        /* \"#utility.yul\":4605:4611   */\n      dup5\n        /* \"#utility.yul\":4541:4619   */\n      tag_81\n      jump\t// in\n    tag_151:\n        /* \"#utility.yul\":4533:4619   */\n      swap1\n      pop\n        /* \"#utility.yul\":4313:4626   */\n      swap3\n      swap2\n      pop\n      pop\n      jump\t// out\n        /* \"#utility.yul\":4632:4754   */\n    tag_82:\n        /* \"#utility.yul\":4705:4729   */\n      tag_153\n        /* \"#utility.yul\":4723:4728   */\n      dup2\n        /* \"#utility.yul\":4705:4729   */\n      tag_63\n      jump\t// in\n    tag_153:\n        /* \"#utility.yul\":4698:4703   */\n      dup2\n        /* \"#utility.yul\":4695:4730   */\n      eq\n        /* \"#utility.yul\":4685:4748   */\n      tag_154\n      jumpi\n        /* \"#utility.yul\":4744:4745   */\n      0x00\n        /* \"#utility.yul\":4741:4742   */\n      0x00\n        /* \"#utility.yul\":4734:4746   */\n      revert\n        /* \"#utility.yul\":4685:4748   */\n    tag_154:\n        /* \"#utility.yul\":4632:4754   */\n      pop\n      jump\t// out\n        /* \"#utility.yul\":4760:4899   */\n    tag_83:\n        /* \"#utility.yul\":4806:4811   */\n      0x00\n        /* \"#utility.yul\":4844:4850   */\n      dup2\n        /* \"#utility.yul\":4831:4851   */\n      calldataload\n        /* \"#utility.yul\":4822:4851   */\n      swap1\n      pop\n        /* \"#utility.yul\":4860:4893   */\n      tag_156\n        /* \"#utility.yul\":4887:4892   */\n      dup2\n        /* \"#utility.yul\":4860:4893   */\n      tag_82\n      jump\t// in\n    tag_156:\n        /* \"#utility.yul\":4760:4899   */\n      swap3\n      swap2\n      pop\n      pop\n      jump\t// out\n        /* \"#utility.yul\":4905:5234   */\n    tag_38:\n        /* \"#utility.yul\":4964:4970   */\n      0x00\n        /* \"#utility.yul\":5013:5015   */\n      0x20\n        /* \"#utility.yul\":5001:5010   */\n      dup3\n        /* \"#utility.yul\":4992:4999   */\n      dup5\n        /* \"#utility.yul\":4988:5011   */\n      sub\n        /* \"#utility.yul\":4984:5016   */\n      slt\n        /* \"#utility.yul\":4981:5100   */\n      iszero\n      tag_158\n      jumpi\n        /* \"#utility.yul\":5019:5098   */\n      tag_159\n      tag_66\n      jump\t// in\n    tag_159:\n        /* \"#utility.yul\":4981:5100   */\n    tag_158:\n        /* \"#utility.yul\":5139:5140   */\n      0x00\n        /* \"#utility.yul\":5164:5217   */\n      tag_160\n        /* \"#utility.yul\":5209:5216   */\n      dup5\n        /* \"#utility.yul\":5200:5206   */\n      dup3\n        /* \"#utility.yul\":5189:5198   */\n      dup6\n        /* \"#utility.yul\":5185:5207   */\n      add\n        /* \"#utility.yul\":5164:5217   */\n      tag_83\n      jump\t// in\n    tag_160:\n        /* \"#utility.yul\":5154:5217   */\n      swap2\n      pop\n        /* \"#utility.yul\":5110:5227   */\n      pop\n        /* \"#utility.yul\":4905:5234   */\n      swap3\n      swap2\n      pop\n      pop\n      jump\t// out\n        /* \"#utility.yul\":5240:5420   */\n    tag_84:\n        /* \"#utility.yul\":5288:5365   */\n      0x4e487b7100000000000000000000000000000000000000000000000000000000\n        /* \"#utility.yul\":5285:5286   */\n      0x00\n        /* \"#utility.yul\":5278:5366   */\n      mstore\n        /* \"#utility.yul\":5385:5389   */\n      0x11\n        /* \"#utility.yul\":5382:5383   */\n      0x04\n        /* \"#utility.yul\":5375:5390   */\n      mstore\n        /* \"#utility.yul\":5409:5413   */\n      0x24\n        /* \"#utility.yul\":5406:5407   */\n      0x00\n        /* \"#utility.yul\":5399:5414   */\n      revert\n        /* \"#utility.yul\":5426:5617   */\n    tag_44:\n        /* \"#utility.yul\":5466:5469   */\n      0x00\n        /* \"#utility.yul\":5485:5505   */\n      tag_163\n        /* \"#utility.yul\":5503:5504   */\n      dup3\n        /* \"#utility.yul\":5485:5505   */\n      tag_63\n      jump\t// in\n    tag_163:\n        /* \"#utility.yul\":5480:5505   */\n      swap2\n      pop\n        /* \"#utility.yul\":5519:5539   */\n      tag_164\n        /* \"#utility.yul\":5537:5538   */\n      dup4\n        /* \"#utility.yul\":5519:5539   */\n      tag_63\n      jump\t// in\n    tag_164:\n        /* \"#utility.yul\":5514:5539   */\n      swap3\n      pop\n        /* \"#utility.yul\":5562:5563   */\n      dup3\n        /* \"#utility.yul\":5559:5560   */\n      dup3\n        /* \"#utility.yul\":5555:5564   */\n      add\n        /* \"#utility.yul\":5548:5564   */\n      swap1\n      pop\n        /* \"#utility.yul\":5583:5586   */\n      dup1\n        /* \"#utility.yul\":5580:5581   */\n      dup3\n        /* \"#utility.yul\":5577:5587   */\n      gt\n        /* \"#utility.yul\":5574:5610   */\n      iszero\n      tag_165\n      jumpi\n        /* \"#utility.yul\":5590:5608   */\n      tag_166\n      tag_84\n      jump\t// in\n    tag_166:\n        /* \"#utility.yul\":5574:5610   */\n    tag_165:\n        /* \"#utility.yul\":5426:5617   */\n      swap3\n      swap2\n      pop\n      pop\n      jump\t// out\n        /* \"#utility.yul\":5623:5803   */\n    tag_85:\n        /* \"#utility.yul\":5671:5748   */\n      0x4e487b7100000000000000000000000000000000000000000000000000000000\n        /* \"#utility.yul\":5668:5669   */\n      0x00\n        /* \"#utility.yul\":5661:5749   */\n      mstore\n        /* \"#utility.yul\":5768:5772   */\n      0x22\n        /* \"#utility.yul\":5765:5766   */\n      0x04\n        /* \"#utility.yul\":5758:5773   */\n      mstore\n        /* \"#utility.yul\":5792:5796   */\n      0x24\n        /* \"#utility.yul\":5789:5790   */\n      0x00\n        /* \"#utility.yul\":5782:5797   */\n      revert\n        /* \"#utility.yul\":5809:6129   */\n    tag_49:\n        /* \"#utility.yul\":5853:5859   */\n      0x00\n        /* \"#utility.yul\":5890:5891   */\n      0x02\n        /* \"#utility.yul\":5884:5888   */\n      dup3\n        /* \"#utility.yul\":5880:5892   */\n      div\n        /* \"#utility.yul\":5870:5892   */\n      swap1\n      pop\n        /* \"#utility.yul\":5937:5938   */\n      0x01\n        /* \"#utility.yul\":5931:5935   */\n      dup3\n        /* \"#utility.yul\":5927:5939   */\n      and\n        /* \"#utility.yul\":5958:5976   */\n      dup1\n        /* \"#utility.yul\":5948:6029   */\n      tag_169\n      jumpi\n        /* \"#utility.yul\":6014:6018   */\n      0x7f\n        /* \"#utility.yul\":6006:6012   */\n      dup3\n        /* \"#utility.yul\":6002:6019   */\n      and\n        /* \"#utility.yul\":5992:6019   */\n      swap2\n      pop\n        /* \"#utility.yul\":5948:6029   */\n    tag_169:\n        /* \"#utility.yul\":6076:6078   */\n      0x20\n        /* \"#utility.yul\":6068:6074   */\n      dup3\n        /* \"#utility.yul\":6065:6079   */\n      lt\n        /* \"#utility.yul\":6045:6063   */\n      dup2\n        /* \"#utility.yul\":6042:6080   */\n      sub\n        /* \"#utility.yul\":6039:6123   */\n      tag_170\n      jumpi\n        /* \"#utility.yul\":6095:6113   */\n      tag_171\n      tag_85\n      jump\t// in\n    tag_171:\n        /* \"#utility.yul\":6039:6123   */\n    tag_170:\n        /* \"#utility.yul\":5860:6129   */\n      pop\n        /* \"#utility.yul\":5809:6129   */\n      swap2\n      swap1\n      pop\n      jump\t// out\n        /* \"#utility.yul\":6135:6276   */\n    tag_86:\n        /* \"#utility.yul\":6184:6188   */\n      0x00\n        /* \"#utility.yul\":6207:6210   */\n      dup2\n        /* \"#utility.yul\":6199:6210   */\n      swap1\n      pop\n        /* \"#utility.yul\":6230:6233   */\n      dup2\n        /* \"#utility.yul\":6227:6228   */\n      0x00\n        /* \"#utility.yul\":6220:6234   */\n      mstore\n        /* \"#utility.yul\":6264:6268   */\n      0x20\n        /* \"#utility.yul\":6261:6262   */\n      0x00\n        /* \"#utility.yul\":6251:6269   */\n      keccak256\n        /* \"#utility.yul\":6243:6269   */\n      swap1\n      pop\n        /* \"#utility.yul\":6135:6276   */\n      swap2\n      swap1\n      pop\n      jump\t// out\n        /* \"#utility.yul\":6282:6375   */\n    tag_87:\n        /* \"#utility.yul\":6319:6325   */\n      0x00\n        /* \"#utility.yul\":6366:6368   */\n      0x20\n        /* \"#utility.yul\":6361:6363   */\n      0x1f\n        /* \"#utility.yul\":6354:6359   */\n      dup4\n        /* \"#utility.yul\":6350:6364   */\n      add\n        /* \"#utility.yul\":6346:6369   */\n      div\n        /* \"#utility.yul\":6336:6369   */\n      swap1\n      pop\n        /* \"#utility.yul\":6282:6375   */\n      swap2\n      swap1\n      pop\n      jump\t// out\n        /* \"#utility.yul\":6381:6488   */\n    tag_88:\n        /* \"#utility.yul\":6425:6433   */\n      0x00\n        /* \"#utility.yul\":6475:6480   */\n      dup3\n        /* \"#utility.yul\":6469:6473   */\n      dup3\n        /* \"#utility.yul\":6465:6481   */\n      shl\n        /* \"#utility.yul\":6444:6481   */\n      swap1\n      pop\n        /* \"#utility.yul\":6381:6488   */\n      swap3\n      swap2\n      pop\n      pop\n      jump\t// out\n        /* \"#utility.yul\":6494:6887   */\n    tag_89:\n        /* \"#utility.yul\":6563:6569   */\n      0x00\n        /* \"#utility.yul\":6613:6614   */\n      0x08\n        /* \"#utility.yul\":6601:6611   */\n      dup4\n        /* \"#utility.yul\":6597:6615   */\n      mul\n        /* \"#utility.yul\":6636:6733   */\n      tag_176\n        /* \"#utility.yul\":6666:6732   */\n      0xffffffffffffffffffffffffffffffffffffffffffffffffffffffffffffffff\n        /* \"#utility.yul\":6655:6664   */\n      dup3\n        /* \"#utility.yul\":6636:6733   */\n      tag_88\n      jump\t// in\n    tag_176:\n        /* \"#utility.yul\":6754:6793   */\n      tag_177\n        /* \"#utility.yul\":6784:6792   */\n      dup7\n        /* \"#utility.yul\":6773:6782   */\n      dup4\n        /* \"#utility.yul\":6754:6793   */\n      tag_88\n      jump\t// in\n    tag_177:\n        /* \"#utility.yul\":6742:6793   */\n      swap6\n      pop\n        /* \"#utility.yul\":6826:6830   */\n      dup1\n        /* \"#utility.yul\":6822:6831   */\n      not\n        /* \"#utility.yul\":6815:6820   */\n      dup5\n        /* \"#utility.yul\":6811:6832   */\n      and\n        /* \"#utility.yul\":6802:6832   */\n      swap4\n      pop\n        /* \"#utility.yul\":6875:6879   */\n      dup1\n        /* \"#utility.yul\":6865:6873   */\n      dup7\n        /* \"#utility.yul\":6861:6880   */\n      and\n        /* \"#utility.yul\":6854:6859   */\n      dup5\n        /* \"#utility.yul\":6851:6881   */\n      or\n        /* \"#utility.yul\":6841:6881   */\n      swap3\n      pop\n        /* \"#utility.yul\":6570:6887   */\n      pop\n      pop\n        /* \"#utility.yul\":6494:6887   */\n      swap4\n      swap3\n      pop\n      pop\n      pop\n      jump\t// out\n        /* \"#utility.yul\":6893:6953   */\n    tag_90:\n        /* \"#utility.yul\":6921:6924   */\n      0x00\n        /* \"#utility.yul\":6942:6947   */\n      dup2\n        /* \"#utility.yul\":6935:6947   */\n      swap1\n      pop\n        /* \"#utility.yul\":6893:6953   */\n      swap2\n      swap1\n      pop\n      jump\t// out\n        /* \"#utility.yul\":6959:7101   */\n    tag_91:\n        /* \"#utility.yul\":7009:7018   */\n      0x00\n        /* \"#utility.yul\":7042:7095   */\n      tag_180\n        /* \"#utility.yul\":7060:7094   */\n      tag_181\n        /* \"#utility.yul\":7069:7093   */\n      tag_182\n        /* \"#utility.yul\":7087:7092   */\n      dup5\n        /* \"#utility.yul\":7069:7093   */\n      tag_63\n      jump\t// in\n    tag_182:\n        /* \"#utility.yul\":7060:7094   */\n      tag_90\n      jump\t// in\n    tag_181:\n        /* \"#utility.yul\":7042:7095   */\n      tag_63\n      jump\t// in\n    tag_180:\n        /* \"#utility.yul\":7029:7095   */\n      swap1\n      pop\n        /* \"#utility.yul\":6959:7101   */\n      swap2\n      swap1\n      pop\n      jump\t// out\n        /* \"#utility.yul\":7107:7182   */\n    tag_92:\n        /* \"#utility.yul\":7150:7153   */\n      0x00\n        /* \"#utility.yul\":7171:7176   */\n      dup2\n        /* \"#utility.yul\":7164:7176   */\n      swap1\n      pop\n        /* \"#utility.yul\":7107:7182   */\n      swap2\n      swap1\n      pop\n      jump\t// out\n        /* \"#utility.yul\":7188:7457   */\n    tag_93:\n        /* \"#utility.yul\":7298:7337   */\n      tag_185\n        /* \"#utility.yul\":7329:7336   */\n      dup4\n        /* \"#utility.yul\":7298:7337   */\n      tag_91\n      jump\t// in\n    tag_185:\n        /* \"#utility.yul\":7359:7450   */\n      tag_186\n        /* \"#utility.yul\":7408:7449   */\n      tag_187\n        /* \"#utility.yul\":7432:7448   */\n      dup3\n        /* \"#utility.yul\":7408:7449   */\n      tag_92\n      jump\t// in\n    tag_187:\n        /* \"#utility.yul\":7400:7406   */\n      dup5\n        /* \"#utility.yul\":7393:7397   */\n      dup5\n        /* \"#utility.yul\":7387:7398   */\n      sload\n        /* \"#utility.yul\":7359:7450   */\n      tag_89\n      jump\t// in\n    tag_186:\n        /* \"#utility.yul\":7353:7357   */\n      dup3\n        /* \"#utility.yul\":7346:7451   */\n      sstore\n        /* \"#utility.yul\":7264:7457   */\n      pop\n        /* \"#utility.yul\":7188:7457   */\n      pop\n      pop\n      pop\n      jump\t// out\n        /* \"#utility.yul\":7463:7536   */\n    tag_94:\n        /* \"#utility.yul\":7508:7511   */\n      0x00\n        /* \"#utility.yul\":7529:7530   */\n      0x00\n        /* \"#utility.yul\":7522:7530   */\n      swap1\n      pop\n        /* \"#utility.yul\":7463:7536   */\n      swap1\n      jump\t// out\n        /* \"#utility.yul\":7542:7731   */\n    tag_95:\n        /* \"#utility.yul\":7619:7651   */\n      tag_190\n      tag_94\n      jump\t// in\n    tag_190:\n        /* \"#utility.yul\":7660:7725   */\n      tag_191\n        /* \"#utility.yul\":7718:7724   */\n      dup2\n        /* \"#utility.yul\":7710:7716   */\n      dup5\n        /* \"#utility.yul\":7704:7708   */\n      dup5\n        /* \"#utility.yul\":7660:7725   */\n      tag_93\n      jump\t// in\n    tag_191:\n        /* \"#utility.yul\":7595:7731   */\n      pop\n        /* \"#utility.yul\":7542:7731   */\n      pop\n      pop\n      jump\t// out\n        /* \"#utility.yul\":7737:7923   */\n    tag_96:\n        /* \"#utility.yul\":7797:7917   */\n    tag_193:\n        /* \"#utility.yul\":7814:7817   */\n      dup2\n        /* \"#utility.yul\":7807:7812   */\n      dup2\n        /* \"#utility.yul\":7804:7818   */\n      lt\n        /* \"#utility.yul\":7797:7917   */\n      iszero\n      tag_195\n      jumpi\n        /* \"#utility.yul\":7868:7907   */\n      tag_196\n        /* \"#utility.yul\":7905:7906   */\n      0x00\n        /* \"#utility.yul\":7898:7903   */\n      dup3\n        /* \"#utility.yul\":7868:7907   */\n      tag_95\n      jump\t// in\n    tag_196:\n        /* \"#utility.yul\":7841:7842   */\n      0x01\n        /* \"#utility.yul\":7834:7839   */\n      dup2\n        /* \"#utility.yul\":7830:7843   */\n      add\n        /* \"#utility.yul\":7821:7843   */\n      swap1\n      pop\n        /* \"#utility.yul\":7797:7917   */\n      jump(tag_193)\n    tag_195:\n        /* \"#utility.yul\":7737:7923   */\n      pop\n      pop\n      jump\t// out\n        /* \"#utility.yul\":7929:8472   */\n    tag_97:\n        /* \"#utility.yul\":8030:8032   */\n      0x1f\n        /* \"#utility.yul\":8025:8028   */\n      dup3\n        /* \"#utility.yul\":8022:8033   */\n      gt\n        /* \"#utility.yul\":8019:8465   */\n      iszero\n      tag_198\n      jumpi\n        /* \"#utility.yul\":8064:8102   */\n      tag_199\n        /* \"#utility.yul\":8096:8101   */\n      dup2\n        /* \"#utility.yul\":8064:8102   */\n      tag_86\n      jump\t// in\n    tag_199:\n        /* \"#utility.yul\":8148:8177   */\n      tag_200\n        /* \"#utility.yul\":8166:8176   */\n      dup5\n        /* \"#utility.yul\":8148:8177   */\n      tag_87\n      jump\t// in\n    tag_200:\n        /* \"#utility.yul\":8138:8146   */\n      dup2\n        /* \"#utility.yul\":8134:8178   */\n      add\n        /* \"#utility.yul\":8331:8333   */\n      0x20\n        /* \"#utility.yul\":8319:8329   */\n      dup6\n        /* \"#utility.yul\":8316:8334   */\n      lt\n        /* \"#utility.yul\":8313:8362   */\n      iszero\n      tag_201\n      jumpi\n        /* \"#utility.yul\":8352:8360   */\n      dup2\n        /* \"#utility.yul\":8337:8360   */\n      swap1\n      pop\n        /* \"#utility.yul\":8313:8362   */\n    tag_201:\n        /* \"#utility.yul\":8375:8455   */\n      tag_202\n        /* \"#utility.yul\":8431:8453   */\n      tag_203\n        /* \"#utility.yul\":8449:8452   */\n      dup6\n        /* \"#utility.yul\":8431:8453   */\n      tag_87\n      jump\t// in\n    tag_203:\n        /* \"#utility.yul\":8421:8429   */\n      dup4\n        /* \"#utility.yul\":8417:8454   */\n      add\n        /* \"#utility.yul\":8404:8415   */\n      dup3\n        /* \"#utility.yul\":8375:8455   */\n      tag_96\n      jump\t// in\n    tag_202:\n        /* \"#utility.yul\":8034:8465   */\n      pop\n      pop\n        /* \"#utility.yul\":8019:8465   */\n    tag_198:\n        /* \"#utility.yul\":7929:8472   */\n      pop\n      pop\n      pop\n      jump\t// out\n        /* \"#utility.yul\":8478:8595   */\n    tag_98:\n        /* \"#utility.yul\":8532:8540   */\n      0x00\n        /* \"#utility.yul\":8582:8587   */\n      dup3\n        /* \"#utility.yul\":8576:8580   */\n      dup3\n        /* \"#utility.yul\":8572:8588   */\n      shr\n        /* \"#utility.yul\":8551:8588   */\n      swap1\n      pop\n        /* \"#utility.yul\":8478:8595   */\n      swap3\n      swap2\n      pop\n      pop\n      jump\t// out\n        /* \"#utility.yul\":8601:8770   */\n    tag_99:\n        /* \"#utility.yul\":8645:8651   */\n      0x00\n        /* \"#utility.yul\":8678:8729   */\n      tag_206\n        /* \"#utility.yul\":8726:8727   */\n      0x00\n        /* \"#utility.yul\":8722:8728   */\n      not\n        /* \"#utility.yul\":8714:8719   */\n      dup5\n        /* \"#utility.yul\":8711:8712   */\n      0x08\n        /* \"#utility.yul\":8707:8720   */\n      mul\n        /* \"#utility.yul\":8678:8729   */\n      tag_98\n      jump\t// in\n    tag_206:\n        /* \"#utility.yul\":8674:8730   */\n      not\n        /* \"#utility.yul\":8759:8763   */\n      dup1\n        /* \"#utility.yul\":8753:8757   */\n      dup4\n        /* \"#utility.yul\":8749:8764   */\n      and\n        /* \"#utility.yul\":8739:8764   */\n      swap2\n      pop\n        /* \"#utility.yul\":8652:8770   */\n      pop\n        /* \"#utility.yul\":8601:8770   */\n      swap3\n      swap2\n      pop\n      pop\n      jump\t// out\n        /* \"#utility.yul\":8775:9070   */\n    tag_100:\n        /* \"#utility.yul\":8851:8855   */\n      0x00\n        /* \"#utility.yul\":8997:9026   */\n      tag_208\n        /* \"#utility.yul\":9022:9025   */\n      dup4\n        /* \"#utility.yul\":9016:9020   */\n      dup4\n        /* \"#utility.yul\":8997:9026   */\n      tag_99\n      jump\t// in\n    tag_208:\n        /* \"#utility.yul\":8989:9026   */\n      swap2\n      pop\n        /* \"#utility.yul\":9059:9062   */\n      dup3\n        /* \"#utility.yul\":9056:9057   */\n      0x02\n        /* \"#utility.yul\":9052:9063   */\n      mul\n        /* \"#utility.yul\":9046:9050   */\n      dup3\n        /* \"#utility.yul\":9043:9064   */\n      or\n        /* \"#utility.yul\":9035:9064   */\n      swap1\n      pop\n        /* \"#utility.yul\":8775:9070   */\n      swap3\n      swap2\n      pop\n      pop\n      jump\t// out\n        /* \"#utility.yul\":9075:10470   */\n    tag_47:\n        /* \"#utility.yul\":9192:9229   */\n      tag_210\n        /* \"#utility.yul\":9225:9228   */\n      dup3\n        /* \"#utility.yul\":9192:9229   */\n      tag_78\n      jump\t// in\n    tag_210:\n        /* \"#utility.yul\":9294:9312   */\n      0xffffffffffffffff\n        /* \"#utility.yul\":9286:9292   */\n      dup2\n        /* \"#utility.yul\":9283:9313   */\n      gt\n        /* \"#utility.yul\":9280:9336   */\n      iszero\n      tag_211\n      jumpi\n        /* \"#utility.yul\":9316:9334   */\n      tag_212\n      tag_71\n      jump\t// in\n    tag_212:\n        /* \"#utility.yul\":9280:9336   */\n    tag_211:\n        /* \"#utility.yul\":9360:9398   */\n      tag_213\n        /* \"#utility.yul\":9392:9396   */\n      dup3\n        /* \"#utility.yul\":9386:9397   */\n      sload\n        /* \"#utility.yul\":9360:9398   */\n      tag_49\n      jump\t// in\n    tag_213:\n        /* \"#utility.yul\":9445:9512   */\n      tag_214\n        /* \"#utility.yul\":9505:9511   */\n      dup3\n        /* \"#utility.yul\":9497:9503   */\n      dup3\n        /* \"#utility.yul\":9491:9495   */\n      dup6\n        /* \"#utility.yul\":9445:9512   */\n      tag_97\n      jump\t// in\n    tag_214:\n        /* \"#utility.yul\":9539:9540   */\n      0x00\n        /* \"#utility.yul\":9563:9567   */\n      0x20\n        /* \"#utility.yul\":9550:9567   */\n      swap1\n      pop\n        /* \"#utility.yul\":9595:9597   */\n      0x1f\n        /* \"#utility.yul\":9587:9593   */\n      dup4\n        /* \"#utility.yul\":9584:9598   */\n      gt\n        /* \"#utility.yul\":9612:9613   */\n      0x01\n        /* \"#utility.yul\":9607:10225   */\n      dup2\n      eq\n      tag_216\n      jumpi\n        /* \"#utility.yul\":10269:10270   */\n      0x00\n        /* \"#utility.yul\":10286:10292   */\n      dup5\n        /* \"#utility.yul\":10283:10360   */\n      iszero\n      tag_217\n      jumpi\n        /* \"#utility.yul\":10335:10344   */\n      dup3\n        /* \"#utility.yul\":10330:10333   */\n      dup8\n        /* \"#utility.yul\":10326:10345   */\n      add\n        /* \"#utility.yul\":10320:10346   */\n      mload\n        /* \"#utility.yul\":10311:10346   */\n      swap1\n      pop\n        /* \"#utility.yul\":10283:10360   */\n    tag_217:\n        /* \"#utility.yul\":10386:10453   */\n      tag_218\n        /* \"#utility.yul\":10446:10452   */\n      dup6\n        /* \"#utility.yul\":10439:10444   */\n      dup3\n        /* \"#utility.yul\":10386:10453   */\n      tag_100\n      jump\t// in\n    tag_218:\n        /* \"#utility.yul\":10380:10384   */\n      dup7\n        /* \"#utility.yul\":10373:10454   */\n      sstore\n        /* \"#utility.yul\":10242:10464   */\n      pop\n        /* \"#utility.yul\":9577:10464   */\n      jump(tag_215)\n        /* \"#utility.yul\":9607:10225   */\n    tag_216:\n        /* \"#utility.yul\":9659:9663   */\n      0x1f\n        /* \"#utility.yul\":9655:9664   */\n      not\n        /* \"#utility.yul\":9647:9653   */\n      dup5\n        /* \"#utility.yul\":9643:9665   */\n      and\n        /* \"#utility.yul\":9693:9730   */\n      tag_219\n        /* \"#utility.yul\":9725:9729   */\n      dup7\n        /* \"#utility.yul\":9693:9730   */\n      tag_86\n      jump\t// in\n    tag_219:\n        /* \"#utility.yul\":9752:9753   */\n      0x00\n        /* \"#utility.yul\":9766:9974   */\n    tag_220:\n        /* \"#utility.yul\":9780:9787   */\n      dup3\n        /* \"#utility.yul\":9777:9778   */\n      dup2\n        /* \"#utility.yul\":9774:9788   */\n      lt\n        /* \"#utility.yul\":9766:9974   */\n      iszero\n      tag_222\n      jumpi\n        /* \"#utility.yul\":9859:9868   */\n      dup5\n        /* \"#utility.yul\":9854:9857   */\n      dup10\n        /* \"#utility.yul\":9850:9869   */\n      add\n        /* \"#utility.yul\":9844:9870   */\n      mload\n        /* \"#utility.yul\":9836:9842   */\n      dup3\n        /* \"#utility.yul\":9829:9871   */\n      sstore\n        /* \"#utility.yul\":9910:9911   */\n      0x01\n        /* \"#utility.yul\":9902:9908   */\n      dup3\n        /* \"#utility.yul\":9898:9912   */\n      add\n        /* \"#utility.yul\":9888:9912   */\n      swap2\n      pop\n        /* \"#utility.yul\":9957:9959   */\n      0x20\n        /* \"#utility.yul\":9946:9955   */\n      dup6\n        /* \"#utility.yul\":9942:9960   */\n      add\n        /* \"#utility.yul\":9929:9960   */\n      swap5\n      pop\n        /* \"#utility.yul\":9803:9807   */\n      0x20\n        /* \"#utility.yul\":9800:9801   */\n      dup2\n        /* \"#utility.yul\":9796:9808   */\n      add\n        /* \"#utility.yul\":9791:9808   */\n      swap1\n      pop\n        /* \"#utility.yul\":9766:9974   */\n      jump(tag_220)\n    tag_222:\n        /* \"#utility.yul\":10002:10008   */\n      dup7\n        /* \"#utility.yul\":9993:10000   */\n      dup4\n        /* \"#utility.yul\":9990:10009   */\n      lt\n        /* \"#utility.yul\":9987:10166   */\n      iszero\n      tag_223\n      jumpi\n        /* \"#utility.yul\":10060:10069   */\n      dup5\n        /* \"#utility.yul\":10055:10058   */\n      dup10\n        /* \"#utility.yul\":10051:10070   */\n      add\n        /* \"#utility.yul\":10045:10071   */\n      mload\n        /* \"#utility.yul\":10103:10151   */\n      tag_224\n        /* \"#utility.yul\":10145:10149   */\n      0x1f\n        /* \"#utility.yul\":10137:10143   */\n      dup10\n        /* \"#utility.yul\":10133:10150   */\n      and\n        /* \"#utility.yul\":10122:10131   */\n      dup3\n        /* \"#utility.yul\":10103:10151   */\n      tag_99\n      jump\t// in\n    tag_224:\n        /* \"#utility.yul\":10095:10101   */\n      dup4\n        /* \"#utility.yul\":10088:10152   */\n      sstore\n        /* \"#utility.yul\":10010:10166   */\n      pop\n        /* \"#utility.yul\":9987:10166   */\n    tag_223:\n        /* \"#utility.yul\":10212:10213   */\n      0x01\n        /* \"#utility.yul\":10208:10209   */\n      0x02\n        /* \"#utility.yul\":10200:10206   */\n      dup9\n        /* \"#utility.yul\":10196:10210   */\n      mul\n        /* \"#utility.yul\":10192:10214   */\n      add\n        /* \"#utility.yul\":10186:10190   */\n      dup9\n        /* \"#utility.yul\":10179:10215   */\n      sstore\n        /* \"#utility.yul\":9614:10225   */\n      pop\n      pop\n      pop\n        /* \"#utility.yul\":9577:10464   */\n    tag_215:\n      pop\n        /* \"#utility.yul\":9167:10470   */\n      pop\n      pop\n      pop\n        /* \"#utility.yul\":9075:10470   */\n      pop\n      pop\n      jump\t// out\n        /* \"#utility.yul\":10476:10886   */\n    tag_62:\n        /* \"#utility.yul\":10516:10523   */\n      0x00\n        /* \"#utility.yul\":10539:10559   */\n      tag_226\n        /* \"#utility.yul\":10557:10558   */\n      dup3\n        /* \"#utility.yul\":10539:10559   */\n      tag_63\n      jump\t// in\n    tag_226:\n        /* \"#utility.yul\":10534:10559   */\n      swap2\n      pop\n        /* \"#utility.yul\":10573:10593   */\n      tag_227\n        /* \"#utility.yul\":10591:10592   */\n      dup4\n        /* \"#utility.yul\":10573:10593   */\n      tag_63\n      jump\t// in\n    tag_227:\n        /* \"#utility.yul\":10568:10593   */\n      swap3\n      pop\n        /* \"#utility.yul\":10628:10629   */\n      dup3\n        /* \"#utility.yul\":10625:10626   */\n      dup3\n        /* \"#utility.yul\":10621:10630   */\n      mul\n        /* \"#utility.yul\":10650:10680   */\n      tag_228\n        /* \"#utility.yul\":10668:10679   */\n      dup2\n        /* \"#utility.yul\":10650:10680   */\n      tag_63\n      jump\t// in\n    tag_228:\n        /* \"#utility.yul\":10639:10680   */\n      swap2\n      pop\n        /* \"#utility.yul\":10829:10830   */\n      dup3\n        /* \"#utility.yul\":10820:10827   */\n      dup3\n        /* \"#utility.yul\":10816:10831   */\n      div\n        /* \"#utility.yul\":10813:10814   */\n      dup5\n        /* \"#utility.yul\":10810:10832   */\n      eq\n        /* \"#utility.yul\":10790:10791   */\n      dup4\n        /* \"#utility.yul\":10783:10792   */\n      iszero\n        /* \"#utility.yul\":10763:10846   */\n      or\n        /* \"#utility.yul\":10740:10879   */\n      tag_229\n      jumpi\n        /* \"#utility.yul\":10859:10877   */\n      tag_230\n      tag_84\n      jump\t// in\n    tag_230:\n        /* \"#utility.yul\":10740:10879   */\n    tag_229:\n        /* \"#utility.yul\":10524:10886   */\n      pop\n        /* \"#utility.yul\":10476:10886   */\n      swap3\n      swap2\n      pop\n      pop\n      jump\t// out\n\n    auxdata: 0xa2646970667358221220bc1734aa1fe53cebba777f06adea03906e4cfa167fa36c97b509c0af149b91f764736f6c634300081e0033\n}\n",
				"bytecode": {
					"linkReferences": {},
					"object": "60806040526040518060400160405280600681526020017f68656c6c6f2100000000000000000000000000000000000000000000000000008152505f90816100479190610296565b50348015610053575f5ffd5b50610365565b5f81519050919050565b7f4e487b71000000000000000000000000000000000000000000000000000000005f52604160045260245ffd5b7f4e487b71000000000000000000000000000000000000000000000000000000005f52602260045260245ffd5b5f60028204905060018216806100d457607f821691505b6020821081036100e7576100e6610090565b5b50919050565b5f819050815f5260205f209050919050565b5f6020601f8301049050919050565b5f82821b905092915050565b5f600883026101497fffffffffffffffffffffffffffffffffffffffffffffffffffffffffffffffff8261010e565b610153868361010e565b95508019841693508086168417925050509392505050565b5f819050919050565b5f819050919050565b5f61019761019261018d8461016b565b610174565b61016b565b9050919050565b5f819050919050565b6101b08361017d565b6101c46101bc8261019e565b84845461011a565b825550505050565b5f5f905090565b6101db6101cc565b6101e68184846101a7565b505050565b5b81811015610209576101fe5f826101d3565b6001810190506101ec565b5050565b601f82111561024e5761021f816100ed565b610228846100ff565b81016020851015610237578190505b61024b610243856100ff565b8301826101eb565b50505b505050565b5f82821c905092915050565b5f61026e5f1984600802610253565b1980831691505092915050565b5f610286838361025f565b9150826002028217905092915050565b61029f82610059565b67ffffffffffffffff8111156102b8576102b7610063565b5b6102c282546100bd565b6102cd82828561020d565b5f60209050601f8311600181146102fe575f84156102ec578287015190505b6102f6858261027b565b86555061035d565b601f19841661030c866100ed565b5f5b828110156103335784890151825560018201915060208501945060208101905061030e565b86831015610350578489015161034c601f89168261025f565b8355505b6001600288020188555050505b505050505050565b610903806103725f395ff3fe608060405260043610610058575f3560e01c806312065fe01461005b5780631b9265b814610085578063368b87721461008f578063b69ef8a8146100cb578063ce6d41de146100f5578063e7ee6ad61461011f57610059565b5b005b348015610066575f5ffd5b5061006f61015b565b60405161007c91906102de565b60405180910390f35b61008d610162565b005b34801561009a575f5ffd5b506100b560048036038101906100b09190610444565b61017c565b6040516100c291906104eb565b60405180910390f35b3480156100d6575f5ffd5b506100df61021c565b6040516100ec91906102de565b60405180910390f35b348015610100575f5ffd5b50610109610222565b60405161011691906104eb565b60405180910390f35b34801561012a575f5ffd5b5061014560048036038101906101409190610535565b6102b1565b60405161015291906102de565b60405180910390f35b5f47905090565b3460015f828254610173919061058d565b92505081905550565b6060815f908161018c91906107bd565b505f8054610199906105ed565b80601f01602080910402602001604051908101604052809291908181526020018280546101c5906105ed565b80156102105780601f106101e757610100808354040283529160200191610210565b820191905f5260205f20905b8154815290600101906020018083116101f357829003601f168201915b50505050509050919050565b60015481565b60605f8054610230906105ed565b80601f016020809104026020016040519081016040528092919081815260200182805461025c906105ed565b80156102a75780601f1061027e576101008083540402835291602001916102a7565b820191905f5260205f20905b81548152906001019060200180831161028a57829003601f168201915b5050505050905090565b5f6003826102bf919061088c565b9050919050565b5f819050919050565b6102d8816102c6565b82525050565b5f6020820190506102f15f8301846102cf565b92915050565b5f604051905090565b5f5ffd5b5f5ffd5b5f5ffd5b5f5ffd5b5f601f19601f8301169050919050565b7f4e487b71000000000000000000000000000000000000000000000000000000005f52604160045260245ffd5b61035682610310565b810181811067ffffffffffffffff8211171561037557610374610320565b5b80604052505050565b5f6103876102f7565b9050610393828261034d565b919050565b5f67ffffffffffffffff8211156103b2576103b1610320565b5b6103bb82610310565b9050602081019050919050565b828183375f83830152505050565b5f6103e86103e384610398565b61037e565b9050828152602081018484840111156104045761040361030c565b5b61040f8482856103c8565b509392505050565b5f82601f83011261042b5761042a610308565b5b813561043b8482602086016103d6565b91505092915050565b5f6020828403121561045957610458610300565b5b5f82013567ffffffffffffffff81111561047657610475610304565b5b61048284828501610417565b91505092915050565b5f81519050919050565b5f82825260208201905092915050565b8281835e5f83830152505050565b5f6104bd8261048b565b6104c78185610495565b93506104d78185602086016104a5565b6104e081610310565b840191505092915050565b5f6020820190508181035f83015261050381846104b3565b905092915050565b610514816102c6565b811461051e575f5ffd5b50565b5f8135905061052f8161050b565b92915050565b5f6020828403121561054a57610549610300565b5b5f61055784828501610521565b91505092915050565b7f4e487b71000000000000000000000000000000000000000000000000000000005f52601160045260245ffd5b5f610597826102c6565b91506105a2836102c6565b92508282019050808211156105ba576105b9610560565b5b92915050565b7f4e487b71000000000000000000000000000000000000000000000000000000005f52602260045260245ffd5b5f600282049050600182168061060457607f821691505b602082108103610617576106166105c0565b5b50919050565b5f819050815f5260205f209050919050565b5f6020601f8301049050919050565b5f82821b905092915050565b5f600883026106797fffffffffffffffffffffffffffffffffffffffffffffffffffffffffffffffff8261063e565b610683868361063e565b95508019841693508086168417925050509392505050565b5f819050919050565b5f6106be6106b96106b4846102c6565b61069b565b6102c6565b9050919050565b5f819050919050565b6106d7836106a4565b6106eb6106e3826106c5565b84845461064a565b825550505050565b5f5f905090565b6107026106f3565b61070d8184846106ce565b505050565b5b81811015610730576107255f826106fa565b600181019050610713565b5050565b601f821115610775576107468161061d565b61074f8461062f565b8101602085101561075e578190505b61077261076a8561062f565b830182610712565b50505b505050565b5f82821c905092915050565b5f6107955f198460080261077a565b1980831691505092915050565b5f6107ad8383610786565b9150826002028217905092915050565b6107c68261048b565b67ffffffffffffffff8111156107df576107de610320565b5b6107e982546105ed565b6107f4828285610734565b5f60209050601f831160018114610825575f8415610813578287015190505b61081d85826107a2565b865550610884565b601f1984166108338661061d565b5f5b8281101561085a57848901518255600182019150602085019450602081019050610835565b868310156108775784890151610873601f891682610786565b8355505b6001600288020188555050505b505050505050565b5f610896826102c6565b91506108a1836102c6565b92508282026108af816102c6565b915082820484148315176108c6576108c5610560565b5b509291505056fea2646970667358221220bc1734aa1fe53cebba777f06adea03906e4cfa167fa36c97b509c0af149b91f764736f6c634300081e0033",
					"opcodes": "PUSH1 0x80 PUSH1 0x40 MSTORE PUSH1 0x40 MLOAD DUP1 PUSH1 0x40 ADD PUSH1 0x40 MSTORE DUP1 PUSH1 0x6 DUP2 MSTORE PUSH1 0x20 ADD PUSH32 0x68656C6C6F210000000000000000000000000000000000000000000000000000 DUP2 MSTORE POP PUSH0 SWAP1 DUP2 PUSH2 0x47 SWAP2 SWAP1 PUSH2 0x296 JUMP JUMPDEST POP CALLVALUE DUP1 ISZERO PUSH2 0x53 JUMPI PUSH0 PUSH0 REVERT JUMPDEST POP PUSH2 0x365 JUMP JUMPDEST PUSH0 DUP2 MLOAD SWAP1 POP SWAP2 SWAP1 POP JUMP JUMPDEST PUSH32 0x4E487B7100000000000000000000000000000000000000000000000000000000 PUSH0 MSTORE PUSH1 0x41 PUSH1 0x4 MSTORE PUSH1 0x24 PUSH0 REVERT JUMPDEST PUSH32 0x4E487B7100000000000000000000000000000000000000000000000000000000 PUSH0 MSTORE PUSH1 0x22 PUSH1 0x4 MSTORE PUSH1 0x24 PUSH0 REVERT JUMPDEST PUSH0 PUSH1 0x2 DUP3 DIV SWAP1 POP PUSH1 0x1 DUP3 AND DUP1 PUSH2 0xD4 JUMPI PUSH1 0x7F DUP3 AND SWAP2 POP JUMPDEST PUSH1 0x20 DUP3 LT DUP2 SUB PUSH2 0xE7 JUMPI PUSH2 0xE6 PUSH2 0x90 JUMP JUMPDEST JUMPDEST POP SWAP2 SWAP1 POP JUMP JUMPDEST PUSH0 DUP2 SWAP1 POP DUP2 PUSH0 MSTORE PUSH1 0x20 PUSH0 KECCAK256 SWAP1 POP SWAP2 SWAP1 POP JUMP JUMPDEST PUSH0 PUSH1 0x20 PUSH1 0x1F DUP4 ADD DIV SWAP1 POP SWAP2 SWAP1 POP JUMP JUMPDEST PUSH0 DUP3 DUP3 SHL SWAP1 POP SWAP3 SWAP2 POP POP JUMP JUMPDEST PUSH0 PUSH1 0x8 DUP4 MUL PUSH2 0x149 PUSH32 0xFFFFFFFFFFFFFFFFFFFFFFFFFFFFFFFFFFFFFFFFFFFFFFFFFFFFFFFFFFFFFFFF DUP3 PUSH2 0x10E JUMP JUMPDEST PUSH2 0x153 DUP7 DUP4 PUSH2 0x10E JUMP JUMPDEST SWAP6 POP DUP1 NOT DUP5 AND SWAP4 POP DUP1 DUP7 AND DUP5 OR SWAP3 POP POP POP SWAP4 SWAP3 POP POP POP JUMP JUMPDEST PUSH0 DUP2 SWAP1 POP SWAP2 SWAP1 POP JUMP JUMPDEST PUSH0 DUP2 SWAP1 POP SWAP2 SWAP1 POP JUMP JUMPDEST PUSH0 PUSH2 0x197 PUSH2 0x192 PUSH2 0x18D DUP5 PUSH2 0x16B JUMP JUMPDEST PUSH2 0x174 JUMP JUMPDEST PUSH2 0x16B JUMP JUMPDEST SWAP1 POP SWAP2 SWAP1 POP JUMP JUMPDEST PUSH0 DUP2 SWAP1 POP SWAP2 SWAP1 POP JUMP JUMPDEST PUSH2 0x1B0 DUP4 PUSH2 0x17D JUMP JUMPDEST PUSH2 0x1C4 PUSH2 0x1BC DUP3 PUSH2 0x19E JUMP JUMPDEST DUP5 DUP5 SLOAD PUSH2 0x11A JUMP JUMPDEST DUP3 SSTORE POP POP POP POP JUMP JUMPDEST PUSH0 PUSH0 SWAP1 POP SWAP1 JUMP JUMPDEST PUSH2 0x1DB PUSH2 0x1CC JUMP JUMPDEST PUSH2 0x1E6 DUP2 DUP5 DUP5 PUSH2 0x1A7 JUMP JUMPDEST POP POP POP JUMP JUMPDEST JUMPDEST DUP2 DUP2 LT ISZERO PUSH2 0x209 JUMPI PUSH2 0x1FE PUSH0 DUP3 PUSH2 0x1D3 JUMP JUMPDEST PUSH1 0x1 DUP2 ADD SWAP1 POP PUSH2 0x1EC JUMP JUMPDEST POP POP JUMP JUMPDEST PUSH1 0x1F DUP3 GT ISZERO PUSH2 0x24E JUMPI PUSH2 0x21F DUP2 PUSH2 0xED JUMP JUMPDEST PUSH2 0x228 DUP5 PUSH2 0xFF JUMP JUMPDEST DUP2 ADD PUSH1 0x20 DUP6 LT ISZERO PUSH2 0x237 JUMPI DUP2 SWAP1 POP JUMPDEST PUSH2 0x24B PUSH2 0x243 DUP6 PUSH2 0xFF JUMP JUMPDEST DUP4 ADD DUP3 PUSH2 0x1EB JUMP JUMPDEST POP POP JUMPDEST POP POP POP JUMP JUMPDEST PUSH0 DUP3 DUP3 SHR SWAP1 POP SWAP3 SWAP2 POP POP JUMP JUMPDEST PUSH0 PUSH2 0x26E PUSH0 NOT DUP5 PUSH1 0x8 MUL PUSH2 0x253 JUMP JUMPDEST NOT DUP1 DUP4 AND SWAP2 POP POP SWAP3 SWAP2 POP POP JUMP JUMPDEST PUSH0 PUSH2 0x286 DUP4 DUP4 PUSH2 0x25F JUMP JUMPDEST SWAP2 POP DUP3 PUSH1 0x2 MUL DUP3 OR SWAP1 POP SWAP3 SWAP2 POP POP JUMP JUMPDEST PUSH2 0x29F DUP3 PUSH2 0x59 JUMP JUMPDEST PUSH8 0xFFFFFFFFFFFFFFFF DUP2 GT ISZERO PUSH2 0x2B8 JUMPI PUSH2 0x2B7 PUSH2 0x63 JUMP JUMPDEST JUMPDEST PUSH2 0x2C2 DUP3 SLOAD PUSH2 0xBD JUMP JUMPDEST PUSH2 0x2CD DUP3 DUP3 DUP6 PUSH2 0x20D JUMP JUMPDEST PUSH0 PUSH1 0x20 SWAP1 POP PUSH1 0x1F DUP4 GT PUSH1 0x1 DUP2 EQ PUSH2 0x2FE JUMPI PUSH0 DUP5 ISZERO PUSH2 0x2EC JUMPI DUP3 DUP8 ADD MLOAD SWAP1 POP JUMPDEST PUSH2 0x2F6 DUP6 DUP3 PUSH2 0x27B JUMP JUMPDEST DUP7 SSTORE POP PUSH2 0x35D JUMP JUMPDEST PUSH1 0x1F NOT DUP5 AND PUSH2 0x30C DUP7 PUSH2 0xED JUMP JUMPDEST PUSH0 JUMPDEST DUP3 DUP2 LT ISZERO PUSH2 0x333 JUMPI DUP5 DUP10 ADD MLOAD DUP3 SSTORE PUSH1 0x1 DUP3 ADD SWAP2 POP PUSH1 0x20 DUP6 ADD SWAP5 POP PUSH1 0x20 DUP2 ADD SWAP1 POP PUSH2 0x30E JUMP JUMPDEST DUP7 DUP4 LT ISZERO PUSH2 0x350 JUMPI DUP5 DUP10 ADD MLOAD PUSH2 0x34C PUSH1 0x1F DUP10 AND DUP3 PUSH2 0x25F JUMP JUMPDEST DUP4 SSTORE POP JUMPDEST PUSH1 0x1 PUSH1 0x2 DUP9 MUL ADD DUP9 SSTORE POP POP POP JUMPDEST POP POP POP POP POP POP JUMP JUMPDEST PUSH2 0x903 DUP1 PUSH2 0x372 PUSH0 CODECOPY PUSH0 RETURN INVALID PUSH1 0x80 PUSH1 0x40 MSTORE PUSH1 0x4 CALLDATASIZE LT PUSH2 0x58 JUMPI PUSH0 CALLDATALOAD PUSH1 0xE0 SHR DUP1 PUSH4 0x12065FE0 EQ PUSH2 0x5B JUMPI DUP1 PUSH4 0x1B9265B8 EQ PUSH2 0x85 JUMPI DUP1 PUSH4 0x368B8772 EQ PUSH2 0x8F JUMPI DUP1 PUSH4 0xB69EF8A8 EQ PUSH2 0xCB JUMPI DUP1 PUSH4 0xCE6D41DE EQ PUSH2 0xF5 JUMPI DUP1 PUSH4 0xE7EE6AD6 EQ PUSH2 0x11F JUMPI PUSH2 0x59 JUMP JUMPDEST JUMPDEST STOP JUMPDEST CALLVALUE DUP1 ISZERO PUSH2 0x66 JUMPI PUSH0 PUSH0 REVERT JUMPDEST POP PUSH2 0x6F PUSH2 0x15B JUMP JUMPDEST PUSH1 0x40 MLOAD PUSH2 0x7C SWAP2 SWAP1 PUSH2 0x2DE JUMP JUMPDEST PUSH1 0x40 MLOAD DUP1 SWAP2 SUB SWAP1 RETURN JUMPDEST PUSH2 0x8D PUSH2 0x162 JUMP JUMPDEST STOP JUMPDEST CALLVALUE DUP1 ISZERO PUSH2 0x9A JUMPI PUSH0 PUSH0 REVERT JUMPDEST POP PUSH2 0xB5 PUSH1 0x4 DUP1 CALLDATASIZE SUB DUP2 ADD SWAP1 PUSH2 0xB0 SWAP2 SWAP1 PUSH2 0x444 JUMP JUMPDEST PUSH2 0x17C JUMP JUMPDEST PUSH1 0x40 MLOAD PUSH2 0xC2 SWAP2 SWAP1 PUSH2 0x4EB JUMP JUMPDEST PUSH1 0x40 MLOAD DUP1 SWAP2 SUB SWAP1 RETURN JUMPDEST CALLVALUE DUP1 ISZERO PUSH2 0xD6 JUMPI PUSH0 PUSH0 REVERT JUMPDEST POP PUSH2 0xDF PUSH2 0x21C JUMP JUMPDEST PUSH1 0x40 MLOAD PUSH2 0xEC SWAP2 SWAP1 PUSH2 0x2DE JUMP JUMPDEST PUSH1 0x40 MLOAD DUP1 SWAP2 SUB SWAP1 RETURN JUMPDEST CALLVALUE DUP1 ISZERO PUSH2 0x100 JUMPI PUSH0 PUSH0 REVERT JUMPDEST POP PUSH2 0x109 PUSH2 0x222 JUMP JUMPDEST PUSH1 0x40 MLOAD PUSH2 0x116 SWAP2 SWAP1 PUSH2 0x4EB JUMP JUMPDEST PUSH1 0x40 MLOAD DUP1 SWAP2 SUB SWAP1 RETURN JUMPDEST CALLVALUE DUP1 ISZERO PUSH2 0x12A JUMPI PUSH0 PUSH0 REVERT JUMPDEST POP PUSH2 0x145 PUSH1 0x4 DUP1 CALLDATASIZE SUB DUP2 ADD SWAP1 PUSH2 0x140 SWAP2 SWAP1 PUSH2 0x535 JUMP JUMPDEST PUSH2 0x2B1 JUMP JUMPDEST PUSH1 0x40 MLOAD PUSH2 0x152 SWAP2 SWAP1 PUSH2 0x2DE JUMP JUMPDEST PUSH1 0x40 MLOAD DUP1 SWAP2 SUB SWAP1 RETURN JUMPDEST PUSH0 SELFBALANCE SWAP1 POP SWAP1 JUMP JUMPDEST CALLVALUE PUSH1 0x1 PUSH0 DUP3 DUP3 SLOAD PUSH2 0x173 SWAP2 SWAP1 PUSH2 0x58D JUMP JUMPDEST SWAP3 POP POP DUP2 SWAP1 SSTORE POP JUMP JUMPDEST PUSH1 0x60 DUP2 PUSH0 SWAP1 DUP2 PUSH2 0x18C SWAP2 SWAP1 PUSH2 0x7BD JUMP JUMPDEST POP PUSH0 DUP1 SLOAD PUSH2 0x199 SWAP1 PUSH2 0x5ED JUMP JUMPDEST DUP1 PUSH1 0x1F ADD PUSH1 0x20 DUP1 SWAP2 DIV MUL PUSH1 0x20 ADD PUSH1 0x40 MLOAD SWAP1 DUP2 ADD PUSH1 0x40 MSTORE DUP1 SWAP3 SWAP2 SWAP1 DUP2 DUP2 MSTORE PUSH1 0x20 ADD DUP3 DUP1 SLOAD PUSH2 0x1C5 SWAP1 PUSH2 0x5ED JUMP JUMPDEST DUP1 ISZERO PUSH2 0x210 JUMPI DUP1 PUSH1 0x1F LT PUSH2 0x1E7 JUMPI PUSH2 0x100 DUP1 DUP4 SLOAD DIV MUL DUP4 MSTORE SWAP2 PUSH1 0x20 ADD SWAP2 PUSH2 0x210 JUMP JUMPDEST DUP3 ADD SWAP2 SWAP1 PUSH0 MSTORE PUSH1 0x20 PUSH0 KECCAK256 SWAP1 JUMPDEST DUP2 SLOAD DUP2 MSTORE SWAP1 PUSH1 0x1 ADD SWAP1 PUSH1 0x20 ADD DUP1 DUP4 GT PUSH2 0x1F3 JUMPI DUP3 SWAP1 SUB PUSH1 0x1F AND DUP3 ADD SWAP2 JUMPDEST POP POP POP POP POP SWAP1 POP SWAP2 SWAP1 POP JUMP JUMPDEST PUSH1 0x1 SLOAD DUP2 JUMP JUMPDEST PUSH1 0x60 PUSH0 DUP1 SLOAD PUSH2 0x230 SWAP1 PUSH2 0x5ED JUMP JUMPDEST DUP1 PUSH1 0x1F ADD PUSH1 0x20 DUP1 SWAP2 DIV MUL PUSH1 0x20 ADD PUSH1 0x40 MLOAD SWAP1 DUP2 ADD PUSH1 0x40 MSTORE DUP1 SWAP3 SWAP2 SWAP1 DUP2 DUP2 MSTORE PUSH1 0x20 ADD DUP3 DUP1 SLOAD PUSH2 0x25C SWAP1 PUSH2 0x5ED JUMP JUMPDEST DUP1 ISZERO PUSH2 0x2A7 JUMPI DUP1 PUSH1 0x1F LT PUSH2 0x27E JUMPI PUSH2 0x100 DUP1 DUP4 SLOAD DIV MUL DUP4 MSTORE SWAP2 PUSH1 0x20 ADD SWAP2 PUSH2 0x2A7 JUMP JUMPDEST DUP3 ADD SWAP2 SWAP1 PUSH0 MSTORE PUSH1 0x20 PUSH0 KECCAK256 SWAP1 JUMPDEST DUP2 SLOAD DUP2 MSTORE SWAP1 PUSH1 0x1 ADD SWAP1 PUSH1 0x20 ADD DUP1 DUP4 GT PUSH2 0x28A JUMPI DUP3 SWAP1 SUB PUSH1 0x1F AND DUP3 ADD SWAP2 JUMPDEST POP POP POP POP POP SWAP1 POP SWAP1 JUMP JUMPDEST PUSH0 PUSH1 0x3 DUP3 PUSH2 0x2BF SWAP2 SWAP1 PUSH2 0x88C JUMP JUMPDEST SWAP1 POP SWAP2 SWAP1 POP JUMP JUMPDEST PUSH0 DUP2 SWAP1 POP SWAP2 SWAP1 POP JUMP JUMPDEST PUSH2 0x2D8 DUP2 PUSH2 0x2C6 JUMP JUMPDEST DUP3 MSTORE POP POP JUMP JUMPDEST PUSH0 PUSH1 0x20 DUP3 ADD SWAP1 POP PUSH2 0x2F1 PUSH0 DUP4 ADD DUP5 PUSH2 0x2CF JUMP JUMPDEST SWAP3 SWAP2 POP POP JUMP JUMPDEST PUSH0 PUSH1 0x40 MLOAD SWAP1 POP SWAP1 JUMP JUMPDEST PUSH0 PUSH0 REVERT JUMPDEST PUSH0 PUSH0 REVERT JUMPDEST PUSH0 PUSH0 REVERT JUMPDEST PUSH0 PUSH0 REVERT JUMPDEST PUSH0 PUSH1 0x1F NOT PUSH1 0x1F DUP4 ADD AND SWAP1 POP SWAP2 SWAP1 POP JUMP JUMPDEST PUSH32 0x4E487B7100000000000000000000000000000000000000000000000000000000 PUSH0 MSTORE PUSH1 0x41 PUSH1 0x4 MSTORE PUSH1 0x24 PUSH0 REVERT JUMPDEST PUSH2 0x356 DUP3 PUSH2 0x310 JUMP JUMPDEST DUP2 ADD DUP2 DUP2 LT PUSH8 0xFFFFFFFFFFFFFFFF DUP3 GT OR ISZERO PUSH2 0x375 JUMPI PUSH2 0x374 PUSH2 0x320 JUMP JUMPDEST JUMPDEST DUP1 PUSH1 0x40 MSTORE POP POP POP JUMP JUMPDEST PUSH0 PUSH2 0x387 PUSH2 0x2F7 JUMP JUMPDEST SWAP1 POP PUSH2 0x393 DUP3 DUP3 PUSH2 0x34D JUMP JUMPDEST SWAP2 SWAP1 POP JUMP JUMPDEST PUSH0 PUSH8 0xFFFFFFFFFFFFFFFF DUP3 GT ISZERO PUSH2 0x3B2 JUMPI PUSH2 0x3B1 PUSH2 0x320 JUMP JUMPDEST JUMPDEST PUSH2 0x3BB DUP3 PUSH2 0x310 JUMP JUMPDEST SWAP1 POP PUSH1 0x20 DUP2 ADD SWAP1 POP SWAP2 SWAP1 POP JUMP JUMPDEST DUP3 DUP2 DUP4 CALLDATACOPY PUSH0 DUP4 DUP4 ADD MSTORE POP POP POP JUMP JUMPDEST PUSH0 PUSH2 0x3E8 PUSH2 0x3E3 DUP5 PUSH2 0x398 JUMP JUMPDEST PUSH2 0x37E JUMP JUMPDEST SWAP1 POP DUP3 DUP2 MSTORE PUSH1 0x20 DUP2 ADD DUP5 DUP5 DUP5 ADD GT ISZERO PUSH2 0x404 JUMPI PUSH2 0x403 PUSH2 0x30C JUMP JUMPDEST JUMPDEST PUSH2 0x40F DUP5 DUP3 DUP6 PUSH2 0x3C8 JUMP JUMPDEST POP SWAP4 SWAP3 POP POP POP JUMP JUMPDEST PUSH0 DUP3 PUSH1 0x1F DUP4 ADD SLT PUSH2 0x42B JUMPI PUSH2 0x42A PUSH2 0x308 JUMP JUMPDEST JUMPDEST DUP2 CALLDATALOAD PUSH2 0x43B DUP5 DUP3 PUSH1 0x20 DUP7 ADD PUSH2 0x3D6 JUMP JUMPDEST SWAP2 POP POP SWAP3 SWAP2 POP POP JUMP JUMPDEST PUSH0 PUSH1 0x20 DUP3 DUP5 SUB SLT ISZERO PUSH2 0x459 JUMPI PUSH2 0x458 PUSH2 0x300 JUMP JUMPDEST JUMPDEST PUSH0 DUP3 ADD CALLDATALOAD PUSH8 0xFFFFFFFFFFFFFFFF DUP2 GT ISZERO PUSH2 0x476 JUMPI PUSH2 0x475 PUSH2 0x304 JUMP JUMPDEST JUMPDEST PUSH2 0x482 DUP5 DUP3 DUP6 ADD PUSH2 0x417 JUMP JUMPDEST SWAP2 POP POP SWAP3 SWAP2 POP POP JUMP JUMPDEST PUSH0 DUP2 MLOAD SWAP1 POP SWAP2 SWAP1 POP JUMP JUMPDEST PUSH0 DUP3 DUP3 MSTORE PUSH1 0x20 DUP3 ADD SWAP1 POP SWAP3 SWAP2 POP POP JUMP JUMPDEST DUP3 DUP2 DUP4 MCOPY PUSH0 DUP4 DUP4 ADD MSTORE POP POP POP JUMP JUMPDEST PUSH0 PUSH2 0x4BD DUP3 PUSH2 0x48B JUMP JUMPDEST PUSH2 0x4C7 DUP2 DUP6 PUSH2 0x495 JUMP JUMPDEST SWAP4 POP PUSH2 0x4D7 DUP2 DUP6 PUSH1 0x20 DUP7 ADD PUSH2 0x4A5 JUMP JUMPDEST PUSH2 0x4E0 DUP2 PUSH2 0x310 JUMP JUMPDEST DUP5 ADD SWAP2 POP POP SWAP3 SWAP2 POP POP JUMP JUMPDEST PUSH0 PUSH1 0x20 DUP3 ADD SWAP1 POP DUP2 DUP2 SUB PUSH0 DUP4 ADD MSTORE PUSH2 0x503 DUP2 DUP5 PUSH2 0x4B3 JUMP JUMPDEST SWAP1 POP SWAP3 SWAP2 POP POP JUMP JUMPDEST PUSH2 0x514 DUP2 PUSH2 0x2C6 JUMP JUMPDEST DUP2 EQ PUSH2 0x51E JUMPI PUSH0 PUSH0 REVERT JUMPDEST POP JUMP JUMPDEST PUSH0 DUP2 CALLDATALOAD SWAP1 POP PUSH2 0x52F DUP2 PUSH2 0x50B JUMP JUMPDEST SWAP3 SWAP2 POP POP JUMP JUMPDEST PUSH0 PUSH1 0x20 DUP3 DUP5 SUB SLT ISZERO PUSH2 0x54A JUMPI PUSH2 0x549 PUSH2 0x300 JUMP JUMPDEST JUMPDEST PUSH0 PUSH2 0x557 DUP5 DUP3 DUP6 ADD PUSH2 0x521 JUMP JUMPDEST SWAP2 POP POP SWAP3 SWAP2 POP POP JUMP JUMPDEST PUSH32 0x4E487B7100000000000000000000000000000000000000000000000000000000 PUSH0 MSTORE PUSH1 0x11 PUSH1 0x4 MSTORE PUSH1 0x24 PUSH0 REVERT JUMPDEST PUSH0 PUSH2 0x597 DUP3 PUSH2 0x2C6 JUMP JUMPDEST SWAP2 POP PUSH2 0x5A2 DUP4 PUSH2 0x2C6 JUMP JUMPDEST SWAP3 POP DUP3 DUP3 ADD SWAP1 POP DUP1 DUP3 GT ISZERO PUSH2 0x5BA JUMPI PUSH2 0x5B9 PUSH2 0x560 JUMP JUMPDEST JUMPDEST SWAP3 SWAP2 POP POP JUMP JUMPDEST PUSH32 0x4E487B7100000000000000000000000000000000000000000000000000000000 PUSH0 MSTORE PUSH1 0x22 PUSH1 0x4 MSTORE PUSH1 0x24 PUSH0 REVERT JUMPDEST PUSH0 PUSH1 0x2 DUP3 DIV SWAP1 POP PUSH1 0x1 DUP3 AND DUP1 PUSH2 0x604 JUMPI PUSH1 0x7F DUP3 AND SWAP2 POP JUMPDEST PUSH1 0x20 DUP3 LT DUP2 SUB PUSH2 0x617 JUMPI PUSH2 0x616 PUSH2 0x5C0 JUMP JUMPDEST JUMPDEST POP SWAP2 SWAP1 POP JUMP JUMPDEST PUSH0 DUP2 SWAP1 POP DUP2 PUSH0 MSTORE PUSH1 0x20 PUSH0 KECCAK256 SWAP1 POP SWAP2 SWAP1 POP JUMP JUMPDEST PUSH0 PUSH1 0x20 PUSH1 0x1F DUP4 ADD DIV SWAP1 POP SWAP2 SWAP1 POP JUMP JUMPDEST PUSH0 DUP3 DUP3 SHL SWAP1 POP SWAP3 SWAP2 POP POP JUMP JUMPDEST PUSH0 PUSH1 0x8 DUP4 MUL PUSH2 0x679 PUSH32 0xFFFFFFFFFFFFFFFFFFFFFFFFFFFFFFFFFFFFFFFFFFFFFFFFFFFFFFFFFFFFFFFF DUP3 PUSH2 0x63E JUMP JUMPDEST PUSH2 0x683 DUP7 DUP4 PUSH2 0x63E JUMP JUMPDEST SWAP6 POP DUP1 NOT DUP5 AND SWAP4 POP DUP1 DUP7 AND DUP5 OR SWAP3 POP POP POP SWAP4 SWAP3 POP POP POP JUMP JUMPDEST PUSH0 DUP2 SWAP1 POP SWAP2 SWAP1 POP JUMP JUMPDEST PUSH0 PUSH2 0x6BE PUSH2 0x6B9 PUSH2 0x6B4 DUP5 PUSH2 0x2C6 JUMP JUMPDEST PUSH2 0x69B JUMP JUMPDEST PUSH2 0x2C6 JUMP JUMPDEST SWAP1 POP SWAP2 SWAP1 POP JUMP JUMPDEST PUSH0 DUP2 SWAP1 POP SWAP2 SWAP1 POP JUMP JUMPDEST PUSH2 0x6D7 DUP4 PUSH2 0x6A4 JUMP JUMPDEST PUSH2 0x6EB PUSH2 0x6E3 DUP3 PUSH2 0x6C5 JUMP JUMPDEST DUP5 DUP5 SLOAD PUSH2 0x64A JUMP JUMPDEST DUP3 SSTORE POP POP POP POP JUMP JUMPDEST PUSH0 PUSH0 SWAP1 POP SWAP1 JUMP JUMPDEST PUSH2 0x702 PUSH2 0x6F3 JUMP JUMPDEST PUSH2 0x70D DUP2 DUP5 DUP5 PUSH2 0x6CE JUMP JUMPDEST POP POP POP JUMP JUMPDEST JUMPDEST DUP2 DUP2 LT ISZERO PUSH2 0x730 JUMPI PUSH2 0x725 PUSH0 DUP3 PUSH2 0x6FA JUMP JUMPDEST PUSH1 0x1 DUP2 ADD SWAP1 POP PUSH2 0x713 JUMP JUMPDEST POP POP JUMP JUMPDEST PUSH1 0x1F DUP3 GT ISZERO PUSH2 0x775 JUMPI PUSH2 0x746 DUP2 PUSH2 0x61D JUMP JUMPDEST PUSH2 0x74F DUP5 PUSH2 0x62F JUMP JUMPDEST DUP2 ADD PUSH1 0x20 DUP6 LT ISZERO PUSH2 0x75E JUMPI DUP2 SWAP1 POP JUMPDEST PUSH2 0x772 PUSH2 0x76A DUP6 PUSH2 0x62F JUMP JUMPDEST DUP4 ADD DUP3 PUSH2 0x712 JUMP JUMPDEST POP POP JUMPDEST POP POP POP JUMP JUMPDEST PUSH0 DUP3 DUP3 SHR SWAP1 POP SWAP3 SWAP2 POP POP JUMP JUMPDEST PUSH0 PUSH2 0x795 PUSH0 NOT DUP5 PUSH1 0x8 MUL PUSH2 0x77A JUMP JUMPDEST NOT DUP1 DUP4 AND SWAP2 POP POP SWAP3 SWAP2 POP POP JUMP JUMPDEST PUSH0 PUSH2 0x7AD DUP4 DUP4 PUSH2 0x786 JUMP JUMPDEST SWAP2 POP DUP3 PUSH1 0x2 MUL DUP3 OR SWAP1 POP SWAP3 SWAP2 POP POP JUMP JUMPDEST PUSH2 0x7C6 DUP3 PUSH2 0x48B JUMP JUMPDEST PUSH8 0xFFFFFFFFFFFFFFFF DUP2 GT ISZERO PUSH2 0x7DF JUMPI PUSH2 0x7DE PUSH2 0x320 JUMP JUMPDEST JUMPDEST PUSH2 0x7E9 DUP3 SLOAD PUSH2 0x5ED JUMP JUMPDEST PUSH2 0x7F4 DUP3 DUP3 DUP6 PUSH2 0x734 JUMP JUMPDEST PUSH0 PUSH1 0x20 SWAP1 POP PUSH1 0x1F DUP4 GT PUSH1 0x1 DUP2 EQ PUSH2 0x825 JUMPI PUSH0 DUP5 ISZERO PUSH2 0x813 JUMPI DUP3 DUP8 ADD MLOAD SWAP1 POP JUMPDEST PUSH2 0x81D DUP6 DUP3 PUSH2 0x7A2 JUMP JUMPDEST DUP7 SSTORE POP PUSH2 0x884 JUMP JUMPDEST PUSH1 0x1F NOT DUP5 AND PUSH2 0x833 DUP7 PUSH2 0x61D JUMP JUMPDEST PUSH0 JUMPDEST DUP3 DUP2 LT ISZERO PUSH2 0x85A JUMPI DUP5 DUP10 ADD MLOAD DUP3 SSTORE PUSH1 0x1 DUP3 ADD SWAP2 POP PUSH1 0x20 DUP6 ADD SWAP5 POP PUSH1 0x20 DUP2 ADD SWAP1 POP PUSH2 0x835 JUMP JUMPDEST DUP7 DUP4 LT ISZERO PUSH2 0x877 JUMPI DUP5 DUP10 ADD MLOAD PUSH2 0x873 PUSH1 0x1F DUP10 AND DUP3 PUSH2 0x786 JUMP JUMPDEST DUP4 SSTORE POP JUMPDEST PUSH1 0x1 PUSH1 0x2 DUP9 MUL ADD DUP9 SSTORE POP POP POP JUMPDEST POP POP POP POP POP POP JUMP JUMPDEST PUSH0 PUSH2 0x896 DUP3 PUSH2 0x2C6 JUMP JUMPDEST SWAP2 POP PUSH2 0x8A1 DUP4 PUSH2 0x2C6 JUMP JUMPDEST SWAP3 POP DUP3 DUP3 MUL PUSH2 0x8AF DUP2 PUSH2 0x2C6 JUMP JUMPDEST SWAP2 POP DUP3 DUP3 DIV DUP5 EQ DUP4 ISZERO OR PUSH2 0x8C6 JUMPI PUSH2 0x8C5 PUSH2 0x560 JUMP JUMPDEST JUMPDEST POP SWAP3 SWAP2 POP POP JUMP INVALID LOG2 PUSH5 0x6970667358 0x22 SLT KECCAK256 0xBC OR CALLVALUE 0xAA 0x1F JUMPF 0x3CEB 0xBA PUSH24 0x7F06ADEA03906E4CFA167FA36C97B509C0AF149B91F76473 PUSH16 0x6C634300081E00330000000000000000 "
				},
				"gasEstimates": {
					"creation": {
						"codeDepositCost": "461400",
						"executionCost": "infinite",
						"totalCost": "infinite"
					},
					"external": {
						"": "194",
						"balance()": "2469",
						"getBalance()": "312",
						"getMessage()": "infinite",
						"pay()": "infinite",
						"rate(uint256)": "infinite",
						"setMessage(string)": "infinite"
					}
				},
				"methodIdentifiers": {
					"balance()": "b69ef8a8",
					"getBalance()": "12065fe0",
					"getMessage()": "ce6d41de",
					"pay()": "1b9265b8",
					"rate(uint256)": "e7ee6ad6",
					"setMessage(string)": "368b8772"
				}
			},
			"storageLayout": {
				"storage": [
					{
						"astId": 4,
						"contract": "SmartContracts/Urok2.sol:urok2",
						"label": "message",
						"offset": 0,
						"slot": "0",
						"type": "t_string_storage"
					},
					{
						"astId": 6,
						"contract": "SmartContracts/Urok2.sol:urok2",
						"label": "balance",
						"offset": 0,
						"slot": "1",
						"type": "t_uint256"
					}
				],
				"types": {
					"t_string_storage": {
						"encoding": "bytes",
						"label": "string",
						"numberOfBytes": "32"
					},
					"t_uint256": {
						"encoding": "inplace",
						"label": "uint256",
						"numberOfBytes": "32"
					}
				}
			},
			"userdoc": {
				"kind": "user",
				"methods": {},
				"version": 1
			}
		}
	}
}