{
	"SmartContracts/task_6.sol": {
		"urok2": {
			"abi": [
				{
					"inputs": [],
					"stateMutability": "nonpayable",
					"type": "constructor"
				},
				{
					"stateMutability": "payable",
					"type": "fallback"
				},
				{
					"inputs": [],
					"name": "getBalance",
					"outputs": [
						{
							"internalType": "uint256",
							"name": "",
							"type": "uint256"
						}
					],
					"stateMutability": "view",
					"type": "function"
				},
				{
					"inputs": [],
					"name": "getMessage",
					"outputs": [
						{
							"internalType": "string",
							"name": "",
							"type": "string"
						}
					],
					"stateMutability": "view",
					"type": "function"
				},
				{
					"inputs": [],
					"name": "owner",
					"outputs": [
						{
							"internalType": "address",
							"name": "",
							"type": "address"
						}
					],
					"stateMutability": "view",
					"type": "function"
				},
				{
					"inputs": [],
					"name": "pay",
					"outputs": [],
					"stateMutability": "payable",
					"type": "function"
				},
				{
					"inputs": [
						{
							"internalType": "uint256",
							"name": "amount",
							"type": "uint256"
						}
					],
					"name": "rate",
					"outputs": [
						{
							"internalType": "uint256",
							"name": "",
							"type": "uint256"
						}
					],
					"stateMutability": "pure",
					"type": "function"
				},
				{
					"inputs": [
						{
							"internalType": "address payable",
							"name": "_to",
							"type": "address"
						},
						{
							"internalType": "uint256",
							"name": "_amount",
							"type": "uint256"
						}
					],
					"name": "sendEther",
					"outputs": [],
					"stateMutability": "nonpayable",
					"type": "function"
				},
				{
					"inputs": [
						{
							"internalType": "string",
							"name": "newMessage",
							"type": "string"
						}
					],
					"name": "setMessage",
					"outputs": [],
					"stateMutability": "nonpayable",
					"type": "function"
				},
				{
					"stateMutability": "payable",
					"type": "receive"
				}
			],
			"devdoc": {
				"kind": "dev",
				"methods": {},
				"version": 1
			},
			"evm": {
				"assembly": "    /* \"SmartContracts/task_6.sol\":407:1829  contract urok2 {... */\n  mstore(0x40, 0x80)\n    /* \"SmartContracts/task_6.sol\":429:454  string message = \"hello!\" */\n  mload(0x40)\n  dup1\n  0x40\n  add\n  0x40\n  mstore\n  dup1\n  0x06\n  dup2\n  mstore\n  0x20\n  add\n  0x68656c6c6f210000000000000000000000000000000000000000000000000000\n  dup2\n  mstore\n  pop\n  0x00\n  swap1\n  dup2\n  tag_1\n  swap2\n  swap1\n  tag_2\n  jump\t// in\ntag_1:\n  pop\n    /* \"SmartContracts/task_6.sol\":576:627  constructor() {... */\n  callvalue\n  dup1\n  iszero\n  tag_3\n  jumpi\n  revert(0x00, 0x00)\ntag_3:\n  pop\n    /* \"SmartContracts/task_6.sol\":609:619  msg.sender */\n  caller\n    /* \"SmartContracts/task_6.sol\":601:606  owner */\n  0x01\n  0x00\n    /* \"SmartContracts/task_6.sol\":601:619  owner = msg.sender */\n  0x0100\n  exp\n  dup2\n  sload\n  dup2\n  0xffffffffffffffffffffffffffffffffffffffff\n  mul\n  not\n  and\n  swap1\n  dup4\n  0xffffffffffffffffffffffffffffffffffffffff\n  and\n  mul\n  or\n  swap1\n  sstore\n  pop\n    /* \"SmartContracts/task_6.sol\":407:1829  contract urok2 {... */\n  jump(tag_6)\n    /* \"#utility.yul\":7:106   */\ntag_7:\n    /* \"#utility.yul\":59:65   */\n  0x00\n    /* \"#utility.yul\":93:98   */\n  dup2\n    /* \"#utility.yul\":87:99   */\n  mload\n    /* \"#utility.yul\":77:99   */\n  swap1\n  pop\n    /* \"#utility.yul\":7:106   */\n  swap2\n  swap1\n  pop\n  jump\t// out\n    /* \"#utility.yul\":112:292   */\ntag_8:\n    /* \"#utility.yul\":160:237   */\n  0x4e487b7100000000000000000000000000000000000000000000000000000000\n    /* \"#utility.yul\":157:158   */\n  0x00\n    /* \"#utility.yul\":150:238   */\n  mstore\n    /* \"#utility.yul\":257:261   */\n  0x41\n    /* \"#utility.yul\":254:255   */\n  0x04\n    /* \"#utility.yul\":247:262   */\n  mstore\n    /* \"#utility.yul\":281:285   */\n  0x24\n    /* \"#utility.yul\":278:279   */\n  0x00\n    /* \"#utility.yul\":271:286   */\n  revert\n    /* \"#utility.yul\":298:478   */\ntag_9:\n    /* \"#utility.yul\":346:423   */\n  0x4e487b7100000000000000000000000000000000000000000000000000000000\n    /* \"#utility.yul\":343:344   */\n  0x00\n    /* \"#utility.yul\":336:424   */\n  mstore\n    /* \"#utility.yul\":443:447   */\n  0x22\n    /* \"#utility.yul\":440:441   */\n  0x04\n    /* \"#utility.yul\":433:448   */\n  mstore\n    /* \"#utility.yul\":467:471   */\n  0x24\n    /* \"#utility.yul\":464:465   */\n  0x00\n    /* \"#utility.yul\":457:472   */\n  revert\n    /* \"#utility.yul\":484:804   */\ntag_10:\n    /* \"#utility.yul\":528:534   */\n  0x00\n    /* \"#utility.yul\":565:566   */\n  0x02\n    /* \"#utility.yul\":559:563   */\n  dup3\n    /* \"#utility.yul\":555:567   */\n  div\n    /* \"#utility.yul\":545:567   */\n  swap1\n  pop\n    /* \"#utility.yul\":612:613   */\n  0x01\n    /* \"#utility.yul\":606:610   */\n  dup3\n    /* \"#utility.yul\":602:614   */\n  and\n    /* \"#utility.yul\":633:651   */\n  dup1\n    /* \"#utility.yul\":623:704   */\n  tag_32\n  jumpi\n    /* \"#utility.yul\":689:693   */\n  0x7f\n    /* \"#utility.yul\":681:687   */\n  dup3\n    /* \"#utility.yul\":677:694   */\n  and\n    /* \"#utility.yul\":667:694   */\n  swap2\n  pop\n    /* \"#utility.yul\":623:704   */\ntag_32:\n    /* \"#utility.yul\":751:753   */\n  0x20\n    /* \"#utility.yul\":743:749   */\n  dup3\n    /* \"#utility.yul\":740:754   */\n  lt\n    /* \"#utility.yul\":720:738   */\n  dup2\n    /* \"#utility.yul\":717:755   */\n  sub\n    /* \"#utility.yul\":714:798   */\n  tag_33\n  jumpi\n    /* \"#utility.yul\":770:788   */\n  tag_34\n  tag_9\n  jump\t// in\ntag_34:\n    /* \"#utility.yul\":714:798   */\ntag_33:\n    /* \"#utility.yul\":535:804   */\n  pop\n    /* \"#utility.yul\":484:804   */\n  swap2\n  swap1\n  pop\n  jump\t// out\n    /* \"#utility.yul\":810:951   */\ntag_11:\n    /* \"#utility.yul\":859:863   */\n  0x00\n    /* \"#utility.yul\":882:885   */\n  dup2\n    /* \"#utility.yul\":874:885   */\n  swap1\n  pop\n    /* \"#utility.yul\":905:908   */\n  dup2\n    /* \"#utility.yul\":902:903   */\n  0x00\n    /* \"#utility.yul\":895:909   */\n  mstore\n    /* \"#utility.yul\":939:943   */\n  0x20\n    /* \"#utility.yul\":936:937   */\n  0x00\n    /* \"#utility.yul\":926:944   */\n  keccak256\n    /* \"#utility.yul\":918:944   */\n  swap1\n  pop\n    /* \"#utility.yul\":810:951   */\n  swap2\n  swap1\n  pop\n  jump\t// out\n    /* \"#utility.yul\":957:1050   */\ntag_12:\n    /* \"#utility.yul\":994:1000   */\n  0x00\n    /* \"#utility.yul\":1041:1043   */\n  0x20\n    /* \"#utility.yul\":1036:1038   */\n  0x1f\n    /* \"#utility.yul\":1029:1034   */\n  dup4\n    /* \"#utility.yul\":1025:1039   */\n  add\n    /* \"#utility.yul\":1021:1044   */\n  div\n    /* \"#utility.yul\":1011:1044   */\n  swap1\n  pop\n    /* \"#utility.yul\":957:1050   */\n  swap2\n  swap1\n  pop\n  jump\t// out\n    /* \"#utility.yul\":1056:1163   */\ntag_13:\n    /* \"#utility.yul\":1100:1108   */\n  0x00\n    /* \"#utility.yul\":1150:1155   */\n  dup3\n    /* \"#utility.yul\":1144:1148   */\n  dup3\n    /* \"#utility.yul\":1140:1156   */\n  shl\n    /* \"#utility.yul\":1119:1156   */\n  swap1\n  pop\n    /* \"#utility.yul\":1056:1163   */\n  swap3\n  swap2\n  pop\n  pop\n  jump\t// out\n    /* \"#utility.yul\":1169:1562   */\ntag_14:\n    /* \"#utility.yul\":1238:1244   */\n  0x00\n    /* \"#utility.yul\":1288:1289   */\n  0x08\n    /* \"#utility.yul\":1276:1286   */\n  dup4\n    /* \"#utility.yul\":1272:1290   */\n  mul\n    /* \"#utility.yul\":1311:1408   */\n  tag_39\n    /* \"#utility.yul\":1341:1407   */\n  0xffffffffffffffffffffffffffffffffffffffffffffffffffffffffffffffff\n    /* \"#utility.yul\":1330:1339   */\n  dup3\n    /* \"#utility.yul\":1311:1408   */\n  tag_13\n  jump\t// in\ntag_39:\n    /* \"#utility.yul\":1429:1468   */\n  tag_40\n    /* \"#utility.yul\":1459:1467   */\n  dup7\n    /* \"#utility.yul\":1448:1457   */\n  dup4\n    /* \"#utility.yul\":1429:1468   */\n  tag_13\n  jump\t// in\ntag_40:\n    /* \"#utility.yul\":1417:1468   */\n  swap6\n  pop\n    /* \"#utility.yul\":1501:1505   */\n  dup1\n    /* \"#utility.yul\":1497:1506   */\n  not\n    /* \"#utility.yul\":1490:1495   */\n  dup5\n    /* \"#utility.yul\":1486:1507   */\n  and\n    /* \"#utility.yul\":1477:1507   */\n  swap4\n  pop\n    /* \"#utility.yul\":1550:1554   */\n  dup1\n    /* \"#utility.yul\":1540:1548   */\n  dup7\n    /* \"#utility.yul\":1536:1555   */\n  and\n    /* \"#utility.yul\":1529:1534   */\n  dup5\n    /* \"#utility.yul\":1526:1556   */\n  or\n    /* \"#utility.yul\":1516:1556   */\n  swap3\n  pop\n    /* \"#utility.yul\":1245:1562   */\n  pop\n  pop\n    /* \"#utility.yul\":1169:1562   */\n  swap4\n  swap3\n  pop\n  pop\n  pop\n  jump\t// out\n    /* \"#utility.yul\":1568:1645   */\ntag_15:\n    /* \"#utility.yul\":1605:1612   */\n  0x00\n    /* \"#utility.yul\":1634:1639   */\n  dup2\n    /* \"#utility.yul\":1623:1639   */\n  swap1\n  pop\n    /* \"#utility.yul\":1568:1645   */\n  swap2\n  swap1\n  pop\n  jump\t// out\n    /* \"#utility.yul\":1651:1711   */\ntag_16:\n    /* \"#utility.yul\":1679:1682   */\n  0x00\n    /* \"#utility.yul\":1700:1705   */\n  dup2\n    /* \"#utility.yul\":1693:1705   */\n  swap1\n  pop\n    /* \"#utility.yul\":1651:1711   */\n  swap2\n  swap1\n  pop\n  jump\t// out\n    /* \"#utility.yul\":1717:1859   */\ntag_17:\n    /* \"#utility.yul\":1767:1776   */\n  0x00\n    /* \"#utility.yul\":1800:1853   */\n  tag_44\n    /* \"#utility.yul\":1818:1852   */\n  tag_45\n    /* \"#utility.yul\":1827:1851   */\n  tag_46\n    /* \"#utility.yul\":1845:1850   */\n  dup5\n    /* \"#utility.yul\":1827:1851   */\n  tag_15\n  jump\t// in\ntag_46:\n    /* \"#utility.yul\":1818:1852   */\n  tag_16\n  jump\t// in\ntag_45:\n    /* \"#utility.yul\":1800:1853   */\n  tag_15\n  jump\t// in\ntag_44:\n    /* \"#utility.yul\":1787:1853   */\n  swap1\n  pop\n    /* \"#utility.yul\":1717:1859   */\n  swap2\n  swap1\n  pop\n  jump\t// out\n    /* \"#utility.yul\":1865:1940   */\ntag_18:\n    /* \"#utility.yul\":1908:1911   */\n  0x00\n    /* \"#utility.yul\":1929:1934   */\n  dup2\n    /* \"#utility.yul\":1922:1934   */\n  swap1\n  pop\n    /* \"#utility.yul\":1865:1940   */\n  swap2\n  swap1\n  pop\n  jump\t// out\n    /* \"#utility.yul\":1946:2215   */\ntag_19:\n    /* \"#utility.yul\":2056:2095   */\n  tag_49\n    /* \"#utility.yul\":2087:2094   */\n  dup4\n    /* \"#utility.yul\":2056:2095   */\n  tag_17\n  jump\t// in\ntag_49:\n    /* \"#utility.yul\":2117:2208   */\n  tag_50\n    /* \"#utility.yul\":2166:2207   */\n  tag_51\n    /* \"#utility.yul\":2190:2206   */\n  dup3\n    /* \"#utility.yul\":2166:2207   */\n  tag_18\n  jump\t// in\ntag_51:\n    /* \"#utility.yul\":2158:2164   */\n  dup5\n    /* \"#utility.yul\":2151:2155   */\n  dup5\n    /* \"#utility.yul\":2145:2156   */\n  sload\n    /* \"#utility.yul\":2117:2208   */\n  tag_14\n  jump\t// in\ntag_50:\n    /* \"#utility.yul\":2111:2115   */\n  dup3\n    /* \"#utility.yul\":2104:2209   */\n  sstore\n    /* \"#utility.yul\":2022:2215   */\n  pop\n    /* \"#utility.yul\":1946:2215   */\n  pop\n  pop\n  pop\n  jump\t// out\n    /* \"#utility.yul\":2221:2294   */\ntag_20:\n    /* \"#utility.yul\":2266:2269   */\n  0x00\n    /* \"#utility.yul\":2287:2288   */\n  0x00\n    /* \"#utility.yul\":2280:2288   */\n  swap1\n  pop\n    /* \"#utility.yul\":2221:2294   */\n  swap1\n  jump\t// out\n    /* \"#utility.yul\":2300:2489   */\ntag_21:\n    /* \"#utility.yul\":2377:2409   */\n  tag_54\n  tag_20\n  jump\t// in\ntag_54:\n    /* \"#utility.yul\":2418:2483   */\n  tag_55\n    /* \"#utility.yul\":2476:2482   */\n  dup2\n    /* \"#utility.yul\":2468:2474   */\n  dup5\n    /* \"#utility.yul\":2462:2466   */\n  dup5\n    /* \"#utility.yul\":2418:2483   */\n  tag_19\n  jump\t// in\ntag_55:\n    /* \"#utility.yul\":2353:2489   */\n  pop\n    /* \"#utility.yul\":2300:2489   */\n  pop\n  pop\n  jump\t// out\n    /* \"#utility.yul\":2495:2681   */\ntag_22:\n    /* \"#utility.yul\":2555:2675   */\ntag_57:\n    /* \"#utility.yul\":2572:2575   */\n  dup2\n    /* \"#utility.yul\":2565:2570   */\n  dup2\n    /* \"#utility.yul\":2562:2576   */\n  lt\n    /* \"#utility.yul\":2555:2675   */\n  iszero\n  tag_59\n  jumpi\n    /* \"#utility.yul\":2626:2665   */\n  tag_60\n    /* \"#utility.yul\":2663:2664   */\n  0x00\n    /* \"#utility.yul\":2656:2661   */\n  dup3\n    /* \"#utility.yul\":2626:2665   */\n  tag_21\n  jump\t// in\ntag_60:\n    /* \"#utility.yul\":2599:2600   */\n  0x01\n    /* \"#utility.yul\":2592:2597   */\n  dup2\n    /* \"#utility.yul\":2588:2601   */\n  add\n    /* \"#utility.yul\":2579:2601   */\n  swap1\n  pop\n    /* \"#utility.yul\":2555:2675   */\n  jump(tag_57)\ntag_59:\n    /* \"#utility.yul\":2495:2681   */\n  pop\n  pop\n  jump\t// out\n    /* \"#utility.yul\":2687:3230   */\ntag_23:\n    /* \"#utility.yul\":2788:2790   */\n  0x1f\n    /* \"#utility.yul\":2783:2786   */\n  dup3\n    /* \"#utility.yul\":2780:2791   */\n  gt\n    /* \"#utility.yul\":2777:3223   */\n  iszero\n  tag_62\n  jumpi\n    /* \"#utility.yul\":2822:2860   */\n  tag_63\n    /* \"#utility.yul\":2854:2859   */\n  dup2\n    /* \"#utility.yul\":2822:2860   */\n  tag_11\n  jump\t// in\ntag_63:\n    /* \"#utility.yul\":2906:2935   */\n  tag_64\n    /* \"#utility.yul\":2924:2934   */\n  dup5\n    /* \"#utility.yul\":2906:2935   */\n  tag_12\n  jump\t// in\ntag_64:\n    /* \"#utility.yul\":2896:2904   */\n  dup2\n    /* \"#utility.yul\":2892:2936   */\n  add\n    /* \"#utility.yul\":3089:3091   */\n  0x20\n    /* \"#utility.yul\":3077:3087   */\n  dup6\n    /* \"#utility.yul\":3074:3092   */\n  lt\n    /* \"#utility.yul\":3071:3120   */\n  iszero\n  tag_65\n  jumpi\n    /* \"#utility.yul\":3110:3118   */\n  dup2\n    /* \"#utility.yul\":3095:3118   */\n  swap1\n  pop\n    /* \"#utility.yul\":3071:3120   */\ntag_65:\n    /* \"#utility.yul\":3133:3213   */\n  tag_66\n    /* \"#utility.yul\":3189:3211   */\n  tag_67\n    /* \"#utility.yul\":3207:3210   */\n  dup6\n    /* \"#utility.yul\":3189:3211   */\n  tag_12\n  jump\t// in\ntag_67:\n    /* \"#utility.yul\":3179:3187   */\n  dup4\n    /* \"#utility.yul\":3175:3212   */\n  add\n    /* \"#utility.yul\":3162:3173   */\n  dup3\n    /* \"#utility.yul\":3133:3213   */\n  tag_22\n  jump\t// in\ntag_66:\n    /* \"#utility.yul\":2792:3223   */\n  pop\n  pop\n    /* \"#utility.yul\":2777:3223   */\ntag_62:\n    /* \"#utility.yul\":2687:3230   */\n  pop\n  pop\n  pop\n  jump\t// out\n    /* \"#utility.yul\":3236:3353   */\ntag_24:\n    /* \"#utility.yul\":3290:3298   */\n  0x00\n    /* \"#utility.yul\":3340:3345   */\n  dup3\n    /* \"#utility.yul\":3334:3338   */\n  dup3\n    /* \"#utility.yul\":3330:3346   */\n  shr\n    /* \"#utility.yul\":3309:3346   */\n  swap1\n  pop\n    /* \"#utility.yul\":3236:3353   */\n  swap3\n  swap2\n  pop\n  pop\n  jump\t// out\n    /* \"#utility.yul\":3359:3528   */\ntag_25:\n    /* \"#utility.yul\":3403:3409   */\n  0x00\n    /* \"#utility.yul\":3436:3487   */\n  tag_70\n    /* \"#utility.yul\":3484:3485   */\n  0x00\n    /* \"#utility.yul\":3480:3486   */\n  not\n    /* \"#utility.yul\":3472:3477   */\n  dup5\n    /* \"#utility.yul\":3469:3470   */\n  0x08\n    /* \"#utility.yul\":3465:3478   */\n  mul\n    /* \"#utility.yul\":3436:3487   */\n  tag_24\n  jump\t// in\ntag_70:\n    /* \"#utility.yul\":3432:3488   */\n  not\n    /* \"#utility.yul\":3517:3521   */\n  dup1\n    /* \"#utility.yul\":3511:3515   */\n  dup4\n    /* \"#utility.yul\":3507:3522   */\n  and\n    /* \"#utility.yul\":3497:3522   */\n  swap2\n  pop\n    /* \"#utility.yul\":3410:3528   */\n  pop\n    /* \"#utility.yul\":3359:3528   */\n  swap3\n  swap2\n  pop\n  pop\n  jump\t// out\n    /* \"#utility.yul\":3533:3828   */\ntag_26:\n    /* \"#utility.yul\":3609:3613   */\n  0x00\n    /* \"#utility.yul\":3755:3784   */\n  tag_72\n    /* \"#utility.yul\":3780:3783   */\n  dup4\n    /* \"#utility.yul\":3774:3778   */\n  dup4\n    /* \"#utility.yul\":3755:3784   */\n  tag_25\n  jump\t// in\ntag_72:\n    /* \"#utility.yul\":3747:3784   */\n  swap2\n  pop\n    /* \"#utility.yul\":3817:3820   */\n  dup3\n    /* \"#utility.yul\":3814:3815   */\n  0x02\n    /* \"#utility.yul\":3810:3821   */\n  mul\n    /* \"#utility.yul\":3804:3808   */\n  dup3\n    /* \"#utility.yul\":3801:3822   */\n  or\n    /* \"#utility.yul\":3793:3822   */\n  swap1\n  pop\n    /* \"#utility.yul\":3533:3828   */\n  swap3\n  swap2\n  pop\n  pop\n  jump\t// out\n    /* \"#utility.yul\":3833:5228   */\ntag_2:\n    /* \"#utility.yul\":3950:3987   */\n  tag_74\n    /* \"#utility.yul\":3983:3986   */\n  dup3\n    /* \"#utility.yul\":3950:3987   */\n  tag_7\n  jump\t// in\ntag_74:\n    /* \"#utility.yul\":4052:4070   */\n  0xffffffffffffffff\n    /* \"#utility.yul\":4044:4050   */\n  dup2\n    /* \"#utility.yul\":4041:4071   */\n  gt\n    /* \"#utility.yul\":4038:4094   */\n  iszero\n  tag_75\n  jumpi\n    /* \"#utility.yul\":4074:4092   */\n  tag_76\n  tag_8\n  jump\t// in\ntag_76:\n    /* \"#utility.yul\":4038:4094   */\ntag_75:\n    /* \"#utility.yul\":4118:4156   */\n  tag_77\n    /* \"#utility.yul\":4150:4154   */\n  dup3\n    /* \"#utility.yul\":4144:4155   */\n  sload\n    /* \"#utility.yul\":4118:4156   */\n  tag_10\n  jump\t// in\ntag_77:\n    /* \"#utility.yul\":4203:4270   */\n  tag_78\n    /* \"#utility.yul\":4263:4269   */\n  dup3\n    /* \"#utility.yul\":4255:4261   */\n  dup3\n    /* \"#utility.yul\":4249:4253   */\n  dup6\n    /* \"#utility.yul\":4203:4270   */\n  tag_23\n  jump\t// in\ntag_78:\n    /* \"#utility.yul\":4297:4298   */\n  0x00\n    /* \"#utility.yul\":4321:4325   */\n  0x20\n    /* \"#utility.yul\":4308:4325   */\n  swap1\n  pop\n    /* \"#utility.yul\":4353:4355   */\n  0x1f\n    /* \"#utility.yul\":4345:4351   */\n  dup4\n    /* \"#utility.yul\":4342:4356   */\n  gt\n    /* \"#utility.yul\":4370:4371   */\n  0x01\n    /* \"#utility.yul\":4365:4983   */\n  dup2\n  eq\n  tag_80\n  jumpi\n    /* \"#utility.yul\":5027:5028   */\n  0x00\n    /* \"#utility.yul\":5044:5050   */\n  dup5\n    /* \"#utility.yul\":5041:5118   */\n  iszero\n  tag_81\n  jumpi\n    /* \"#utility.yul\":5093:5102   */\n  dup3\n    /* \"#utility.yul\":5088:5091   */\n  dup8\n    /* \"#utility.yul\":5084:5103   */\n  add\n    /* \"#utility.yul\":5078:5104   */\n  mload\n    /* \"#utility.yul\":5069:5104   */\n  swap1\n  pop\n    /* \"#utility.yul\":5041:5118   */\ntag_81:\n    /* \"#utility.yul\":5144:5211   */\n  tag_82\n    /* \"#utility.yul\":5204:5210   */\n  dup6\n    /* \"#utility.yul\":5197:5202   */\n  dup3\n    /* \"#utility.yul\":5144:5211   */\n  tag_26\n  jump\t// in\ntag_82:\n    /* \"#utility.yul\":5138:5142   */\n  dup7\n    /* \"#utility.yul\":5131:5212   */\n  sstore\n    /* \"#utility.yul\":5000:5222   */\n  pop\n    /* \"#utility.yul\":4335:5222   */\n  jump(tag_79)\n    /* \"#utility.yul\":4365:4983   */\ntag_80:\n    /* \"#utility.yul\":4417:4421   */\n  0x1f\n    /* \"#utility.yul\":4413:4422   */\n  not\n    /* \"#utility.yul\":4405:4411   */\n  dup5\n    /* \"#utility.yul\":4401:4423   */\n  and\n    /* \"#utility.yul\":4451:4488   */\n  tag_83\n    /* \"#utility.yul\":4483:4487   */\n  dup7\n    /* \"#utility.yul\":4451:4488   */\n  tag_11\n  jump\t// in\ntag_83:\n    /* \"#utility.yul\":4510:4511   */\n  0x00\n    /* \"#utility.yul\":4524:4732   */\ntag_84:\n    /* \"#utility.yul\":4538:4545   */\n  dup3\n    /* \"#utility.yul\":4535:4536   */\n  dup2\n    /* \"#utility.yul\":4532:4546   */\n  lt\n    /* \"#utility.yul\":4524:4732   */\n  iszero\n  tag_86\n  jumpi\n    /* \"#utility.yul\":4617:4626   */\n  dup5\n    /* \"#utility.yul\":4612:4615   */\n  dup10\n    /* \"#utility.yul\":4608:4627   */\n  add\n    /* \"#utility.yul\":4602:4628   */\n  mload\n    /* \"#utility.yul\":4594:4600   */\n  dup3\n    /* \"#utility.yul\":4587:4629   */\n  sstore\n    /* \"#utility.yul\":4668:4669   */\n  0x01\n    /* \"#utility.yul\":4660:4666   */\n  dup3\n    /* \"#utility.yul\":4656:4670   */\n  add\n    /* \"#utility.yul\":4646:4670   */\n  swap2\n  pop\n    /* \"#utility.yul\":4715:4717   */\n  0x20\n    /* \"#utility.yul\":4704:4713   */\n  dup6\n    /* \"#utility.yul\":4700:4718   */\n  add\n    /* \"#utility.yul\":4687:4718   */\n  swap5\n  pop\n    /* \"#utility.yul\":4561:4565   */\n  0x20\n    /* \"#utility.yul\":4558:4559   */\n  dup2\n    /* \"#utility.yul\":4554:4566   */\n  add\n    /* \"#utility.yul\":4549:4566   */\n  swap1\n  pop\n    /* \"#utility.yul\":4524:4732   */\n  jump(tag_84)\ntag_86:\n    /* \"#utility.yul\":4760:4766   */\n  dup7\n    /* \"#utility.yul\":4751:4758   */\n  dup4\n    /* \"#utility.yul\":4748:4767   */\n  lt\n    /* \"#utility.yul\":4745:4924   */\n  iszero\n  tag_87\n  jumpi\n    /* \"#utility.yul\":4818:4827   */\n  dup5\n    /* \"#utility.yul\":4813:4816   */\n  dup10\n    /* \"#utility.yul\":4809:4828   */\n  add\n    /* \"#utility.yul\":4803:4829   */\n  mload\n    /* \"#utility.yul\":4861:4909   */\n  tag_88\n    /* \"#utility.yul\":4903:4907   */\n  0x1f\n    /* \"#utility.yul\":4895:4901   */\n  dup10\n    /* \"#utility.yul\":4891:4908   */\n  and\n    /* \"#utility.yul\":4880:4889   */\n  dup3\n    /* \"#utility.yul\":4861:4909   */\n  tag_25\n  jump\t// in\ntag_88:\n    /* \"#utility.yul\":4853:4859   */\n  dup4\n    /* \"#utility.yul\":4846:4910   */\n  sstore\n    /* \"#utility.yul\":4768:4924   */\n  pop\n    /* \"#utility.yul\":4745:4924   */\ntag_87:\n    /* \"#utility.yul\":4970:4971   */\n  0x01\n    /* \"#utility.yul\":4966:4967   */\n  0x02\n    /* \"#utility.yul\":4958:4964   */\n  dup9\n    /* \"#utility.yul\":4954:4968   */\n  mul\n    /* \"#utility.yul\":4950:4972   */\n  add\n    /* \"#utility.yul\":4944:4948   */\n  dup9\n    /* \"#utility.yul\":4937:4973   */\n  sstore\n    /* \"#utility.yul\":4372:4983   */\n  pop\n  pop\n  pop\n    /* \"#utility.yul\":4335:5222   */\ntag_79:\n  pop\n    /* \"#utility.yul\":3925:5228   */\n  pop\n  pop\n  pop\n    /* \"#utility.yul\":3833:5228   */\n  pop\n  pop\n  jump\t// out\n    /* \"SmartContracts/task_6.sol\":407:1829  contract urok2 {... */\ntag_6:\n  dataSize(sub_0)\n  dup1\n  dataOffset(sub_0)\n  0x00\n  codecopy\n  0x00\n  return\nstop\n\nsub_0: assembly {\n        /* \"SmartContracts/task_6.sol\":407:1829  contract urok2 {... */\n      mstore(0x40, 0x80)\n      jumpi(tag_1, lt(calldatasize, 0x04))\n      shr(0xe0, calldataload(0x00))\n      dup1\n      0x8da5cb5b\n      gt\n      tag_10\n      jumpi\n      dup1\n      0x8da5cb5b\n      eq\n      tag_6\n      jumpi\n      dup1\n      0xc1756a2c\n      eq\n      tag_7\n      jumpi\n      dup1\n      0xce6d41de\n      eq\n      tag_8\n      jumpi\n      dup1\n      0xe7ee6ad6\n      eq\n      tag_9\n      jumpi\n      jump(tag_2)\n    tag_10:\n      dup1\n      0x12065fe0\n      eq\n      tag_3\n      jumpi\n      dup1\n      0x1b9265b8\n      eq\n      tag_4\n      jumpi\n      dup1\n      0x368b8772\n      eq\n      tag_5\n      jumpi\n      jump(tag_2)\n    tag_1:\n    tag_2:\n      stop\n        /* \"SmartContracts/task_6.sol\":860:955  function getBalance() public view returns(uint) {... */\n    tag_3:\n      callvalue\n      dup1\n      iszero\n      tag_15\n      jumpi\n      revert(0x00, 0x00)\n    tag_15:\n      pop\n      tag_16\n      tag_17\n      jump\t// in\n    tag_16:\n      mload(0x40)\n      tag_18\n      swap2\n      swap1\n      tag_19\n      jump\t// in\n    tag_18:\n      mload(0x40)\n      dup1\n      swap2\n      sub\n      swap1\n      return\n        /* \"SmartContracts/task_6.sol\":712:746  function pay() external payable {} */\n    tag_4:\n      tag_20\n      tag_21\n      jump\t// in\n    tag_20:\n      stop\n        /* \"SmartContracts/task_6.sol\":758:852  function setMessage(string memory newMessage) external {... */\n    tag_5:\n      callvalue\n      dup1\n      iszero\n      tag_22\n      jumpi\n      revert(0x00, 0x00)\n    tag_22:\n      pop\n      tag_23\n      0x04\n      dup1\n      calldatasize\n      sub\n      dup2\n      add\n      swap1\n      tag_24\n      swap2\n      swap1\n      tag_25\n      jump\t// in\n    tag_24:\n      tag_26\n      jump\t// in\n    tag_23:\n      stop\n        /* \"SmartContracts/task_6.sol\":547:567  address public owner */\n    tag_6:\n      callvalue\n      dup1\n      iszero\n      tag_27\n      jumpi\n      revert(0x00, 0x00)\n    tag_27:\n      pop\n      tag_28\n      tag_29\n      jump\t// in\n    tag_28:\n      mload(0x40)\n      tag_30\n      swap2\n      swap1\n      tag_31\n      jump\t// in\n    tag_30:\n      mload(0x40)\n      dup1\n      swap2\n      sub\n      swap1\n      return\n        /* \"SmartContracts/task_6.sol\":1160:1826  function sendEther(address payable _to, uint _amount) external {... */\n    tag_7:\n      callvalue\n      dup1\n      iszero\n      tag_32\n      jumpi\n      revert(0x00, 0x00)\n    tag_32:\n      pop\n      tag_33\n      0x04\n      dup1\n      calldatasize\n      sub\n      dup2\n      add\n      swap1\n      tag_34\n      swap2\n      swap1\n      tag_35\n      jump\t// in\n    tag_34:\n      tag_36\n      jump\t// in\n    tag_33:\n      stop\n        /* \"SmartContracts/task_6.sol\":963:1055  function getMessage() external view returns(string memory) {... */\n    tag_8:\n      callvalue\n      dup1\n      iszero\n      tag_37\n      jumpi\n      revert(0x00, 0x00)\n    tag_37:\n      pop\n      tag_38\n      tag_39\n      jump\t// in\n    tag_38:\n      mload(0x40)\n      tag_40\n      swap2\n      swap1\n      tag_41\n      jump\t// in\n    tag_40:\n      mload(0x40)\n      dup1\n      swap2\n      sub\n      swap1\n      return\n        /* \"SmartContracts/task_6.sol\":1063:1152  function rate(uint amount) public pure returns(uint) {... */\n    tag_9:\n      callvalue\n      dup1\n      iszero\n      tag_42\n      jumpi\n      revert(0x00, 0x00)\n    tag_42:\n      pop\n      tag_43\n      0x04\n      dup1\n      calldatasize\n      sub\n      dup2\n      add\n      swap1\n      tag_44\n      swap2\n      swap1\n      tag_45\n      jump\t// in\n    tag_44:\n      tag_46\n      jump\t// in\n    tag_43:\n      mload(0x40)\n      tag_47\n      swap2\n      swap1\n      tag_19\n      jump\t// in\n    tag_47:\n      mload(0x40)\n      dup1\n      swap2\n      sub\n      swap1\n      return\n        /* \"SmartContracts/task_6.sol\":860:955  function getBalance() public view returns(uint) {... */\n    tag_17:\n        /* \"SmartContracts/task_6.sol\":902:906  uint */\n      0x00\n        /* \"SmartContracts/task_6.sol\":926:947  address(this).balance */\n      selfbalance\n        /* \"SmartContracts/task_6.sol\":919:947  return address(this).balance */\n      swap1\n      pop\n        /* \"SmartContracts/task_6.sol\":860:955  function getBalance() public view returns(uint) {... */\n      swap1\n      jump\t// out\n        /* \"SmartContracts/task_6.sol\":712:746  function pay() external payable {} */\n    tag_21:\n      jump\t// out\n        /* \"SmartContracts/task_6.sol\":758:852  function setMessage(string memory newMessage) external {... */\n    tag_26:\n        /* \"SmartContracts/task_6.sol\":834:844  newMessage */\n      dup1\n        /* \"SmartContracts/task_6.sol\":824:831  message */\n      0x00\n        /* \"SmartContracts/task_6.sol\":824:844  message = newMessage */\n      swap1\n      dup2\n      tag_51\n      swap2\n      swap1\n      tag_52\n      jump\t// in\n    tag_51:\n      pop\n        /* \"SmartContracts/task_6.sol\":758:852  function setMessage(string memory newMessage) external {... */\n      pop\n      jump\t// out\n        /* \"SmartContracts/task_6.sol\":547:567  address public owner */\n    tag_29:\n      0x01\n      0x00\n      swap1\n      sload\n      swap1\n      0x0100\n      exp\n      swap1\n      div\n      0xffffffffffffffffffffffffffffffffffffffff\n      and\n      dup2\n      jump\t// out\n        /* \"SmartContracts/task_6.sol\":1160:1826  function sendEther(address payable _to, uint _amount) external {... */\n    tag_36:\n        /* \"SmartContracts/task_6.sol\":1417:1424  _amount */\n      dup1\n        /* \"SmartContracts/task_6.sol\":1392:1413  address(this).balance */\n      selfbalance\n        /* \"SmartContracts/task_6.sol\":1392:1424  address(this).balance >= _amount */\n      lt\n      iszero\n        /* \"SmartContracts/task_6.sol\":1384:1449  require(address(this).balance >= _amount, \"Insufficient balance\") */\n      tag_54\n      jumpi\n      mload(0x40)\n      0x08c379a000000000000000000000000000000000000000000000000000000000\n      dup2\n      mstore\n      0x04\n      add\n      tag_55\n      swap1\n      tag_56\n      jump\t// in\n    tag_55:\n      mload(0x40)\n      dup1\n      swap2\n      sub\n      swap1\n      revert\n    tag_54:\n        /* \"SmartContracts/task_6.sol\":1508:1520  bool success */\n      0x00\n        /* \"SmartContracts/task_6.sol\":1526:1529  _to */\n      dup3\n        /* \"SmartContracts/task_6.sol\":1526:1534  _to.call */\n      0xffffffffffffffffffffffffffffffffffffffff\n      and\n        /* \"SmartContracts/task_6.sol\":1542:1549  _amount */\n      dup3\n        /* \"SmartContracts/task_6.sol\":1526:1554  _to.call{value: _amount}(\"\") */\n      mload(0x40)\n      tag_57\n      swap1\n      tag_58\n      jump\t// in\n    tag_57:\n      0x00\n      mload(0x40)\n      dup1\n      dup4\n      sub\n      dup2\n      dup6\n      dup8\n      gas\n      call\n      swap3\n      pop\n      pop\n      pop\n      returndatasize\n      dup1\n      0x00\n      dup2\n      eq\n      tag_61\n      jumpi\n      mload(0x40)\n      swap2\n      pop\n      and(add(returndatasize, 0x3f), not(0x1f))\n      dup3\n      add\n      0x40\n      mstore\n      returndatasize\n      dup3\n      mstore\n      returndatasize\n      0x00\n      0x20\n      dup5\n      add\n      returndatacopy\n      jump(tag_60)\n    tag_61:\n      0x60\n      swap2\n      pop\n    tag_60:\n      pop\n        /* \"SmartContracts/task_6.sol\":1507:1554  (bool success, ) = _to.call{value: _amount}(\"\") */\n      pop\n      swap1\n      pop\n        /* \"SmartContracts/task_6.sol\":1645:1652  success */\n      dup1\n        /* \"SmartContracts/task_6.sol\":1637:1672  require(success, \"Transfer failed\") */\n      tag_62\n      jumpi\n      mload(0x40)\n      0x08c379a000000000000000000000000000000000000000000000000000000000\n      dup2\n      mstore\n      0x04\n      add\n      tag_63\n      swap1\n      tag_64\n      jump\t// in\n    tag_63:\n      mload(0x40)\n      dup1\n      swap2\n      sub\n      swap1\n      revert\n    tag_62:\n        /* \"SmartContracts/task_6.sol\":1796:1801  owner */\n      0x01\n      0x00\n      swap1\n      sload\n      swap1\n      0x0100\n      exp\n      swap1\n      div\n      0xffffffffffffffffffffffffffffffffffffffff\n      and\n        /* \"SmartContracts/task_6.sol\":1782:1801  msg.sender == owner */\n      0xffffffffffffffffffffffffffffffffffffffff\n      and\n        /* \"SmartContracts/task_6.sol\":1782:1792  msg.sender */\n      caller\n        /* \"SmartContracts/task_6.sol\":1782:1801  msg.sender == owner */\n      0xffffffffffffffffffffffffffffffffffffffff\n      and\n      eq\n        /* \"SmartContracts/task_6.sol\":1774:1818  require(msg.sender == owner, \"Not an owner\") */\n      tag_65\n      jumpi\n      mload(0x40)\n      0x08c379a000000000000000000000000000000000000000000000000000000000\n      dup2\n      mstore\n      0x04\n      add\n      tag_66\n      swap1\n      tag_67\n      jump\t// in\n    tag_66:\n      mload(0x40)\n      dup1\n      swap2\n      sub\n      swap1\n      revert\n    tag_65:\n        /* \"SmartContracts/task_6.sol\":1223:1826  {... */\n      pop\n        /* \"SmartContracts/task_6.sol\":1160:1826  function sendEther(address payable _to, uint _amount) external {... */\n      pop\n      pop\n      jump\t// out\n        /* \"SmartContracts/task_6.sol\":963:1055  function getMessage() external view returns(string memory) {... */\n    tag_39:\n        /* \"SmartContracts/task_6.sol\":1007:1020  string memory */\n      0x60\n        /* \"SmartContracts/task_6.sol\":1040:1047  message */\n      0x00\n        /* \"SmartContracts/task_6.sol\":1033:1047  return message */\n      dup1\n      sload\n      tag_69\n      swap1\n      tag_70\n      jump\t// in\n    tag_69:\n      dup1\n      0x1f\n      add\n      0x20\n      dup1\n      swap2\n      div\n      mul\n      0x20\n      add\n      mload(0x40)\n      swap1\n      dup2\n      add\n      0x40\n      mstore\n      dup1\n      swap3\n      swap2\n      swap1\n      dup2\n      dup2\n      mstore\n      0x20\n      add\n      dup3\n      dup1\n      sload\n      tag_71\n      swap1\n      tag_70\n      jump\t// in\n    tag_71:\n      dup1\n      iszero\n      tag_72\n      jumpi\n      dup1\n      0x1f\n      lt\n      tag_73\n      jumpi\n      0x0100\n      dup1\n      dup4\n      sload\n      div\n      mul\n      dup4\n      mstore\n      swap2\n      0x20\n      add\n      swap2\n      jump(tag_72)\n    tag_73:\n      dup3\n      add\n      swap2\n      swap1\n      0x00\n      mstore\n      keccak256(0x00, 0x20)\n      swap1\n    tag_74:\n      dup2\n      sload\n      dup2\n      mstore\n      swap1\n      0x01\n      add\n      swap1\n      0x20\n      add\n      dup1\n      dup4\n      gt\n      tag_74\n      jumpi\n      dup3\n      swap1\n      sub\n      0x1f\n      and\n      dup3\n      add\n      swap2\n    tag_72:\n      pop\n      pop\n      pop\n      pop\n      pop\n      swap1\n      pop\n        /* \"SmartContracts/task_6.sol\":963:1055  function getMessage() external view returns(string memory) {... */\n      swap1\n      jump\t// out\n        /* \"SmartContracts/task_6.sol\":1063:1152  function rate(uint amount) public pure returns(uint) {... */\n    tag_46:\n        /* \"SmartContracts/task_6.sol\":1110:1114  uint */\n      0x00\n        /* \"SmartContracts/task_6.sol\":1143:1144  3 */\n      0x03\n        /* \"SmartContracts/task_6.sol\":1134:1140  amount */\n      dup3\n        /* \"SmartContracts/task_6.sol\":1134:1144  amount * 3 */\n      tag_76\n      swap2\n      swap1\n      tag_77\n      jump\t// in\n    tag_76:\n        /* \"SmartContracts/task_6.sol\":1127:1144  return amount * 3 */\n      swap1\n      pop\n        /* \"SmartContracts/task_6.sol\":1063:1152  function rate(uint amount) public pure returns(uint) {... */\n      swap2\n      swap1\n      pop\n      jump\t// out\n        /* \"#utility.yul\":7:84   */\n    tag_78:\n        /* \"#utility.yul\":44:51   */\n      0x00\n        /* \"#utility.yul\":73:78   */\n      dup2\n        /* \"#utility.yul\":62:78   */\n      swap1\n      pop\n        /* \"#utility.yul\":7:84   */\n      swap2\n      swap1\n      pop\n      jump\t// out\n        /* \"#utility.yul\":90:208   */\n    tag_79:\n        /* \"#utility.yul\":177:201   */\n      tag_134\n        /* \"#utility.yul\":195:200   */\n      dup2\n        /* \"#utility.yul\":177:201   */\n      tag_78\n      jump\t// in\n    tag_134:\n        /* \"#utility.yul\":172:175   */\n      dup3\n        /* \"#utility.yul\":165:202   */\n      mstore\n        /* \"#utility.yul\":90:208   */\n      pop\n      pop\n      jump\t// out\n        /* \"#utility.yul\":214:436   */\n    tag_19:\n        /* \"#utility.yul\":307:311   */\n      0x00\n        /* \"#utility.yul\":345:347   */\n      0x20\n        /* \"#utility.yul\":334:343   */\n      dup3\n        /* \"#utility.yul\":330:348   */\n      add\n        /* \"#utility.yul\":322:348   */\n      swap1\n      pop\n        /* \"#utility.yul\":358:429   */\n      tag_136\n        /* \"#utility.yul\":426:427   */\n      0x00\n        /* \"#utility.yul\":415:424   */\n      dup4\n        /* \"#utility.yul\":411:428   */\n      add\n        /* \"#utility.yul\":402:408   */\n      dup5\n        /* \"#utility.yul\":358:429   */\n      tag_79\n      jump\t// in\n    tag_136:\n        /* \"#utility.yul\":214:436   */\n      swap3\n      swap2\n      pop\n      pop\n      jump\t// out\n        /* \"#utility.yul\":442:517   */\n    tag_80:\n        /* \"#utility.yul\":475:481   */\n      0x00\n        /* \"#utility.yul\":508:510   */\n      0x40\n        /* \"#utility.yul\":502:511   */\n      mload\n        /* \"#utility.yul\":492:511   */\n      swap1\n      pop\n        /* \"#utility.yul\":442:517   */\n      swap1\n      jump\t// out\n        /* \"#utility.yul\":523:640   */\n    tag_81:\n        /* \"#utility.yul\":632:633   */\n      0x00\n        /* \"#utility.yul\":629:630   */\n      0x00\n        /* \"#utility.yul\":622:634   */\n      revert\n        /* \"#utility.yul\":646:763   */\n    tag_82:\n        /* \"#utility.yul\":755:756   */\n      0x00\n        /* \"#utility.yul\":752:753   */\n      0x00\n        /* \"#utility.yul\":745:757   */\n      revert\n        /* \"#utility.yul\":769:886   */\n    tag_83:\n        /* \"#utility.yul\":878:879   */\n      0x00\n        /* \"#utility.yul\":875:876   */\n      0x00\n        /* \"#utility.yul\":868:880   */\n      revert\n        /* \"#utility.yul\":892:1009   */\n    tag_84:\n        /* \"#utility.yul\":1001:1002   */\n      0x00\n        /* \"#utility.yul\":998:999   */\n      0x00\n        /* \"#utility.yul\":991:1003   */\n      revert\n        /* \"#utility.yul\":1015:1117   */\n    tag_85:\n        /* \"#utility.yul\":1056:1062   */\n      0x00\n        /* \"#utility.yul\":1107:1109   */\n      0x1f\n        /* \"#utility.yul\":1103:1110   */\n      not\n        /* \"#utility.yul\":1098:1100   */\n      0x1f\n        /* \"#utility.yul\":1091:1096   */\n      dup4\n        /* \"#utility.yul\":1087:1101   */\n      add\n        /* \"#utility.yul\":1083:1111   */\n      and\n        /* \"#utility.yul\":1073:1111   */\n      swap1\n      pop\n        /* \"#utility.yul\":1015:1117   */\n      swap2\n      swap1\n      pop\n      jump\t// out\n        /* \"#utility.yul\":1123:1303   */\n    tag_86:\n        /* \"#utility.yul\":1171:1248   */\n      0x4e487b7100000000000000000000000000000000000000000000000000000000\n        /* \"#utility.yul\":1168:1169   */\n      0x00\n        /* \"#utility.yul\":1161:1249   */\n      mstore\n        /* \"#utility.yul\":1268:1272   */\n      0x41\n        /* \"#utility.yul\":1265:1266   */\n      0x04\n        /* \"#utility.yul\":1258:1273   */\n      mstore\n        /* \"#utility.yul\":1292:1296   */\n      0x24\n        /* \"#utility.yul\":1289:1290   */\n      0x00\n        /* \"#utility.yul\":1282:1297   */\n      revert\n        /* \"#utility.yul\":1309:1590   */\n    tag_87:\n        /* \"#utility.yul\":1392:1419   */\n      tag_145\n        /* \"#utility.yul\":1414:1418   */\n      dup3\n        /* \"#utility.yul\":1392:1419   */\n      tag_85\n      jump\t// in\n    tag_145:\n        /* \"#utility.yul\":1384:1390   */\n      dup2\n        /* \"#utility.yul\":1380:1420   */\n      add\n        /* \"#utility.yul\":1522:1528   */\n      dup2\n        /* \"#utility.yul\":1510:1520   */\n      dup2\n        /* \"#utility.yul\":1507:1529   */\n      lt\n        /* \"#utility.yul\":1486:1504   */\n      0xffffffffffffffff\n        /* \"#utility.yul\":1474:1484   */\n      dup3\n        /* \"#utility.yul\":1471:1505   */\n      gt\n        /* \"#utility.yul\":1468:1530   */\n      or\n        /* \"#utility.yul\":1465:1553   */\n      iszero\n      tag_146\n      jumpi\n        /* \"#utility.yul\":1533:1551   */\n      tag_147\n      tag_86\n      jump\t// in\n    tag_147:\n        /* \"#utility.yul\":1465:1553   */\n    tag_146:\n        /* \"#utility.yul\":1573:1583   */\n      dup1\n        /* \"#utility.yul\":1569:1571   */\n      0x40\n        /* \"#utility.yul\":1562:1584   */\n      mstore\n        /* \"#utility.yul\":1352:1590   */\n      pop\n        /* \"#utility.yul\":1309:1590   */\n      pop\n      pop\n      jump\t// out\n        /* \"#utility.yul\":1596:1725   */\n    tag_88:\n        /* \"#utility.yul\":1630:1636   */\n      0x00\n        /* \"#utility.yul\":1657:1677   */\n      tag_149\n      tag_80\n      jump\t// in\n    tag_149:\n        /* \"#utility.yul\":1647:1677   */\n      swap1\n      pop\n        /* \"#utility.yul\":1686:1719   */\n      tag_150\n        /* \"#utility.yul\":1714:1718   */\n      dup3\n        /* \"#utility.yul\":1706:1712   */\n      dup3\n        /* \"#utility.yul\":1686:1719   */\n      tag_87\n      jump\t// in\n    tag_150:\n        /* \"#utility.yul\":1596:1725   */\n      swap2\n      swap1\n      pop\n      jump\t// out\n        /* \"#utility.yul\":1731:2039   */\n    tag_89:\n        /* \"#utility.yul\":1793:1797   */\n      0x00\n        /* \"#utility.yul\":1883:1901   */\n      0xffffffffffffffff\n        /* \"#utility.yul\":1875:1881   */\n      dup3\n        /* \"#utility.yul\":1872:1902   */\n      gt\n        /* \"#utility.yul\":1869:1925   */\n      iszero\n      tag_152\n      jumpi\n        /* \"#utility.yul\":1905:1923   */\n      tag_153\n      tag_86\n      jump\t// in\n    tag_153:\n        /* \"#utility.yul\":1869:1925   */\n    tag_152:\n        /* \"#utility.yul\":1943:1972   */\n      tag_154\n        /* \"#utility.yul\":1965:1971   */\n      dup3\n        /* \"#utility.yul\":1943:1972   */\n      tag_85\n      jump\t// in\n    tag_154:\n        /* \"#utility.yul\":1935:1972   */\n      swap1\n      pop\n        /* \"#utility.yul\":2027:2031   */\n      0x20\n        /* \"#utility.yul\":2021:2025   */\n      dup2\n        /* \"#utility.yul\":2017:2032   */\n      add\n        /* \"#utility.yul\":2009:2032   */\n      swap1\n      pop\n        /* \"#utility.yul\":1731:2039   */\n      swap2\n      swap1\n      pop\n      jump\t// out\n        /* \"#utility.yul\":2045:2193   */\n    tag_90:\n        /* \"#utility.yul\":2143:2149   */\n      dup3\n        /* \"#utility.yul\":2138:2141   */\n      dup2\n        /* \"#utility.yul\":2133:2136   */\n      dup4\n        /* \"#utility.yul\":2120:2150   */\n      calldatacopy\n        /* \"#utility.yul\":2184:2185   */\n      0x00\n        /* \"#utility.yul\":2175:2181   */\n      dup4\n        /* \"#utility.yul\":2170:2173   */\n      dup4\n        /* \"#utility.yul\":2166:2182   */\n      add\n        /* \"#utility.yul\":2159:2186   */\n      mstore\n        /* \"#utility.yul\":2045:2193   */\n      pop\n      pop\n      pop\n      jump\t// out\n        /* \"#utility.yul\":2199:2624   */\n    tag_91:\n        /* \"#utility.yul\":2277:2282   */\n      0x00\n        /* \"#utility.yul\":2302:2368   */\n      tag_157\n        /* \"#utility.yul\":2318:2367   */\n      tag_158\n        /* \"#utility.yul\":2360:2366   */\n      dup5\n        /* \"#utility.yul\":2318:2367   */\n      tag_89\n      jump\t// in\n    tag_158:\n        /* \"#utility.yul\":2302:2368   */\n      tag_88\n      jump\t// in\n    tag_157:\n        /* \"#utility.yul\":2293:2368   */\n      swap1\n      pop\n        /* \"#utility.yul\":2391:2397   */\n      dup3\n        /* \"#utility.yul\":2384:2389   */\n      dup2\n        /* \"#utility.yul\":2377:2398   */\n      mstore\n        /* \"#utility.yul\":2429:2433   */\n      0x20\n        /* \"#utility.yul\":2422:2427   */\n      dup2\n        /* \"#utility.yul\":2418:2434   */\n      add\n        /* \"#utility.yul\":2467:2470   */\n      dup5\n        /* \"#utility.yul\":2458:2464   */\n      dup5\n        /* \"#utility.yul\":2453:2456   */\n      dup5\n        /* \"#utility.yul\":2449:2465   */\n      add\n        /* \"#utility.yul\":2446:2471   */\n      gt\n        /* \"#utility.yul\":2443:2555   */\n      iszero\n      tag_159\n      jumpi\n        /* \"#utility.yul\":2474:2553   */\n      tag_160\n      tag_84\n      jump\t// in\n    tag_160:\n        /* \"#utility.yul\":2443:2555   */\n    tag_159:\n        /* \"#utility.yul\":2564:2618   */\n      tag_161\n        /* \"#utility.yul\":2611:2617   */\n      dup5\n        /* \"#utility.yul\":2606:2609   */\n      dup3\n        /* \"#utility.yul\":2601:2604   */\n      dup6\n        /* \"#utility.yul\":2564:2618   */\n      tag_90\n      jump\t// in\n    tag_161:\n        /* \"#utility.yul\":2283:2624   */\n      pop\n        /* \"#utility.yul\":2199:2624   */\n      swap4\n      swap3\n      pop\n      pop\n      pop\n      jump\t// out\n        /* \"#utility.yul\":2644:2984   */\n    tag_92:\n        /* \"#utility.yul\":2700:2705   */\n      0x00\n        /* \"#utility.yul\":2749:2752   */\n      dup3\n        /* \"#utility.yul\":2742:2746   */\n      0x1f\n        /* \"#utility.yul\":2734:2740   */\n      dup4\n        /* \"#utility.yul\":2730:2747   */\n      add\n        /* \"#utility.yul\":2726:2753   */\n      slt\n        /* \"#utility.yul\":2716:2838   */\n      tag_163\n      jumpi\n        /* \"#utility.yul\":2757:2836   */\n      tag_164\n      tag_83\n      jump\t// in\n    tag_164:\n        /* \"#utility.yul\":2716:2838   */\n    tag_163:\n        /* \"#utility.yul\":2874:2880   */\n      dup2\n        /* \"#utility.yul\":2861:2881   */\n      calldataload\n        /* \"#utility.yul\":2899:2978   */\n      tag_165\n        /* \"#utility.yul\":2974:2977   */\n      dup5\n        /* \"#utility.yul\":2966:2972   */\n      dup3\n        /* \"#utility.yul\":2959:2963   */\n      0x20\n        /* \"#utility.yul\":2951:2957   */\n      dup7\n        /* \"#utility.yul\":2947:2964   */\n      add\n        /* \"#utility.yul\":2899:2978   */\n      tag_91\n      jump\t// in\n    tag_165:\n        /* \"#utility.yul\":2890:2978   */\n      swap2\n      pop\n        /* \"#utility.yul\":2706:2984   */\n      pop\n        /* \"#utility.yul\":2644:2984   */\n      swap3\n      swap2\n      pop\n      pop\n      jump\t// out\n        /* \"#utility.yul\":2990:3499   */\n    tag_25:\n        /* \"#utility.yul\":3059:3065   */\n      0x00\n        /* \"#utility.yul\":3108:3110   */\n      0x20\n        /* \"#utility.yul\":3096:3105   */\n      dup3\n        /* \"#utility.yul\":3087:3094   */\n      dup5\n        /* \"#utility.yul\":3083:3106   */\n      sub\n        /* \"#utility.yul\":3079:3111   */\n      slt\n        /* \"#utility.yul\":3076:3195   */\n      iszero\n      tag_167\n      jumpi\n        /* \"#utility.yul\":3114:3193   */\n      tag_168\n      tag_81\n      jump\t// in\n    tag_168:\n        /* \"#utility.yul\":3076:3195   */\n    tag_167:\n        /* \"#utility.yul\":3262:3263   */\n      0x00\n        /* \"#utility.yul\":3251:3260   */\n      dup3\n        /* \"#utility.yul\":3247:3264   */\n      add\n        /* \"#utility.yul\":3234:3265   */\n      calldataload\n        /* \"#utility.yul\":3292:3310   */\n      0xffffffffffffffff\n        /* \"#utility.yul\":3284:3290   */\n      dup2\n        /* \"#utility.yul\":3281:3311   */\n      gt\n        /* \"#utility.yul\":3278:3395   */\n      iszero\n      tag_169\n      jumpi\n        /* \"#utility.yul\":3314:3393   */\n      tag_170\n      tag_82\n      jump\t// in\n    tag_170:\n        /* \"#utility.yul\":3278:3395   */\n    tag_169:\n        /* \"#utility.yul\":3419:3482   */\n      tag_171\n        /* \"#utility.yul\":3474:3481   */\n      dup5\n        /* \"#utility.yul\":3465:3471   */\n      dup3\n        /* \"#utility.yul\":3454:3463   */\n      dup6\n        /* \"#utility.yul\":3450:3472   */\n      add\n        /* \"#utility.yul\":3419:3482   */\n      tag_92\n      jump\t// in\n    tag_171:\n        /* \"#utility.yul\":3409:3482   */\n      swap2\n      pop\n        /* \"#utility.yul\":3205:3492   */\n      pop\n        /* \"#utility.yul\":2990:3499   */\n      swap3\n      swap2\n      pop\n      pop\n      jump\t// out\n        /* \"#utility.yul\":3505:3631   */\n    tag_93:\n        /* \"#utility.yul\":3542:3549   */\n      0x00\n        /* \"#utility.yul\":3582:3624   */\n      0xffffffffffffffffffffffffffffffffffffffff\n        /* \"#utility.yul\":3575:3580   */\n      dup3\n        /* \"#utility.yul\":3571:3625   */\n      and\n        /* \"#utility.yul\":3560:3625   */\n      swap1\n      pop\n        /* \"#utility.yul\":3505:3631   */\n      swap2\n      swap1\n      pop\n      jump\t// out\n        /* \"#utility.yul\":3637:3733   */\n    tag_94:\n        /* \"#utility.yul\":3674:3681   */\n      0x00\n        /* \"#utility.yul\":3703:3727   */\n      tag_174\n        /* \"#utility.yul\":3721:3726   */\n      dup3\n        /* \"#utility.yul\":3703:3727   */\n      tag_93\n      jump\t// in\n    tag_174:\n        /* \"#utility.yul\":3692:3727   */\n      swap1\n      pop\n        /* \"#utility.yul\":3637:3733   */\n      swap2\n      swap1\n      pop\n      jump\t// out\n        /* \"#utility.yul\":3739:3857   */\n    tag_95:\n        /* \"#utility.yul\":3826:3850   */\n      tag_176\n        /* \"#utility.yul\":3844:3849   */\n      dup2\n        /* \"#utility.yul\":3826:3850   */\n      tag_94\n      jump\t// in\n    tag_176:\n        /* \"#utility.yul\":3821:3824   */\n      dup3\n        /* \"#utility.yul\":3814:3851   */\n      mstore\n        /* \"#utility.yul\":3739:3857   */\n      pop\n      pop\n      jump\t// out\n        /* \"#utility.yul\":3863:4085   */\n    tag_31:\n        /* \"#utility.yul\":3956:3960   */\n      0x00\n        /* \"#utility.yul\":3994:3996   */\n      0x20\n        /* \"#utility.yul\":3983:3992   */\n      dup3\n        /* \"#utility.yul\":3979:3997   */\n      add\n        /* \"#utility.yul\":3971:3997   */\n      swap1\n      pop\n        /* \"#utility.yul\":4007:4078   */\n      tag_178\n        /* \"#utility.yul\":4075:4076   */\n      0x00\n        /* \"#utility.yul\":4064:4073   */\n      dup4\n        /* \"#utility.yul\":4060:4077   */\n      add\n        /* \"#utility.yul\":4051:4057   */\n      dup5\n        /* \"#utility.yul\":4007:4078   */\n      tag_95\n      jump\t// in\n    tag_178:\n        /* \"#utility.yul\":3863:4085   */\n      swap3\n      swap2\n      pop\n      pop\n      jump\t// out\n        /* \"#utility.yul\":4091:4195   */\n    tag_96:\n        /* \"#utility.yul\":4136:4143   */\n      0x00\n        /* \"#utility.yul\":4165:4189   */\n      tag_180\n        /* \"#utility.yul\":4183:4188   */\n      dup3\n        /* \"#utility.yul\":4165:4189   */\n      tag_93\n      jump\t// in\n    tag_180:\n        /* \"#utility.yul\":4154:4189   */\n      swap1\n      pop\n        /* \"#utility.yul\":4091:4195   */\n      swap2\n      swap1\n      pop\n      jump\t// out\n        /* \"#utility.yul\":4201:4339   */\n    tag_97:\n        /* \"#utility.yul\":4282:4314   */\n      tag_182\n        /* \"#utility.yul\":4308:4313   */\n      dup2\n        /* \"#utility.yul\":4282:4314   */\n      tag_96\n      jump\t// in\n    tag_182:\n        /* \"#utility.yul\":4275:4280   */\n      dup2\n        /* \"#utility.yul\":4272:4315   */\n      eq\n        /* \"#utility.yul\":4262:4333   */\n      tag_183\n      jumpi\n        /* \"#utility.yul\":4329:4330   */\n      0x00\n        /* \"#utility.yul\":4326:4327   */\n      0x00\n        /* \"#utility.yul\":4319:4331   */\n      revert\n        /* \"#utility.yul\":4262:4333   */\n    tag_183:\n        /* \"#utility.yul\":4201:4339   */\n      pop\n      jump\t// out\n        /* \"#utility.yul\":4345:4500   */\n    tag_98:\n        /* \"#utility.yul\":4399:4404   */\n      0x00\n        /* \"#utility.yul\":4437:4443   */\n      dup2\n        /* \"#utility.yul\":4424:4444   */\n      calldataload\n        /* \"#utility.yul\":4415:4444   */\n      swap1\n      pop\n        /* \"#utility.yul\":4453:4494   */\n      tag_185\n        /* \"#utility.yul\":4488:4493   */\n      dup2\n        /* \"#utility.yul\":4453:4494   */\n      tag_97\n      jump\t// in\n    tag_185:\n        /* \"#utility.yul\":4345:4500   */\n      swap3\n      swap2\n      pop\n      pop\n      jump\t// out\n        /* \"#utility.yul\":4506:4628   */\n    tag_99:\n        /* \"#utility.yul\":4579:4603   */\n      tag_187\n        /* \"#utility.yul\":4597:4602   */\n      dup2\n        /* \"#utility.yul\":4579:4603   */\n      tag_78\n      jump\t// in\n    tag_187:\n        /* \"#utility.yul\":4572:4577   */\n      dup2\n        /* \"#utility.yul\":4569:4604   */\n      eq\n        /* \"#utility.yul\":4559:4622   */\n      tag_188\n      jumpi\n        /* \"#utility.yul\":4618:4619   */\n      0x00\n        /* \"#utility.yul\":4615:4616   */\n      0x00\n        /* \"#utility.yul\":4608:4620   */\n      revert\n        /* \"#utility.yul\":4559:4622   */\n    tag_188:\n        /* \"#utility.yul\":4506:4628   */\n      pop\n      jump\t// out\n        /* \"#utility.yul\":4634:4773   */\n    tag_100:\n        /* \"#utility.yul\":4680:4685   */\n      0x00\n        /* \"#utility.yul\":4718:4724   */\n      dup2\n        /* \"#utility.yul\":4705:4725   */\n      calldataload\n        /* \"#utility.yul\":4696:4725   */\n      swap1\n      pop\n        /* \"#utility.yul\":4734:4767   */\n      tag_190\n        /* \"#utility.yul\":4761:4766   */\n      dup2\n        /* \"#utility.yul\":4734:4767   */\n      tag_99\n      jump\t// in\n    tag_190:\n        /* \"#utility.yul\":4634:4773   */\n      swap3\n      swap2\n      pop\n      pop\n      jump\t// out\n        /* \"#utility.yul\":4779:5269   */\n    tag_35:\n        /* \"#utility.yul\":4855:4861   */\n      0x00\n        /* \"#utility.yul\":4863:4869   */\n      0x00\n        /* \"#utility.yul\":4912:4914   */\n      0x40\n        /* \"#utility.yul\":4900:4909   */\n      dup4\n        /* \"#utility.yul\":4891:4898   */\n      dup6\n        /* \"#utility.yul\":4887:4910   */\n      sub\n        /* \"#utility.yul\":4883:4915   */\n      slt\n        /* \"#utility.yul\":4880:4999   */\n      iszero\n      tag_192\n      jumpi\n        /* \"#utility.yul\":4918:4997   */\n      tag_193\n      tag_81\n      jump\t// in\n    tag_193:\n        /* \"#utility.yul\":4880:4999   */\n    tag_192:\n        /* \"#utility.yul\":5038:5039   */\n      0x00\n        /* \"#utility.yul\":5063:5124   */\n      tag_194\n        /* \"#utility.yul\":5116:5123   */\n      dup6\n        /* \"#utility.yul\":5107:5113   */\n      dup3\n        /* \"#utility.yul\":5096:5105   */\n      dup7\n        /* \"#utility.yul\":5092:5114   */\n      add\n        /* \"#utility.yul\":5063:5124   */\n      tag_98\n      jump\t// in\n    tag_194:\n        /* \"#utility.yul\":5053:5124   */\n      swap3\n      pop\n        /* \"#utility.yul\":5009:5134   */\n      pop\n        /* \"#utility.yul\":5173:5175   */\n      0x20\n        /* \"#utility.yul\":5199:5252   */\n      tag_195\n        /* \"#utility.yul\":5244:5251   */\n      dup6\n        /* \"#utility.yul\":5235:5241   */\n      dup3\n        /* \"#utility.yul\":5224:5233   */\n      dup7\n        /* \"#utility.yul\":5220:5242   */\n      add\n        /* \"#utility.yul\":5199:5252   */\n      tag_100\n      jump\t// in\n    tag_195:\n        /* \"#utility.yul\":5189:5252   */\n      swap2\n      pop\n        /* \"#utility.yul\":5144:5262   */\n      pop\n        /* \"#utility.yul\":4779:5269   */\n      swap3\n      pop\n      swap3\n      swap1\n      pop\n      jump\t// out\n        /* \"#utility.yul\":5275:5374   */\n    tag_101:\n        /* \"#utility.yul\":5327:5333   */\n      0x00\n        /* \"#utility.yul\":5361:5366   */\n      dup2\n        /* \"#utility.yul\":5355:5367   */\n      mload\n        /* \"#utility.yul\":5345:5367   */\n      swap1\n      pop\n        /* \"#utility.yul\":5275:5374   */\n      swap2\n      swap1\n      pop\n      jump\t// out\n        /* \"#utility.yul\":5380:5549   */\n    tag_102:\n        /* \"#utility.yul\":5464:5475   */\n      0x00\n        /* \"#utility.yul\":5498:5504   */\n      dup3\n        /* \"#utility.yul\":5493:5496   */\n      dup3\n        /* \"#utility.yul\":5486:5505   */\n      mstore\n        /* \"#utility.yul\":5538:5542   */\n      0x20\n        /* \"#utility.yul\":5533:5536   */\n      dup3\n        /* \"#utility.yul\":5529:5543   */\n      add\n        /* \"#utility.yul\":5514:5543   */\n      swap1\n      pop\n        /* \"#utility.yul\":5380:5549   */\n      swap3\n      swap2\n      pop\n      pop\n      jump\t// out\n        /* \"#utility.yul\":5555:5694   */\n    tag_103:\n        /* \"#utility.yul\":5644:5650   */\n      dup3\n        /* \"#utility.yul\":5639:5642   */\n      dup2\n        /* \"#utility.yul\":5634:5637   */\n      dup4\n        /* \"#utility.yul\":5628:5651   */\n      mcopy\n        /* \"#utility.yul\":5685:5686   */\n      0x00\n        /* \"#utility.yul\":5676:5682   */\n      dup4\n        /* \"#utility.yul\":5671:5674   */\n      dup4\n        /* \"#utility.yul\":5667:5683   */\n      add\n        /* \"#utility.yul\":5660:5687   */\n      mstore\n        /* \"#utility.yul\":5555:5694   */\n      pop\n      pop\n      pop\n      jump\t// out\n        /* \"#utility.yul\":5700:6077   */\n    tag_104:\n        /* \"#utility.yul\":5788:5791   */\n      0x00\n        /* \"#utility.yul\":5816:5855   */\n      tag_200\n        /* \"#utility.yul\":5849:5854   */\n      dup3\n        /* \"#utility.yul\":5816:5855   */\n      tag_101\n      jump\t// in\n    tag_200:\n        /* \"#utility.yul\":5871:5942   */\n      tag_201\n        /* \"#utility.yul\":5935:5941   */\n      dup2\n        /* \"#utility.yul\":5930:5933   */\n      dup6\n        /* \"#utility.yul\":5871:5942   */\n      tag_102\n      jump\t// in\n    tag_201:\n        /* \"#utility.yul\":5864:5942   */\n      swap4\n      pop\n        /* \"#utility.yul\":5951:6016   */\n      tag_202\n        /* \"#utility.yul\":6009:6015   */\n      dup2\n        /* \"#utility.yul\":6004:6007   */\n      dup6\n        /* \"#utility.yul\":5997:6001   */\n      0x20\n        /* \"#utility.yul\":5990:5995   */\n      dup7\n        /* \"#utility.yul\":5986:6002   */\n      add\n        /* \"#utility.yul\":5951:6016   */\n      tag_103\n      jump\t// in\n    tag_202:\n        /* \"#utility.yul\":6041:6070   */\n      tag_203\n        /* \"#utility.yul\":6063:6069   */\n      dup2\n        /* \"#utility.yul\":6041:6070   */\n      tag_85\n      jump\t// in\n    tag_203:\n        /* \"#utility.yul\":6036:6039   */\n      dup5\n        /* \"#utility.yul\":6032:6071   */\n      add\n        /* \"#utility.yul\":6025:6071   */\n      swap2\n      pop\n        /* \"#utility.yul\":5792:6077   */\n      pop\n        /* \"#utility.yul\":5700:6077   */\n      swap3\n      swap2\n      pop\n      pop\n      jump\t// out\n        /* \"#utility.yul\":6083:6396   */\n    tag_41:\n        /* \"#utility.yul\":6196:6200   */\n      0x00\n        /* \"#utility.yul\":6234:6236   */\n      0x20\n        /* \"#utility.yul\":6223:6232   */\n      dup3\n        /* \"#utility.yul\":6219:6237   */\n      add\n        /* \"#utility.yul\":6211:6237   */\n      swap1\n      pop\n        /* \"#utility.yul\":6283:6292   */\n      dup2\n        /* \"#utility.yul\":6277:6281   */\n      dup2\n        /* \"#utility.yul\":6273:6293   */\n      sub\n        /* \"#utility.yul\":6269:6270   */\n      0x00\n        /* \"#utility.yul\":6258:6267   */\n      dup4\n        /* \"#utility.yul\":6254:6271   */\n      add\n        /* \"#utility.yul\":6247:6294   */\n      mstore\n        /* \"#utility.yul\":6311:6389   */\n      tag_205\n        /* \"#utility.yul\":6384:6388   */\n      dup2\n        /* \"#utility.yul\":6375:6381   */\n      dup5\n        /* \"#utility.yul\":6311:6389   */\n      tag_104\n      jump\t// in\n    tag_205:\n        /* \"#utility.yul\":6303:6389   */\n      swap1\n      pop\n        /* \"#utility.yul\":6083:6396   */\n      swap3\n      swap2\n      pop\n      pop\n      jump\t// out\n        /* \"#utility.yul\":6402:6731   */\n    tag_45:\n        /* \"#utility.yul\":6461:6467   */\n      0x00\n        /* \"#utility.yul\":6510:6512   */\n      0x20\n        /* \"#utility.yul\":6498:6507   */\n      dup3\n        /* \"#utility.yul\":6489:6496   */\n      dup5\n        /* \"#utility.yul\":6485:6508   */\n      sub\n        /* \"#utility.yul\":6481:6513   */\n      slt\n        /* \"#utility.yul\":6478:6597   */\n      iszero\n      tag_207\n      jumpi\n        /* \"#utility.yul\":6516:6595   */\n      tag_208\n      tag_81\n      jump\t// in\n    tag_208:\n        /* \"#utility.yul\":6478:6597   */\n    tag_207:\n        /* \"#utility.yul\":6636:6637   */\n      0x00\n        /* \"#utility.yul\":6661:6714   */\n      tag_209\n        /* \"#utility.yul\":6706:6713   */\n      dup5\n        /* \"#utility.yul\":6697:6703   */\n      dup3\n        /* \"#utility.yul\":6686:6695   */\n      dup6\n        /* \"#utility.yul\":6682:6704   */\n      add\n        /* \"#utility.yul\":6661:6714   */\n      tag_100\n      jump\t// in\n    tag_209:\n        /* \"#utility.yul\":6651:6714   */\n      swap2\n      pop\n        /* \"#utility.yul\":6607:6724   */\n      pop\n        /* \"#utility.yul\":6402:6731   */\n      swap3\n      swap2\n      pop\n      pop\n      jump\t// out\n        /* \"#utility.yul\":6737:6917   */\n    tag_105:\n        /* \"#utility.yul\":6785:6862   */\n      0x4e487b7100000000000000000000000000000000000000000000000000000000\n        /* \"#utility.yul\":6782:6783   */\n      0x00\n        /* \"#utility.yul\":6775:6863   */\n      mstore\n        /* \"#utility.yul\":6882:6886   */\n      0x22\n        /* \"#utility.yul\":6879:6880   */\n      0x04\n        /* \"#utility.yul\":6872:6887   */\n      mstore\n        /* \"#utility.yul\":6906:6910   */\n      0x24\n        /* \"#utility.yul\":6903:6904   */\n      0x00\n        /* \"#utility.yul\":6896:6911   */\n      revert\n        /* \"#utility.yul\":6923:7243   */\n    tag_70:\n        /* \"#utility.yul\":6967:6973   */\n      0x00\n        /* \"#utility.yul\":7004:7005   */\n      0x02\n        /* \"#utility.yul\":6998:7002   */\n      dup3\n        /* \"#utility.yul\":6994:7006   */\n      div\n        /* \"#utility.yul\":6984:7006   */\n      swap1\n      pop\n        /* \"#utility.yul\":7051:7052   */\n      0x01\n        /* \"#utility.yul\":7045:7049   */\n      dup3\n        /* \"#utility.yul\":7041:7053   */\n      and\n        /* \"#utility.yul\":7072:7090   */\n      dup1\n        /* \"#utility.yul\":7062:7143   */\n      tag_212\n      jumpi\n        /* \"#utility.yul\":7128:7132   */\n      0x7f\n        /* \"#utility.yul\":7120:7126   */\n      dup3\n        /* \"#utility.yul\":7116:7133   */\n      and\n        /* \"#utility.yul\":7106:7133   */\n      swap2\n      pop\n        /* \"#utility.yul\":7062:7143   */\n    tag_212:\n        /* \"#utility.yul\":7190:7192   */\n      0x20\n        /* \"#utility.yul\":7182:7188   */\n      dup3\n        /* \"#utility.yul\":7179:7193   */\n      lt\n        /* \"#utility.yul\":7159:7177   */\n      dup2\n        /* \"#utility.yul\":7156:7194   */\n      sub\n        /* \"#utility.yul\":7153:7237   */\n      tag_213\n      jumpi\n        /* \"#utility.yul\":7209:7227   */\n      tag_214\n      tag_105\n      jump\t// in\n    tag_214:\n        /* \"#utility.yul\":7153:7237   */\n    tag_213:\n        /* \"#utility.yul\":6974:7243   */\n      pop\n        /* \"#utility.yul\":6923:7243   */\n      swap2\n      swap1\n      pop\n      jump\t// out\n        /* \"#utility.yul\":7249:7390   */\n    tag_106:\n        /* \"#utility.yul\":7298:7302   */\n      0x00\n        /* \"#utility.yul\":7321:7324   */\n      dup2\n        /* \"#utility.yul\":7313:7324   */\n      swap1\n      pop\n        /* \"#utility.yul\":7344:7347   */\n      dup2\n        /* \"#utility.yul\":7341:7342   */\n      0x00\n        /* \"#utility.yul\":7334:7348   */\n      mstore\n        /* \"#utility.yul\":7378:7382   */\n      0x20\n        /* \"#utility.yul\":7375:7376   */\n      0x00\n        /* \"#utility.yul\":7365:7383   */\n      keccak256\n        /* \"#utility.yul\":7357:7383   */\n      swap1\n      pop\n        /* \"#utility.yul\":7249:7390   */\n      swap2\n      swap1\n      pop\n      jump\t// out\n        /* \"#utility.yul\":7396:7489   */\n    tag_107:\n        /* \"#utility.yul\":7433:7439   */\n      0x00\n        /* \"#utility.yul\":7480:7482   */\n      0x20\n        /* \"#utility.yul\":7475:7477   */\n      0x1f\n        /* \"#utility.yul\":7468:7473   */\n      dup4\n        /* \"#utility.yul\":7464:7478   */\n      add\n        /* \"#utility.yul\":7460:7483   */\n      div\n        /* \"#utility.yul\":7450:7483   */\n      swap1\n      pop\n        /* \"#utility.yul\":7396:7489   */\n      swap2\n      swap1\n      pop\n      jump\t// out\n        /* \"#utility.yul\":7495:7602   */\n    tag_108:\n        /* \"#utility.yul\":7539:7547   */\n      0x00\n        /* \"#utility.yul\":7589:7594   */\n      dup3\n        /* \"#utility.yul\":7583:7587   */\n      dup3\n        /* \"#utility.yul\":7579:7595   */\n      shl\n        /* \"#utility.yul\":7558:7595   */\n      swap1\n      pop\n        /* \"#utility.yul\":7495:7602   */\n      swap3\n      swap2\n      pop\n      pop\n      jump\t// out\n        /* \"#utility.yul\":7608:8001   */\n    tag_109:\n        /* \"#utility.yul\":7677:7683   */\n      0x00\n        /* \"#utility.yul\":7727:7728   */\n      0x08\n        /* \"#utility.yul\":7715:7725   */\n      dup4\n        /* \"#utility.yul\":7711:7729   */\n      mul\n        /* \"#utility.yul\":7750:7847   */\n      tag_219\n        /* \"#utility.yul\":7780:7846   */\n      0xffffffffffffffffffffffffffffffffffffffffffffffffffffffffffffffff\n        /* \"#utility.yul\":7769:7778   */\n      dup3\n        /* \"#utility.yul\":7750:7847   */\n      tag_108\n      jump\t// in\n    tag_219:\n        /* \"#utility.yul\":7868:7907   */\n      tag_220\n        /* \"#utility.yul\":7898:7906   */\n      dup7\n        /* \"#utility.yul\":7887:7896   */\n      dup4\n        /* \"#utility.yul\":7868:7907   */\n      tag_108\n      jump\t// in\n    tag_220:\n        /* \"#utility.yul\":7856:7907   */\n      swap6\n      pop\n        /* \"#utility.yul\":7940:7944   */\n      dup1\n        /* \"#utility.yul\":7936:7945   */\n      not\n        /* \"#utility.yul\":7929:7934   */\n      dup5\n        /* \"#utility.yul\":7925:7946   */\n      and\n        /* \"#utility.yul\":7916:7946   */\n      swap4\n      pop\n        /* \"#utility.yul\":7989:7993   */\n      dup1\n        /* \"#utility.yul\":7979:7987   */\n      dup7\n        /* \"#utility.yul\":7975:7994   */\n      and\n        /* \"#utility.yul\":7968:7973   */\n      dup5\n        /* \"#utility.yul\":7965:7995   */\n      or\n        /* \"#utility.yul\":7955:7995   */\n      swap3\n      pop\n        /* \"#utility.yul\":7684:8001   */\n      pop\n      pop\n        /* \"#utility.yul\":7608:8001   */\n      swap4\n      swap3\n      pop\n      pop\n      pop\n      jump\t// out\n        /* \"#utility.yul\":8007:8067   */\n    tag_110:\n        /* \"#utility.yul\":8035:8038   */\n      0x00\n        /* \"#utility.yul\":8056:8061   */\n      dup2\n        /* \"#utility.yul\":8049:8061   */\n      swap1\n      pop\n        /* \"#utility.yul\":8007:8067   */\n      swap2\n      swap1\n      pop\n      jump\t// out\n        /* \"#utility.yul\":8073:8215   */\n    tag_111:\n        /* \"#utility.yul\":8123:8132   */\n      0x00\n        /* \"#utility.yul\":8156:8209   */\n      tag_223\n        /* \"#utility.yul\":8174:8208   */\n      tag_224\n        /* \"#utility.yul\":8183:8207   */\n      tag_225\n        /* \"#utility.yul\":8201:8206   */\n      dup5\n        /* \"#utility.yul\":8183:8207   */\n      tag_78\n      jump\t// in\n    tag_225:\n        /* \"#utility.yul\":8174:8208   */\n      tag_110\n      jump\t// in\n    tag_224:\n        /* \"#utility.yul\":8156:8209   */\n      tag_78\n      jump\t// in\n    tag_223:\n        /* \"#utility.yul\":8143:8209   */\n      swap1\n      pop\n        /* \"#utility.yul\":8073:8215   */\n      swap2\n      swap1\n      pop\n      jump\t// out\n        /* \"#utility.yul\":8221:8296   */\n    tag_112:\n        /* \"#utility.yul\":8264:8267   */\n      0x00\n        /* \"#utility.yul\":8285:8290   */\n      dup2\n        /* \"#utility.yul\":8278:8290   */\n      swap1\n      pop\n        /* \"#utility.yul\":8221:8296   */\n      swap2\n      swap1\n      pop\n      jump\t// out\n        /* \"#utility.yul\":8302:8571   */\n    tag_113:\n        /* \"#utility.yul\":8412:8451   */\n      tag_228\n        /* \"#utility.yul\":8443:8450   */\n      dup4\n        /* \"#utility.yul\":8412:8451   */\n      tag_111\n      jump\t// in\n    tag_228:\n        /* \"#utility.yul\":8473:8564   */\n      tag_229\n        /* \"#utility.yul\":8522:8563   */\n      tag_230\n        /* \"#utility.yul\":8546:8562   */\n      dup3\n        /* \"#utility.yul\":8522:8563   */\n      tag_112\n      jump\t// in\n    tag_230:\n        /* \"#utility.yul\":8514:8520   */\n      dup5\n        /* \"#utility.yul\":8507:8511   */\n      dup5\n        /* \"#utility.yul\":8501:8512   */\n      sload\n        /* \"#utility.yul\":8473:8564   */\n      tag_109\n      jump\t// in\n    tag_229:\n        /* \"#utility.yul\":8467:8471   */\n      dup3\n        /* \"#utility.yul\":8460:8565   */\n      sstore\n        /* \"#utility.yul\":8378:8571   */\n      pop\n        /* \"#utility.yul\":8302:8571   */\n      pop\n      pop\n      pop\n      jump\t// out\n        /* \"#utility.yul\":8577:8650   */\n    tag_114:\n        /* \"#utility.yul\":8622:8625   */\n      0x00\n        /* \"#utility.yul\":8643:8644   */\n      0x00\n        /* \"#utility.yul\":8636:8644   */\n      swap1\n      pop\n        /* \"#utility.yul\":8577:8650   */\n      swap1\n      jump\t// out\n        /* \"#utility.yul\":8656:8845   */\n    tag_115:\n        /* \"#utility.yul\":8733:8765   */\n      tag_233\n      tag_114\n      jump\t// in\n    tag_233:\n        /* \"#utility.yul\":8774:8839   */\n      tag_234\n        /* \"#utility.yul\":8832:8838   */\n      dup2\n        /* \"#utility.yul\":8824:8830   */\n      dup5\n        /* \"#utility.yul\":8818:8822   */\n      dup5\n        /* \"#utility.yul\":8774:8839   */\n      tag_113\n      jump\t// in\n    tag_234:\n        /* \"#utility.yul\":8709:8845   */\n      pop\n        /* \"#utility.yul\":8656:8845   */\n      pop\n      pop\n      jump\t// out\n        /* \"#utility.yul\":8851:9037   */\n    tag_116:\n        /* \"#utility.yul\":8911:9031   */\n    tag_236:\n        /* \"#utility.yul\":8928:8931   */\n      dup2\n        /* \"#utility.yul\":8921:8926   */\n      dup2\n        /* \"#utility.yul\":8918:8932   */\n      lt\n        /* \"#utility.yul\":8911:9031   */\n      iszero\n      tag_238\n      jumpi\n        /* \"#utility.yul\":8982:9021   */\n      tag_239\n        /* \"#utility.yul\":9019:9020   */\n      0x00\n        /* \"#utility.yul\":9012:9017   */\n      dup3\n        /* \"#utility.yul\":8982:9021   */\n      tag_115\n      jump\t// in\n    tag_239:\n        /* \"#utility.yul\":8955:8956   */\n      0x01\n        /* \"#utility.yul\":8948:8953   */\n      dup2\n        /* \"#utility.yul\":8944:8957   */\n      add\n        /* \"#utility.yul\":8935:8957   */\n      swap1\n      pop\n        /* \"#utility.yul\":8911:9031   */\n      jump(tag_236)\n    tag_238:\n        /* \"#utility.yul\":8851:9037   */\n      pop\n      pop\n      jump\t// out\n        /* \"#utility.yul\":9043:9586   */\n    tag_117:\n        /* \"#utility.yul\":9144:9146   */\n      0x1f\n        /* \"#utility.yul\":9139:9142   */\n      dup3\n        /* \"#utility.yul\":9136:9147   */\n      gt\n        /* \"#utility.yul\":9133:9579   */\n      iszero\n      tag_241\n      jumpi\n        /* \"#utility.yul\":9178:9216   */\n      tag_242\n        /* \"#utility.yul\":9210:9215   */\n      dup2\n        /* \"#utility.yul\":9178:9216   */\n      tag_106\n      jump\t// in\n    tag_242:\n        /* \"#utility.yul\":9262:9291   */\n      tag_243\n        /* \"#utility.yul\":9280:9290   */\n      dup5\n        /* \"#utility.yul\":9262:9291   */\n      tag_107\n      jump\t// in\n    tag_243:\n        /* \"#utility.yul\":9252:9260   */\n      dup2\n        /* \"#utility.yul\":9248:9292   */\n      add\n        /* \"#utility.yul\":9445:9447   */\n      0x20\n        /* \"#utility.yul\":9433:9443   */\n      dup6\n        /* \"#utility.yul\":9430:9448   */\n      lt\n        /* \"#utility.yul\":9427:9476   */\n      iszero\n      tag_244\n      jumpi\n        /* \"#utility.yul\":9466:9474   */\n      dup2\n        /* \"#utility.yul\":9451:9474   */\n      swap1\n      pop\n        /* \"#utility.yul\":9427:9476   */\n    tag_244:\n        /* \"#utility.yul\":9489:9569   */\n      tag_245\n        /* \"#utility.yul\":9545:9567   */\n      tag_246\n        /* \"#utility.yul\":9563:9566   */\n      dup6\n        /* \"#utility.yul\":9545:9567   */\n      tag_107\n      jump\t// in\n    tag_246:\n        /* \"#utility.yul\":9535:9543   */\n      dup4\n        /* \"#utility.yul\":9531:9568   */\n      add\n        /* \"#utility.yul\":9518:9529   */\n      dup3\n        /* \"#utility.yul\":9489:9569   */\n      tag_116\n      jump\t// in\n    tag_245:\n        /* \"#utility.yul\":9148:9579   */\n      pop\n      pop\n        /* \"#utility.yul\":9133:9579   */\n    tag_241:\n        /* \"#utility.yul\":9043:9586   */\n      pop\n      pop\n      pop\n      jump\t// out\n        /* \"#utility.yul\":9592:9709   */\n    tag_118:\n        /* \"#utility.yul\":9646:9654   */\n      0x00\n        /* \"#utility.yul\":9696:9701   */\n      dup3\n        /* \"#utility.yul\":9690:9694   */\n      dup3\n        /* \"#utility.yul\":9686:9702   */\n      shr\n        /* \"#utility.yul\":9665:9702   */\n      swap1\n      pop\n        /* \"#utility.yul\":9592:9709   */\n      swap3\n      swap2\n      pop\n      pop\n      jump\t// out\n        /* \"#utility.yul\":9715:9884   */\n    tag_119:\n        /* \"#utility.yul\":9759:9765   */\n      0x00\n        /* \"#utility.yul\":9792:9843   */\n      tag_249\n        /* \"#utility.yul\":9840:9841   */\n      0x00\n        /* \"#utility.yul\":9836:9842   */\n      not\n        /* \"#utility.yul\":9828:9833   */\n      dup5\n        /* \"#utility.yul\":9825:9826   */\n      0x08\n        /* \"#utility.yul\":9821:9834   */\n      mul\n        /* \"#utility.yul\":9792:9843   */\n      tag_118\n      jump\t// in\n    tag_249:\n        /* \"#utility.yul\":9788:9844   */\n      not\n        /* \"#utility.yul\":9873:9877   */\n      dup1\n        /* \"#utility.yul\":9867:9871   */\n      dup4\n        /* \"#utility.yul\":9863:9878   */\n      and\n        /* \"#utility.yul\":9853:9878   */\n      swap2\n      pop\n        /* \"#utility.yul\":9766:9884   */\n      pop\n        /* \"#utility.yul\":9715:9884   */\n      swap3\n      swap2\n      pop\n      pop\n      jump\t// out\n        /* \"#utility.yul\":9889:10184   */\n    tag_120:\n        /* \"#utility.yul\":9965:9969   */\n      0x00\n        /* \"#utility.yul\":10111:10140   */\n      tag_251\n        /* \"#utility.yul\":10136:10139   */\n      dup4\n        /* \"#utility.yul\":10130:10134   */\n      dup4\n        /* \"#utility.yul\":10111:10140   */\n      tag_119\n      jump\t// in\n    tag_251:\n        /* \"#utility.yul\":10103:10140   */\n      swap2\n      pop\n        /* \"#utility.yul\":10173:10176   */\n      dup3\n        /* \"#utility.yul\":10170:10171   */\n      0x02\n        /* \"#utility.yul\":10166:10177   */\n      mul\n        /* \"#utility.yul\":10160:10164   */\n      dup3\n        /* \"#utility.yul\":10157:10178   */\n      or\n        /* \"#utility.yul\":10149:10178   */\n      swap1\n      pop\n        /* \"#utility.yul\":9889:10184   */\n      swap3\n      swap2\n      pop\n      pop\n      jump\t// out\n        /* \"#utility.yul\":10189:11584   */\n    tag_52:\n        /* \"#utility.yul\":10306:10343   */\n      tag_253\n        /* \"#utility.yul\":10339:10342   */\n      dup3\n        /* \"#utility.yul\":10306:10343   */\n      tag_101\n      jump\t// in\n    tag_253:\n        /* \"#utility.yul\":10408:10426   */\n      0xffffffffffffffff\n        /* \"#utility.yul\":10400:10406   */\n      dup2\n        /* \"#utility.yul\":10397:10427   */\n      gt\n        /* \"#utility.yul\":10394:10450   */\n      iszero\n      tag_254\n      jumpi\n        /* \"#utility.yul\":10430:10448   */\n      tag_255\n      tag_86\n      jump\t// in\n    tag_255:\n        /* \"#utility.yul\":10394:10450   */\n    tag_254:\n        /* \"#utility.yul\":10474:10512   */\n      tag_256\n        /* \"#utility.yul\":10506:10510   */\n      dup3\n        /* \"#utility.yul\":10500:10511   */\n      sload\n        /* \"#utility.yul\":10474:10512   */\n      tag_70\n      jump\t// in\n    tag_256:\n        /* \"#utility.yul\":10559:10626   */\n      tag_257\n        /* \"#utility.yul\":10619:10625   */\n      dup3\n        /* \"#utility.yul\":10611:10617   */\n      dup3\n        /* \"#utility.yul\":10605:10609   */\n      dup6\n        /* \"#utility.yul\":10559:10626   */\n      tag_117\n      jump\t// in\n    tag_257:\n        /* \"#utility.yul\":10653:10654   */\n      0x00\n        /* \"#utility.yul\":10677:10681   */\n      0x20\n        /* \"#utility.yul\":10664:10681   */\n      swap1\n      pop\n        /* \"#utility.yul\":10709:10711   */\n      0x1f\n        /* \"#utility.yul\":10701:10707   */\n      dup4\n        /* \"#utility.yul\":10698:10712   */\n      gt\n        /* \"#utility.yul\":10726:10727   */\n      0x01\n        /* \"#utility.yul\":10721:11339   */\n      dup2\n      eq\n      tag_259\n      jumpi\n        /* \"#utility.yul\":11383:11384   */\n      0x00\n        /* \"#utility.yul\":11400:11406   */\n      dup5\n        /* \"#utility.yul\":11397:11474   */\n      iszero\n      tag_260\n      jumpi\n        /* \"#utility.yul\":11449:11458   */\n      dup3\n        /* \"#utility.yul\":11444:11447   */\n      dup8\n        /* \"#utility.yul\":11440:11459   */\n      add\n        /* \"#utility.yul\":11434:11460   */\n      mload\n        /* \"#utility.yul\":11425:11460   */\n      swap1\n      pop\n        /* \"#utility.yul\":11397:11474   */\n    tag_260:\n        /* \"#utility.yul\":11500:11567   */\n      tag_261\n        /* \"#utility.yul\":11560:11566   */\n      dup6\n        /* \"#utility.yul\":11553:11558   */\n      dup3\n        /* \"#utility.yul\":11500:11567   */\n      tag_120\n      jump\t// in\n    tag_261:\n        /* \"#utility.yul\":11494:11498   */\n      dup7\n        /* \"#utility.yul\":11487:11568   */\n      sstore\n        /* \"#utility.yul\":11356:11578   */\n      pop\n        /* \"#utility.yul\":10691:11578   */\n      jump(tag_258)\n        /* \"#utility.yul\":10721:11339   */\n    tag_259:\n        /* \"#utility.yul\":10773:10777   */\n      0x1f\n        /* \"#utility.yul\":10769:10778   */\n      not\n        /* \"#utility.yul\":10761:10767   */\n      dup5\n        /* \"#utility.yul\":10757:10779   */\n      and\n        /* \"#utility.yul\":10807:10844   */\n      tag_262\n        /* \"#utility.yul\":10839:10843   */\n      dup7\n        /* \"#utility.yul\":10807:10844   */\n      tag_106\n      jump\t// in\n    tag_262:\n        /* \"#utility.yul\":10866:10867   */\n      0x00\n        /* \"#utility.yul\":10880:11088   */\n    tag_263:\n        /* \"#utility.yul\":10894:10901   */\n      dup3\n        /* \"#utility.yul\":10891:10892   */\n      dup2\n        /* \"#utility.yul\":10888:10902   */\n      lt\n        /* \"#utility.yul\":10880:11088   */\n      iszero\n      tag_265\n      jumpi\n        /* \"#utility.yul\":10973:10982   */\n      dup5\n        /* \"#utility.yul\":10968:10971   */\n      dup10\n        /* \"#utility.yul\":10964:10983   */\n      add\n        /* \"#utility.yul\":10958:10984   */\n      mload\n        /* \"#utility.yul\":10950:10956   */\n      dup3\n        /* \"#utility.yul\":10943:10985   */\n      sstore\n        /* \"#utility.yul\":11024:11025   */\n      0x01\n        /* \"#utility.yul\":11016:11022   */\n      dup3\n        /* \"#utility.yul\":11012:11026   */\n      add\n        /* \"#utility.yul\":11002:11026   */\n      swap2\n      pop\n        /* \"#utility.yul\":11071:11073   */\n      0x20\n        /* \"#utility.yul\":11060:11069   */\n      dup6\n        /* \"#utility.yul\":11056:11074   */\n      add\n        /* \"#utility.yul\":11043:11074   */\n      swap5\n      pop\n        /* \"#utility.yul\":10917:10921   */\n      0x20\n        /* \"#utility.yul\":10914:10915   */\n      dup2\n        /* \"#utility.yul\":10910:10922   */\n      add\n        /* \"#utility.yul\":10905:10922   */\n      swap1\n      pop\n        /* \"#utility.yul\":10880:11088   */\n      jump(tag_263)\n    tag_265:\n        /* \"#utility.yul\":11116:11122   */\n      dup7\n        /* \"#utility.yul\":11107:11114   */\n      dup4\n        /* \"#utility.yul\":11104:11123   */\n      lt\n        /* \"#utility.yul\":11101:11280   */\n      iszero\n      tag_266\n      jumpi\n        /* \"#utility.yul\":11174:11183   */\n      dup5\n        /* \"#utility.yul\":11169:11172   */\n      dup10\n        /* \"#utility.yul\":11165:11184   */\n      add\n        /* \"#utility.yul\":11159:11185   */\n      mload\n        /* \"#utility.yul\":11217:11265   */\n      tag_267\n        /* \"#utility.yul\":11259:11263   */\n      0x1f\n        /* \"#utility.yul\":11251:11257   */\n      dup10\n        /* \"#utility.yul\":11247:11264   */\n      and\n        /* \"#utility.yul\":11236:11245   */\n      dup3\n        /* \"#utility.yul\":11217:11265   */\n      tag_119\n      jump\t// in\n    tag_267:\n        /* \"#utility.yul\":11209:11215   */\n      dup4\n        /* \"#utility.yul\":11202:11266   */\n      sstore\n        /* \"#utility.yul\":11124:11280   */\n      pop\n        /* \"#utility.yul\":11101:11280   */\n    tag_266:\n        /* \"#utility.yul\":11326:11327   */\n      0x01\n        /* \"#utility.yul\":11322:11323   */\n      0x02\n        /* \"#utility.yul\":11314:11320   */\n      dup9\n        /* \"#utility.yul\":11310:11324   */\n      mul\n        /* \"#utility.yul\":11306:11328   */\n      add\n        /* \"#utility.yul\":11300:11304   */\n      dup9\n        /* \"#utility.yul\":11293:11329   */\n      sstore\n        /* \"#utility.yul\":10728:11339   */\n      pop\n      pop\n      pop\n        /* \"#utility.yul\":10691:11578   */\n    tag_258:\n      pop\n        /* \"#utility.yul\":10281:11584   */\n      pop\n      pop\n      pop\n        /* \"#utility.yul\":10189:11584   */\n      pop\n      pop\n      jump\t// out\n        /* \"#utility.yul\":11590:11760   */\n    tag_121:\n        /* \"#utility.yul\":11730:11752   */\n      0x496e73756666696369656e742062616c616e6365000000000000000000000000\n        /* \"#utility.yul\":11726:11727   */\n      0x00\n        /* \"#utility.yul\":11718:11724   */\n      dup3\n        /* \"#utility.yul\":11714:11728   */\n      add\n        /* \"#utility.yul\":11707:11753   */\n      mstore\n        /* \"#utility.yul\":11590:11760   */\n      pop\n      jump\t// out\n        /* \"#utility.yul\":11766:12132   */\n    tag_122:\n        /* \"#utility.yul\":11908:11911   */\n      0x00\n        /* \"#utility.yul\":11929:11996   */\n      tag_270\n        /* \"#utility.yul\":11993:11995   */\n      0x14\n        /* \"#utility.yul\":11988:11991   */\n      dup4\n        /* \"#utility.yul\":11929:11996   */\n      tag_102\n      jump\t// in\n    tag_270:\n        /* \"#utility.yul\":11922:11996   */\n      swap2\n      pop\n        /* \"#utility.yul\":12005:12098   */\n      tag_271\n        /* \"#utility.yul\":12094:12097   */\n      dup3\n        /* \"#utility.yul\":12005:12098   */\n      tag_121\n      jump\t// in\n    tag_271:\n        /* \"#utility.yul\":12123:12125   */\n      0x20\n        /* \"#utility.yul\":12118:12121   */\n      dup3\n        /* \"#utility.yul\":12114:12126   */\n      add\n        /* \"#utility.yul\":12107:12126   */\n      swap1\n      pop\n        /* \"#utility.yul\":11766:12132   */\n      swap2\n      swap1\n      pop\n      jump\t// out\n        /* \"#utility.yul\":12138:12557   */\n    tag_56:\n        /* \"#utility.yul\":12304:12308   */\n      0x00\n        /* \"#utility.yul\":12342:12344   */\n      0x20\n        /* \"#utility.yul\":12331:12340   */\n      dup3\n        /* \"#utility.yul\":12327:12345   */\n      add\n        /* \"#utility.yul\":12319:12345   */\n      swap1\n      pop\n        /* \"#utility.yul\":12391:12400   */\n      dup2\n        /* \"#utility.yul\":12385:12389   */\n      dup2\n        /* \"#utility.yul\":12381:12401   */\n      sub\n        /* \"#utility.yul\":12377:12378   */\n      0x00\n        /* \"#utility.yul\":12366:12375   */\n      dup4\n        /* \"#utility.yul\":12362:12379   */\n      add\n        /* \"#utility.yul\":12355:12402   */\n      mstore\n        /* \"#utility.yul\":12419:12550   */\n      tag_273\n        /* \"#utility.yul\":12545:12549   */\n      dup2\n        /* \"#utility.yul\":12419:12550   */\n      tag_122\n      jump\t// in\n    tag_273:\n        /* \"#utility.yul\":12411:12550   */\n      swap1\n      pop\n        /* \"#utility.yul\":12138:12557   */\n      swap2\n      swap1\n      pop\n      jump\t// out\n        /* \"#utility.yul\":12563:12710   */\n    tag_123:\n        /* \"#utility.yul\":12664:12675   */\n      0x00\n        /* \"#utility.yul\":12701:12704   */\n      dup2\n        /* \"#utility.yul\":12686:12704   */\n      swap1\n      pop\n        /* \"#utility.yul\":12563:12710   */\n      swap3\n      swap2\n      pop\n      pop\n      jump\t// out\n        /* \"#utility.yul\":12716:12830   */\n    tag_124:\n      pop\n      jump\t// out\n        /* \"#utility.yul\":12836:13234   */\n    tag_125:\n        /* \"#utility.yul\":12995:12998   */\n      0x00\n        /* \"#utility.yul\":13016:13099   */\n      tag_277\n        /* \"#utility.yul\":13097:13098   */\n      0x00\n        /* \"#utility.yul\":13092:13095   */\n      dup4\n        /* \"#utility.yul\":13016:13099   */\n      tag_123\n      jump\t// in\n    tag_277:\n        /* \"#utility.yul\":13009:13099   */\n      swap2\n      pop\n        /* \"#utility.yul\":13108:13201   */\n      tag_278\n        /* \"#utility.yul\":13197:13200   */\n      dup3\n        /* \"#utility.yul\":13108:13201   */\n      tag_124\n      jump\t// in\n    tag_278:\n        /* \"#utility.yul\":13226:13227   */\n      0x00\n        /* \"#utility.yul\":13221:13224   */\n      dup3\n        /* \"#utility.yul\":13217:13228   */\n      add\n        /* \"#utility.yul\":13210:13228   */\n      swap1\n      pop\n        /* \"#utility.yul\":12836:13234   */\n      swap2\n      swap1\n      pop\n      jump\t// out\n        /* \"#utility.yul\":13240:13619   */\n    tag_58:\n        /* \"#utility.yul\":13424:13427   */\n      0x00\n        /* \"#utility.yul\":13446:13593   */\n      tag_280\n        /* \"#utility.yul\":13589:13592   */\n      dup3\n        /* \"#utility.yul\":13446:13593   */\n      tag_125\n      jump\t// in\n    tag_280:\n        /* \"#utility.yul\":13439:13593   */\n      swap2\n      pop\n        /* \"#utility.yul\":13610:13613   */\n      dup2\n        /* \"#utility.yul\":13603:13613   */\n      swap1\n      pop\n        /* \"#utility.yul\":13240:13619   */\n      swap2\n      swap1\n      pop\n      jump\t// out\n        /* \"#utility.yul\":13625:13790   */\n    tag_126:\n        /* \"#utility.yul\":13765:13782   */\n      0x5472616e73666572206661696c65640000000000000000000000000000000000\n        /* \"#utility.yul\":13761:13762   */\n      0x00\n        /* \"#utility.yul\":13753:13759   */\n      dup3\n        /* \"#utility.yul\":13749:13763   */\n      add\n        /* \"#utility.yul\":13742:13783   */\n      mstore\n        /* \"#utility.yul\":13625:13790   */\n      pop\n      jump\t// out\n        /* \"#utility.yul\":13796:14162   */\n    tag_127:\n        /* \"#utility.yul\":13938:13941   */\n      0x00\n        /* \"#utility.yul\":13959:14026   */\n      tag_283\n        /* \"#utility.yul\":14023:14025   */\n      0x0f\n        /* \"#utility.yul\":14018:14021   */\n      dup4\n        /* \"#utility.yul\":13959:14026   */\n      tag_102\n      jump\t// in\n    tag_283:\n        /* \"#utility.yul\":13952:14026   */\n      swap2\n      pop\n        /* \"#utility.yul\":14035:14128   */\n      tag_284\n        /* \"#utility.yul\":14124:14127   */\n      dup3\n        /* \"#utility.yul\":14035:14128   */\n      tag_126\n      jump\t// in\n    tag_284:\n        /* \"#utility.yul\":14153:14155   */\n      0x20\n        /* \"#utility.yul\":14148:14151   */\n      dup3\n        /* \"#utility.yul\":14144:14156   */\n      add\n        /* \"#utility.yul\":14137:14156   */\n      swap1\n      pop\n        /* \"#utility.yul\":13796:14162   */\n      swap2\n      swap1\n      pop\n      jump\t// out\n        /* \"#utility.yul\":14168:14587   */\n    tag_64:\n        /* \"#utility.yul\":14334:14338   */\n      0x00\n        /* \"#utility.yul\":14372:14374   */\n      0x20\n        /* \"#utility.yul\":14361:14370   */\n      dup3\n        /* \"#utility.yul\":14357:14375   */\n      add\n        /* \"#utility.yul\":14349:14375   */\n      swap1\n      pop\n        /* \"#utility.yul\":14421:14430   */\n      dup2\n        /* \"#utility.yul\":14415:14419   */\n      dup2\n        /* \"#utility.yul\":14411:14431   */\n      sub\n        /* \"#utility.yul\":14407:14408   */\n      0x00\n        /* \"#utility.yul\":14396:14405   */\n      dup4\n        /* \"#utility.yul\":14392:14409   */\n      add\n        /* \"#utility.yul\":14385:14432   */\n      mstore\n        /* \"#utility.yul\":14449:14580   */\n      tag_286\n        /* \"#utility.yul\":14575:14579   */\n      dup2\n        /* \"#utility.yul\":14449:14580   */\n      tag_127\n      jump\t// in\n    tag_286:\n        /* \"#utility.yul\":14441:14580   */\n      swap1\n      pop\n        /* \"#utility.yul\":14168:14587   */\n      swap2\n      swap1\n      pop\n      jump\t// out\n        /* \"#utility.yul\":14593:14755   */\n    tag_128:\n        /* \"#utility.yul\":14733:14747   */\n      0x4e6f7420616e206f776e65720000000000000000000000000000000000000000\n        /* \"#utility.yul\":14729:14730   */\n      0x00\n        /* \"#utility.yul\":14721:14727   */\n      dup3\n        /* \"#utility.yul\":14717:14731   */\n      add\n        /* \"#utility.yul\":14710:14748   */\n      mstore\n        /* \"#utility.yul\":14593:14755   */\n      pop\n      jump\t// out\n        /* \"#utility.yul\":14761:15127   */\n    tag_129:\n        /* \"#utility.yul\":14903:14906   */\n      0x00\n        /* \"#utility.yul\":14924:14991   */\n      tag_289\n        /* \"#utility.yul\":14988:14990   */\n      0x0c\n        /* \"#utility.yul\":14983:14986   */\n      dup4\n        /* \"#utility.yul\":14924:14991   */\n      tag_102\n      jump\t// in\n    tag_289:\n        /* \"#utility.yul\":14917:14991   */\n      swap2\n      pop\n        /* \"#utility.yul\":15000:15093   */\n      tag_290\n        /* \"#utility.yul\":15089:15092   */\n      dup3\n        /* \"#utility.yul\":15000:15093   */\n      tag_128\n      jump\t// in\n    tag_290:\n        /* \"#utility.yul\":15118:15120   */\n      0x20\n        /* \"#utility.yul\":15113:15116   */\n      dup3\n        /* \"#utility.yul\":15109:15121   */\n      add\n        /* \"#utility.yul\":15102:15121   */\n      swap1\n      pop\n        /* \"#utility.yul\":14761:15127   */\n      swap2\n      swap1\n      pop\n      jump\t// out\n        /* \"#utility.yul\":15133:15552   */\n    tag_67:\n        /* \"#utility.yul\":15299:15303   */\n      0x00\n        /* \"#utility.yul\":15337:15339   */\n      0x20\n        /* \"#utility.yul\":15326:15335   */\n      dup3\n        /* \"#utility.yul\":15322:15340   */\n      add\n        /* \"#utility.yul\":15314:15340   */\n      swap1\n      pop\n        /* \"#utility.yul\":15386:15395   */\n      dup2\n        /* \"#utility.yul\":15380:15384   */\n      dup2\n        /* \"#utility.yul\":15376:15396   */\n      sub\n        /* \"#utility.yul\":15372:15373   */\n      0x00\n        /* \"#utility.yul\":15361:15370   */\n      dup4\n        /* \"#utility.yul\":15357:15374   */\n      add\n        /* \"#utility.yul\":15350:15397   */\n      mstore\n        /* \"#utility.yul\":15414:15545   */\n      tag_292\n        /* \"#utility.yul\":15540:15544   */\n      dup2\n        /* \"#utility.yul\":15414:15545   */\n      tag_129\n      jump\t// in\n    tag_292:\n        /* \"#utility.yul\":15406:15545   */\n      swap1\n      pop\n        /* \"#utility.yul\":15133:15552   */\n      swap2\n      swap1\n      pop\n      jump\t// out\n        /* \"#utility.yul\":15558:15738   */\n    tag_130:\n        /* \"#utility.yul\":15606:15683   */\n      0x4e487b7100000000000000000000000000000000000000000000000000000000\n        /* \"#utility.yul\":15603:15604   */\n      0x00\n        /* \"#utility.yul\":15596:15684   */\n      mstore\n        /* \"#utility.yul\":15703:15707   */\n      0x11\n        /* \"#utility.yul\":15700:15701   */\n      0x04\n        /* \"#utility.yul\":15693:15708   */\n      mstore\n        /* \"#utility.yul\":15727:15731   */\n      0x24\n        /* \"#utility.yul\":15724:15725   */\n      0x00\n        /* \"#utility.yul\":15717:15732   */\n      revert\n        /* \"#utility.yul\":15744:16154   */\n    tag_77:\n        /* \"#utility.yul\":15784:15791   */\n      0x00\n        /* \"#utility.yul\":15807:15827   */\n      tag_295\n        /* \"#utility.yul\":15825:15826   */\n      dup3\n        /* \"#utility.yul\":15807:15827   */\n      tag_78\n      jump\t// in\n    tag_295:\n        /* \"#utility.yul\":15802:15827   */\n      swap2\n      pop\n        /* \"#utility.yul\":15841:15861   */\n      tag_296\n        /* \"#utility.yul\":15859:15860   */\n      dup4\n        /* \"#utility.yul\":15841:15861   */\n      tag_78\n      jump\t// in\n    tag_296:\n        /* \"#utility.yul\":15836:15861   */\n      swap3\n      pop\n        /* \"#utility.yul\":15896:15897   */\n      dup3\n        /* \"#utility.yul\":15893:15894   */\n      dup3\n        /* \"#utility.yul\":15889:15898   */\n      mul\n        /* \"#utility.yul\":15918:15948   */\n      tag_297\n        /* \"#utility.yul\":15936:15947   */\n      dup2\n        /* \"#utility.yul\":15918:15948   */\n      tag_78\n      jump\t// in\n    tag_297:\n        /* \"#utility.yul\":15907:15948   */\n      swap2\n      pop\n        /* \"#utility.yul\":16097:16098   */\n      dup3\n        /* \"#utility.yul\":16088:16095   */\n      dup3\n        /* \"#utility.yul\":16084:16099   */\n      div\n        /* \"#utility.yul\":16081:16082   */\n      dup5\n        /* \"#utility.yul\":16078:16100   */\n      eq\n        /* \"#utility.yul\":16058:16059   */\n      dup4\n        /* \"#utility.yul\":16051:16060   */\n      iszero\n        /* \"#utility.yul\":16031:16114   */\n      or\n        /* \"#utility.yul\":16008:16147   */\n      tag_298\n      jumpi\n        /* \"#utility.yul\":16127:16145   */\n      tag_299\n      tag_130\n      jump\t// in\n    tag_299:\n        /* \"#utility.yul\":16008:16147   */\n    tag_298:\n        /* \"#utility.yul\":15792:16154   */\n      pop\n        /* \"#utility.yul\":15744:16154   */\n      swap3\n      swap2\n      pop\n      pop\n      jump\t// out\n\n    auxdata: 0xa264697066735822122007015fb5462ad5474b674d4d29c8ffa8522ba41364d0d6c9e8b514694bd091e764736f6c634300081e0033\n}\n",
				"bytecode": {
					"linkReferences": {},
					"object": "60806040526040518060400160405280600681526020017f68656c6c6f2100000000000000000000000000000000000000000000000000008152505f908161004791906102d6565b50348015610053575f5ffd5b503360015f6101000a81548173ffffffffffffffffffffffffffffffffffffffff021916908373ffffffffffffffffffffffffffffffffffffffff1602179055506103a5565b5f81519050919050565b7f4e487b71000000000000000000000000000000000000000000000000000000005f52604160045260245ffd5b7f4e487b71000000000000000000000000000000000000000000000000000000005f52602260045260245ffd5b5f600282049050600182168061011457607f821691505b602082108103610127576101266100d0565b5b50919050565b5f819050815f5260205f209050919050565b5f6020601f8301049050919050565b5f82821b905092915050565b5f600883026101897fffffffffffffffffffffffffffffffffffffffffffffffffffffffffffffffff8261014e565b610193868361014e565b95508019841693508086168417925050509392505050565b5f819050919050565b5f819050919050565b5f6101d76101d26101cd846101ab565b6101b4565b6101ab565b9050919050565b5f819050919050565b6101f0836101bd565b6102046101fc826101de565b84845461015a565b825550505050565b5f5f905090565b61021b61020c565b6102268184846101e7565b505050565b5b818110156102495761023e5f82610213565b60018101905061022c565b5050565b601f82111561028e5761025f8161012d565b6102688461013f565b81016020851015610277578190505b61028b6102838561013f565b83018261022b565b50505b505050565b5f82821c905092915050565b5f6102ae5f1984600802610293565b1980831691505092915050565b5f6102c6838361029f565b9150826002028217905092915050565b6102df82610099565b67ffffffffffffffff8111156102f8576102f76100a3565b5b61030282546100fd565b61030d82828561024d565b5f60209050601f83116001811461033e575f841561032c578287015190505b61033685826102bb565b86555061039d565b601f19841661034c8661012d565b5f5b828110156103735784890151825560018201915060208501945060208101905061034e565b86831015610390578489015161038c601f89168261029f565b8355505b6001600288020188555050505b505050505050565b610c41806103b25f395ff3fe608060405260043610610073575f3560e01c80638da5cb5b1161004d5780638da5cb5b146100d2578063c1756a2c146100fc578063ce6d41de14610124578063e7ee6ad61461014e57610074565b806312065fe0146100765780631b9265b8146100a0578063368b8772146100aa57610074565b5b005b348015610081575f5ffd5b5061008a61018a565b6040516100979190610405565b60405180910390f35b6100a8610191565b005b3480156100b5575f5ffd5b506100d060048036038101906100cb919061056b565b610193565b005b3480156100dd575f5ffd5b506100e66101a5565b6040516100f391906105f1565b60405180910390f35b348015610107575f5ffd5b50610122600480360381019061011d919061066f565b6101ca565b005b34801561012f575f5ffd5b50610138610349565b604051610145919061070d565b60405180910390f35b348015610159575f5ffd5b50610174600480360381019061016f919061072d565b6103d8565b6040516101819190610405565b60405180910390f35b5f47905090565b565b805f90816101a19190610955565b5050565b60015f9054906101000a900473ffffffffffffffffffffffffffffffffffffffff1681565b8047101561020d576040517f08c379a000000000000000000000000000000000000000000000000000000000815260040161020490610a6e565b60405180910390fd5b5f8273ffffffffffffffffffffffffffffffffffffffff168260405161023290610ab9565b5f6040518083038185875af1925050503d805f811461026c576040519150601f19603f3d011682016040523d82523d5f602084013e610271565b606091505b50509050806102b5576040517f08c379a00000000000000000000000000000000000000000000000000000000081526004016102ac90610b17565b60405180910390fd5b60015f9054906101000a900473ffffffffffffffffffffffffffffffffffffffff1673ffffffffffffffffffffffffffffffffffffffff163373ffffffffffffffffffffffffffffffffffffffff1614610344576040517f08c379a000000000000000000000000000000000000000000000000000000000815260040161033b90610b7f565b60405180910390fd5b505050565b60605f805461035790610785565b80601f016020809104026020016040519081016040528092919081815260200182805461038390610785565b80156103ce5780601f106103a5576101008083540402835291602001916103ce565b820191905f5260205f20905b8154815290600101906020018083116103b157829003601f168201915b5050505050905090565b5f6003826103e69190610bca565b9050919050565b5f819050919050565b6103ff816103ed565b82525050565b5f6020820190506104185f8301846103f6565b92915050565b5f604051905090565b5f5ffd5b5f5ffd5b5f5ffd5b5f5ffd5b5f601f19601f8301169050919050565b7f4e487b71000000000000000000000000000000000000000000000000000000005f52604160045260245ffd5b61047d82610437565b810181811067ffffffffffffffff8211171561049c5761049b610447565b5b80604052505050565b5f6104ae61041e565b90506104ba8282610474565b919050565b5f67ffffffffffffffff8211156104d9576104d8610447565b5b6104e282610437565b9050602081019050919050565b828183375f83830152505050565b5f61050f61050a846104bf565b6104a5565b90508281526020810184848401111561052b5761052a610433565b5b6105368482856104ef565b509392505050565b5f82601f8301126105525761055161042f565b5b81356105628482602086016104fd565b91505092915050565b5f602082840312156105805761057f610427565b5b5f82013567ffffffffffffffff81111561059d5761059c61042b565b5b6105a98482850161053e565b91505092915050565b5f73ffffffffffffffffffffffffffffffffffffffff82169050919050565b5f6105db826105b2565b9050919050565b6105eb816105d1565b82525050565b5f6020820190506106045f8301846105e2565b92915050565b5f610614826105b2565b9050919050565b6106248161060a565b811461062e575f5ffd5b50565b5f8135905061063f8161061b565b92915050565b61064e816103ed565b8114610658575f5ffd5b50565b5f8135905061066981610645565b92915050565b5f5f6040838503121561068557610684610427565b5b5f61069285828601610631565b92505060206106a38582860161065b565b9150509250929050565b5f81519050919050565b5f82825260208201905092915050565b8281835e5f83830152505050565b5f6106df826106ad565b6106e981856106b7565b93506106f98185602086016106c7565b61070281610437565b840191505092915050565b5f6020820190508181035f83015261072581846106d5565b905092915050565b5f6020828403121561074257610741610427565b5b5f61074f8482850161065b565b91505092915050565b7f4e487b71000000000000000000000000000000000000000000000000000000005f52602260045260245ffd5b5f600282049050600182168061079c57607f821691505b6020821081036107af576107ae610758565b5b50919050565b5f819050815f5260205f209050919050565b5f6020601f8301049050919050565b5f82821b905092915050565b5f600883026108117fffffffffffffffffffffffffffffffffffffffffffffffffffffffffffffffff826107d6565b61081b86836107d6565b95508019841693508086168417925050509392505050565b5f819050919050565b5f61085661085161084c846103ed565b610833565b6103ed565b9050919050565b5f819050919050565b61086f8361083c565b61088361087b8261085d565b8484546107e2565b825550505050565b5f5f905090565b61089a61088b565b6108a5818484610866565b505050565b5b818110156108c8576108bd5f82610892565b6001810190506108ab565b5050565b601f82111561090d576108de816107b5565b6108e7846107c7565b810160208510156108f6578190505b61090a610902856107c7565b8301826108aa565b50505b505050565b5f82821c905092915050565b5f61092d5f1984600802610912565b1980831691505092915050565b5f610945838361091e565b9150826002028217905092915050565b61095e826106ad565b67ffffffffffffffff81111561097757610976610447565b5b6109818254610785565b61098c8282856108cc565b5f60209050601f8311600181146109bd575f84156109ab578287015190505b6109b5858261093a565b865550610a1c565b601f1984166109cb866107b5565b5f5b828110156109f2578489015182556001820191506020850194506020810190506109cd565b86831015610a0f5784890151610a0b601f89168261091e565b8355505b6001600288020188555050505b505050505050565b7f496e73756666696369656e742062616c616e63650000000000000000000000005f82015250565b5f610a586014836106b7565b9150610a6382610a24565b602082019050919050565b5f6020820190508181035f830152610a8581610a4c565b9050919050565b5f81905092915050565b50565b5f610aa45f83610a8c565b9150610aaf82610a96565b5f82019050919050565b5f610ac382610a99565b9150819050919050565b7f5472616e73666572206661696c656400000000000000000000000000000000005f82015250565b5f610b01600f836106b7565b9150610b0c82610acd565b602082019050919050565b5f6020820190508181035f830152610b2e81610af5565b9050919050565b7f4e6f7420616e206f776e657200000000000000000000000000000000000000005f82015250565b5f610b69600c836106b7565b9150610b7482610b35565b602082019050919050565b5f6020820190508181035f830152610b9681610b5d565b9050919050565b7f4e487b71000000000000000000000000000000000000000000000000000000005f52601160045260245ffd5b5f610bd4826103ed565b9150610bdf836103ed565b9250828202610bed816103ed565b91508282048414831517610c0457610c03610b9d565b5b509291505056fea264697066735822122007015fb5462ad5474b674d4d29c8ffa8522ba41364d0d6c9e8b514694bd091e764736f6c634300081e0033",
					"opcodes": "PUSH1 0x80 PUSH1 0x40 MSTORE PUSH1 0x40 MLOAD DUP1 PUSH1 0x40 ADD PUSH1 0x40 MSTORE DUP1 PUSH1 0x6 DUP2 MSTORE PUSH1 0x20 ADD PUSH32 0x68656C6C6F210000000000000000000000000000000000000000000000000000 DUP2 MSTORE POP PUSH0 SWAP1 DUP2 PUSH2 0x47 SWAP2 SWAP1 PUSH2 0x2D6 JUMP JUMPDEST POP CALLVALUE DUP1 ISZERO PUSH2 0x53 JUMPI PUSH0 PUSH0 REVERT JUMPDEST POP CALLER PUSH1 0x1 PUSH0 PUSH2 0x100 EXP DUP2 SLOAD DUP2 PUSH20 0xFFFFFFFFFFFFFFFFFFFFFFFFFFFFFFFFFFFFFFFF MUL NOT AND SWAP1 DUP4 PUSH20 0xFFFFFFFFFFFFFFFFFFFFFFFFFFFFFFFFFFFFFFFF AND MUL OR SWAP1 SSTORE POP PUSH2 0x3A5 JUMP JUMPDEST PUSH0 DUP2 MLOAD SWAP1 POP SWAP2 SWAP1 POP JUMP JUMPDEST PUSH32 0x4E487B7100000000000000000000000000000000000000000000000000000000 PUSH0 MSTORE PUSH1 0x41 PUSH1 0x4 MSTORE PUSH1 0x24 PUSH0 REVERT JUMPDEST PUSH32 0x4E487B7100000000000000000000000000000000000000000000000000000000 PUSH0 MSTORE PUSH1 0x22 PUSH1 0x4 MSTORE PUSH1 0x24 PUSH0 REVERT JUMPDEST PUSH0 PUSH1 0x2 DUP3 DIV SWAP1 POP PUSH1 0x1 DUP3 AND DUP1 PUSH2 0x114 JUMPI PUSH1 0x7F DUP3 AND SWAP2 POP JUMPDEST PUSH1 0x20 DUP3 LT DUP2 SUB PUSH2 0x127 JUMPI PUSH2 0x126 PUSH2 0xD0 JUMP JUMPDEST JUMPDEST POP SWAP2 SWAP1 POP JUMP JUMPDEST PUSH0 DUP2 SWAP1 POP DUP2 PUSH0 MSTORE PUSH1 0x20 PUSH0 KECCAK256 SWAP1 POP SWAP2 SWAP1 POP JUMP JUMPDEST PUSH0 PUSH1 0x20 PUSH1 0x1F DUP4 ADD DIV SWAP1 POP SWAP2 SWAP1 POP JUMP JUMPDEST PUSH0 DUP3 DUP3 SHL SWAP1 POP SWAP3 SWAP2 POP POP JUMP JUMPDEST PUSH0 PUSH1 0x8 DUP4 MUL PUSH2 0x189 PUSH32 0xFFFFFFFFFFFFFFFFFFFFFFFFFFFFFFFFFFFFFFFFFFFFFFFFFFFFFFFFFFFFFFFF DUP3 PUSH2 0x14E JUMP JUMPDEST PUSH2 0x193 DUP7 DUP4 PUSH2 0x14E JUMP JUMPDEST SWAP6 POP DUP1 NOT DUP5 AND SWAP4 POP DUP1 DUP7 AND DUP5 OR SWAP3 POP POP POP SWAP4 SWAP3 POP POP POP JUMP JUMPDEST PUSH0 DUP2 SWAP1 POP SWAP2 SWAP1 POP JUMP JUMPDEST PUSH0 DUP2 SWAP1 POP SWAP2 SWAP1 POP JUMP JUMPDEST PUSH0 PUSH2 0x1D7 PUSH2 0x1D2 PUSH2 0x1CD DUP5 PUSH2 0x1AB JUMP JUMPDEST PUSH2 0x1B4 JUMP JUMPDEST PUSH2 0x1AB JUMP JUMPDEST SWAP1 POP SWAP2 SWAP1 POP JUMP JUMPDEST PUSH0 DUP2 SWAP1 POP SWAP2 SWAP1 POP JUMP JUMPDEST PUSH2 0x1F0 DUP4 PUSH2 0x1BD JUMP JUMPDEST PUSH2 0x204 PUSH2 0x1FC DUP3 PUSH2 0x1DE JUMP JUMPDEST DUP5 DUP5 SLOAD PUSH2 0x15A JUMP JUMPDEST DUP3 SSTORE POP POP POP POP JUMP JUMPDEST PUSH0 PUSH0 SWAP1 POP SWAP1 JUMP JUMPDEST PUSH2 0x21B PUSH2 0x20C JUMP JUMPDEST PUSH2 0x226 DUP2 DUP5 DUP5 PUSH2 0x1E7 JUMP JUMPDEST POP POP POP JUMP JUMPDEST JUMPDEST DUP2 DUP2 LT ISZERO PUSH2 0x249 JUMPI PUSH2 0x23E PUSH0 DUP3 PUSH2 0x213 JUMP JUMPDEST PUSH1 0x1 DUP2 ADD SWAP1 POP PUSH2 0x22C JUMP JUMPDEST POP POP JUMP JUMPDEST PUSH1 0x1F DUP3 GT ISZERO PUSH2 0x28E JUMPI PUSH2 0x25F DUP2 PUSH2 0x12D JUMP JUMPDEST PUSH2 0x268 DUP5 PUSH2 0x13F JUMP JUMPDEST DUP2 ADD PUSH1 0x20 DUP6 LT ISZERO PUSH2 0x277 JUMPI DUP2 SWAP1 POP JUMPDEST PUSH2 0x28B PUSH2 0x283 DUP6 PUSH2 0x13F JUMP JUMPDEST DUP4 ADD DUP3 PUSH2 0x22B JUMP JUMPDEST POP POP JUMPDEST POP POP POP JUMP JUMPDEST PUSH0 DUP3 DUP3 SHR SWAP1 POP SWAP3 SWAP2 POP POP JUMP JUMPDEST PUSH0 PUSH2 0x2AE PUSH0 NOT DUP5 PUSH1 0x8 MUL PUSH2 0x293 JUMP JUMPDEST NOT DUP1 DUP4 AND SWAP2 POP POP SWAP3 SWAP2 POP POP JUMP JUMPDEST PUSH0 PUSH2 0x2C6 DUP4 DUP4 PUSH2 0x29F JUMP JUMPDEST SWAP2 POP DUP3 PUSH1 0x2 MUL DUP3 OR SWAP1 POP SWAP3 SWAP2 POP POP JUMP JUMPDEST PUSH2 0x2DF DUP3 PUSH2 0x99 JUMP JUMPDEST PUSH8 0xFFFFFFFFFFFFFFFF DUP2 GT ISZERO PUSH2 0x2F8 JUMPI PUSH2 0x2F7 PUSH2 0xA3 JUMP JUMPDEST JUMPDEST PUSH2 0x302 DUP3 SLOAD PUSH2 0xFD JUMP JUMPDEST PUSH2 0x30D DUP3 DUP3 DUP6 PUSH2 0x24D JUMP JUMPDEST PUSH0 PUSH1 0x20 SWAP1 POP PUSH1 0x1F DUP4 GT PUSH1 0x1 DUP2 EQ PUSH2 0x33E JUMPI PUSH0 DUP5 ISZERO PUSH2 0x32C JUMPI DUP3 DUP8 ADD MLOAD SWAP1 POP JUMPDEST PUSH2 0x336 DUP6 DUP3 PUSH2 0x2BB JUMP JUMPDEST DUP7 SSTORE POP PUSH2 0x39D JUMP JUMPDEST PUSH1 0x1F NOT DUP5 AND PUSH2 0x34C DUP7 PUSH2 0x12D JUMP JUMPDEST PUSH0 JUMPDEST DUP3 DUP2 LT ISZERO PUSH2 0x373 JUMPI DUP5 DUP10 ADD MLOAD DUP3 SSTORE PUSH1 0x1 DUP3 ADD SWAP2 POP PUSH1 0x20 DUP6 ADD SWAP5 POP PUSH1 0x20 DUP2 ADD SWAP1 POP PUSH2 0x34E JUMP JUMPDEST DUP7 DUP4 LT ISZERO PUSH2 0x390 JUMPI DUP5 DUP10 ADD MLOAD PUSH2 0x38C PUSH1 0x1F DUP10 AND DUP3 PUSH2 0x29F JUMP JUMPDEST DUP4 SSTORE POP JUMPDEST PUSH1 0x1 PUSH1 0x2 DUP9 MUL ADD DUP9 SSTORE POP POP POP JUMPDEST POP POP POP POP POP POP JUMP JUMPDEST PUSH2 0xC41 DUP1 PUSH2 0x3B2 PUSH0 CODECOPY PUSH0 RETURN INVALID PUSH1 0x80 PUSH1 0x40 MSTORE PUSH1 0x4 CALLDATASIZE LT PUSH2 0x73 JUMPI PUSH0 CALLDATALOAD PUSH1 0xE0 SHR DUP1 PUSH4 0x8DA5CB5B GT PUSH2 0x4D JUMPI DUP1 PUSH4 0x8DA5CB5B EQ PUSH2 0xD2 JUMPI DUP1 PUSH4 0xC1756A2C EQ PUSH2 0xFC JUMPI DUP1 PUSH4 0xCE6D41DE EQ PUSH2 0x124 JUMPI DUP1 PUSH4 0xE7EE6AD6 EQ PUSH2 0x14E JUMPI PUSH2 0x74 JUMP JUMPDEST DUP1 PUSH4 0x12065FE0 EQ PUSH2 0x76 JUMPI DUP1 PUSH4 0x1B9265B8 EQ PUSH2 0xA0 JUMPI DUP1 PUSH4 0x368B8772 EQ PUSH2 0xAA JUMPI PUSH2 0x74 JUMP JUMPDEST JUMPDEST STOP JUMPDEST CALLVALUE DUP1 ISZERO PUSH2 0x81 JUMPI PUSH0 PUSH0 REVERT JUMPDEST POP PUSH2 0x8A PUSH2 0x18A JUMP JUMPDEST PUSH1 0x40 MLOAD PUSH2 0x97 SWAP2 SWAP1 PUSH2 0x405 JUMP JUMPDEST PUSH1 0x40 MLOAD DUP1 SWAP2 SUB SWAP1 RETURN JUMPDEST PUSH2 0xA8 PUSH2 0x191 JUMP JUMPDEST STOP JUMPDEST CALLVALUE DUP1 ISZERO PUSH2 0xB5 JUMPI PUSH0 PUSH0 REVERT JUMPDEST POP PUSH2 0xD0 PUSH1 0x4 DUP1 CALLDATASIZE SUB DUP2 ADD SWAP1 PUSH2 0xCB SWAP2 SWAP1 PUSH2 0x56B JUMP JUMPDEST PUSH2 0x193 JUMP JUMPDEST STOP JUMPDEST CALLVALUE DUP1 ISZERO PUSH2 0xDD JUMPI PUSH0 PUSH0 REVERT JUMPDEST POP PUSH2 0xE6 PUSH2 0x1A5 JUMP JUMPDEST PUSH1 0x40 MLOAD PUSH2 0xF3 SWAP2 SWAP1 PUSH2 0x5F1 JUMP JUMPDEST PUSH1 0x40 MLOAD DUP1 SWAP2 SUB SWAP1 RETURN JUMPDEST CALLVALUE DUP1 ISZERO PUSH2 0x107 JUMPI PUSH0 PUSH0 REVERT JUMPDEST POP PUSH2 0x122 PUSH1 0x4 DUP1 CALLDATASIZE SUB DUP2 ADD SWAP1 PUSH2 0x11D SWAP2 SWAP1 PUSH2 0x66F JUMP JUMPDEST PUSH2 0x1CA JUMP JUMPDEST STOP JUMPDEST CALLVALUE DUP1 ISZERO PUSH2 0x12F JUMPI PUSH0 PUSH0 REVERT JUMPDEST POP PUSH2 0x138 PUSH2 0x349 JUMP JUMPDEST PUSH1 0x40 MLOAD PUSH2 0x145 SWAP2 SWAP1 PUSH2 0x70D JUMP JUMPDEST PUSH1 0x40 MLOAD DUP1 SWAP2 SUB SWAP1 RETURN JUMPDEST CALLVALUE DUP1 ISZERO PUSH2 0x159 JUMPI PUSH0 PUSH0 REVERT JUMPDEST POP PUSH2 0x174 PUSH1 0x4 DUP1 CALLDATASIZE SUB DUP2 ADD SWAP1 PUSH2 0x16F SWAP2 SWAP1 PUSH2 0x72D JUMP JUMPDEST PUSH2 0x3D8 JUMP JUMPDEST PUSH1 0x40 MLOAD PUSH2 0x181 SWAP2 SWAP1 PUSH2 0x405 JUMP JUMPDEST PUSH1 0x40 MLOAD DUP1 SWAP2 SUB SWAP1 RETURN JUMPDEST PUSH0 SELFBALANCE SWAP1 POP SWAP1 JUMP JUMPDEST JUMP JUMPDEST DUP1 PUSH0 SWAP1 DUP2 PUSH2 0x1A1 SWAP2 SWAP1 PUSH2 0x955 JUMP JUMPDEST POP POP JUMP JUMPDEST PUSH1 0x1 PUSH0 SWAP1 SLOAD SWAP1 PUSH2 0x100 EXP SWAP1 DIV PUSH20 0xFFFFFFFFFFFFFFFFFFFFFFFFFFFFFFFFFFFFFFFF AND DUP2 JUMP JUMPDEST DUP1 SELFBALANCE LT ISZERO PUSH2 0x20D JUMPI PUSH1 0x40 MLOAD PUSH32 0x8C379A000000000000000000000000000000000000000000000000000000000 DUP2 MSTORE PUSH1 0x4 ADD PUSH2 0x204 SWAP1 PUSH2 0xA6E JUMP JUMPDEST PUSH1 0x40 MLOAD DUP1 SWAP2 SUB SWAP1 REVERT JUMPDEST PUSH0 DUP3 PUSH20 0xFFFFFFFFFFFFFFFFFFFFFFFFFFFFFFFFFFFFFFFF AND DUP3 PUSH1 0x40 MLOAD PUSH2 0x232 SWAP1 PUSH2 0xAB9 JUMP JUMPDEST PUSH0 PUSH1 0x40 MLOAD DUP1 DUP4 SUB DUP2 DUP6 DUP8 GAS CALL SWAP3 POP POP POP RETURNDATASIZE DUP1 PUSH0 DUP2 EQ PUSH2 0x26C JUMPI PUSH1 0x40 MLOAD SWAP2 POP PUSH1 0x1F NOT PUSH1 0x3F RETURNDATASIZE ADD AND DUP3 ADD PUSH1 0x40 MSTORE RETURNDATASIZE DUP3 MSTORE RETURNDATASIZE PUSH0 PUSH1 0x20 DUP5 ADD RETURNDATACOPY PUSH2 0x271 JUMP JUMPDEST PUSH1 0x60 SWAP2 POP JUMPDEST POP POP SWAP1 POP DUP1 PUSH2 0x2B5 JUMPI PUSH1 0x40 MLOAD PUSH32 0x8C379A000000000000000000000000000000000000000000000000000000000 DUP2 MSTORE PUSH1 0x4 ADD PUSH2 0x2AC SWAP1 PUSH2 0xB17 JUMP JUMPDEST PUSH1 0x40 MLOAD DUP1 SWAP2 SUB SWAP1 REVERT JUMPDEST PUSH1 0x1 PUSH0 SWAP1 SLOAD SWAP1 PUSH2 0x100 EXP SWAP1 DIV PUSH20 0xFFFFFFFFFFFFFFFFFFFFFFFFFFFFFFFFFFFFFFFF AND PUSH20 0xFFFFFFFFFFFFFFFFFFFFFFFFFFFFFFFFFFFFFFFF AND CALLER PUSH20 0xFFFFFFFFFFFFFFFFFFFFFFFFFFFFFFFFFFFFFFFF AND EQ PUSH2 0x344 JUMPI PUSH1 0x40 MLOAD PUSH32 0x8C379A000000000000000000000000000000000000000000000000000000000 DUP2 MSTORE PUSH1 0x4 ADD PUSH2 0x33B SWAP1 PUSH2 0xB7F JUMP JUMPDEST PUSH1 0x40 MLOAD DUP1 SWAP2 SUB SWAP1 REVERT JUMPDEST POP POP POP JUMP JUMPDEST PUSH1 0x60 PUSH0 DUP1 SLOAD PUSH2 0x357 SWAP1 PUSH2 0x785 JUMP JUMPDEST DUP1 PUSH1 0x1F ADD PUSH1 0x20 DUP1 SWAP2 DIV MUL PUSH1 0x20 ADD PUSH1 0x40 MLOAD SWAP1 DUP2 ADD PUSH1 0x40 MSTORE DUP1 SWAP3 SWAP2 SWAP1 DUP2 DUP2 MSTORE PUSH1 0x20 ADD DUP3 DUP1 SLOAD PUSH2 0x383 SWAP1 PUSH2 0x785 JUMP JUMPDEST DUP1 ISZERO PUSH2 0x3CE JUMPI DUP1 PUSH1 0x1F LT PUSH2 0x3A5 JUMPI PUSH2 0x100 DUP1 DUP4 SLOAD DIV MUL DUP4 MSTORE SWAP2 PUSH1 0x20 ADD SWAP2 PUSH2 0x3CE JUMP JUMPDEST DUP3 ADD SWAP2 SWAP1 PUSH0 MSTORE PUSH1 0x20 PUSH0 KECCAK256 SWAP1 JUMPDEST DUP2 SLOAD DUP2 MSTORE SWAP1 PUSH1 0x1 ADD SWAP1 PUSH1 0x20 ADD DUP1 DUP4 GT PUSH2 0x3B1 JUMPI DUP3 SWAP1 SUB PUSH1 0x1F AND DUP3 ADD SWAP2 JUMPDEST POP POP POP POP POP SWAP1 POP SWAP1 JUMP JUMPDEST PUSH0 PUSH1 0x3 DUP3 PUSH2 0x3E6 SWAP2 SWAP1 PUSH2 0xBCA JUMP JUMPDEST SWAP1 POP SWAP2 SWAP1 POP JUMP JUMPDEST PUSH0 DUP2 SWAP1 POP SWAP2 SWAP1 POP JUMP JUMPDEST PUSH2 0x3FF DUP2 PUSH2 0x3ED JUMP JUMPDEST DUP3 MSTORE POP POP JUMP JUMPDEST PUSH0 PUSH1 0x20 DUP3 ADD SWAP1 POP PUSH2 0x418 PUSH0 DUP4 ADD DUP5 PUSH2 0x3F6 JUMP JUMPDEST SWAP3 SWAP2 POP POP JUMP JUMPDEST PUSH0 PUSH1 0x40 MLOAD SWAP1 POP SWAP1 JUMP JUMPDEST PUSH0 PUSH0 REVERT JUMPDEST PUSH0 PUSH0 REVERT JUMPDEST PUSH0 PUSH0 REVERT JUMPDEST PUSH0 PUSH0 REVERT JUMPDEST PUSH0 PUSH1 0x1F NOT PUSH1 0x1F DUP4 ADD AND SWAP1 POP SWAP2 SWAP1 POP JUMP JUMPDEST PUSH32 0x4E487B7100000000000000000000000000000000000000000000000000000000 PUSH0 MSTORE PUSH1 0x41 PUSH1 0x4 MSTORE PUSH1 0x24 PUSH0 REVERT JUMPDEST PUSH2 0x47D DUP3 PUSH2 0x437 JUMP JUMPDEST DUP2 ADD DUP2 DUP2 LT PUSH8 0xFFFFFFFFFFFFFFFF DUP3 GT OR ISZERO PUSH2 0x49C JUMPI PUSH2 0x49B PUSH2 0x447 JUMP JUMPDEST JUMPDEST DUP1 PUSH1 0x40 MSTORE POP POP POP JUMP JUMPDEST PUSH0 PUSH2 0x4AE PUSH2 0x41E JUMP JUMPDEST SWAP1 POP PUSH2 0x4BA DUP3 DUP3 PUSH2 0x474 JUMP JUMPDEST SWAP2 SWAP1 POP JUMP JUMPDEST PUSH0 PUSH8 0xFFFFFFFFFFFFFFFF DUP3 GT ISZERO PUSH2 0x4D9 JUMPI PUSH2 0x4D8 PUSH2 0x447 JUMP JUMPDEST JUMPDEST PUSH2 0x4E2 DUP3 PUSH2 0x437 JUMP JUMPDEST SWAP1 POP PUSH1 0x20 DUP2 ADD SWAP1 POP SWAP2 SWAP1 POP JUMP JUMPDEST DUP3 DUP2 DUP4 CALLDATACOPY PUSH0 DUP4 DUP4 ADD MSTORE POP POP POP JUMP JUMPDEST PUSH0 PUSH2 0x50F PUSH2 0x50A DUP5 PUSH2 0x4BF JUMP JUMPDEST PUSH2 0x4A5 JUMP JUMPDEST SWAP1 POP DUP3 DUP2 MSTORE PUSH1 0x20 DUP2 ADD DUP5 DUP5 DUP5 ADD GT ISZERO PUSH2 0x52B JUMPI PUSH2 0x52A PUSH2 0x433 JUMP JUMPDEST JUMPDEST PUSH2 0x536 DUP5 DUP3 DUP6 PUSH2 0x4EF JUMP JUMPDEST POP SWAP4 SWAP3 POP POP POP JUMP JUMPDEST PUSH0 DUP3 PUSH1 0x1F DUP4 ADD SLT PUSH2 0x552 JUMPI PUSH2 0x551 PUSH2 0x42F JUMP JUMPDEST JUMPDEST DUP2 CALLDATALOAD PUSH2 0x562 DUP5 DUP3 PUSH1 0x20 DUP7 ADD PUSH2 0x4FD JUMP JUMPDEST SWAP2 POP POP SWAP3 SWAP2 POP POP JUMP JUMPDEST PUSH0 PUSH1 0x20 DUP3 DUP5 SUB SLT ISZERO PUSH2 0x580 JUMPI PUSH2 0x57F PUSH2 0x427 JUMP JUMPDEST JUMPDEST PUSH0 DUP3 ADD CALLDATALOAD PUSH8 0xFFFFFFFFFFFFFFFF DUP2 GT ISZERO PUSH2 0x59D JUMPI PUSH2 0x59C PUSH2 0x42B JUMP JUMPDEST JUMPDEST PUSH2 0x5A9 DUP5 DUP3 DUP6 ADD PUSH2 0x53E JUMP JUMPDEST SWAP2 POP POP SWAP3 SWAP2 POP POP JUMP JUMPDEST PUSH0 PUSH20 0xFFFFFFFFFFFFFFFFFFFFFFFFFFFFFFFFFFFFFFFF DUP3 AND SWAP1 POP SWAP2 SWAP1 POP JUMP JUMPDEST PUSH0 PUSH2 0x5DB DUP3 PUSH2 0x5B2 JUMP JUMPDEST SWAP1 POP SWAP2 SWAP1 POP JUMP JUMPDEST PUSH2 0x5EB DUP2 PUSH2 0x5D1 JUMP JUMPDEST DUP3 MSTORE POP POP JUMP JUMPDEST PUSH0 PUSH1 0x20 DUP3 ADD SWAP1 POP PUSH2 0x604 PUSH0 DUP4 ADD DUP5 PUSH2 0x5E2 JUMP JUMPDEST SWAP3 SWAP2 POP POP JUMP JUMPDEST PUSH0 PUSH2 0x614 DUP3 PUSH2 0x5B2 JUMP JUMPDEST SWAP1 POP SWAP2 SWAP1 POP JUMP JUMPDEST PUSH2 0x624 DUP2 PUSH2 0x60A JUMP JUMPDEST DUP2 EQ PUSH2 0x62E JUMPI PUSH0 PUSH0 REVERT JUMPDEST POP JUMP JUMPDEST PUSH0 DUP2 CALLDATALOAD SWAP1 POP PUSH2 0x63F DUP2 PUSH2 0x61B JUMP JUMPDEST SWAP3 SWAP2 POP POP JUMP JUMPDEST PUSH2 0x64E DUP2 PUSH2 0x3ED JUMP JUMPDEST DUP2 EQ PUSH2 0x658 JUMPI PUSH0 PUSH0 REVERT JUMPDEST POP JUMP JUMPDEST PUSH0 DUP2 CALLDATALOAD SWAP1 POP PUSH2 0x669 DUP2 PUSH2 0x645 JUMP JUMPDEST SWAP3 SWAP2 POP POP JUMP JUMPDEST PUSH0 PUSH0 PUSH1 0x40 DUP4 DUP6 SUB SLT ISZERO PUSH2 0x685 JUMPI PUSH2 0x684 PUSH2 0x427 JUMP JUMPDEST JUMPDEST PUSH0 PUSH2 0x692 DUP6 DUP3 DUP7 ADD PUSH2 0x631 JUMP JUMPDEST SWAP3 POP POP PUSH1 0x20 PUSH2 0x6A3 DUP6 DUP3 DUP7 ADD PUSH2 0x65B JUMP JUMPDEST SWAP2 POP POP SWAP3 POP SWAP3 SWAP1 POP JUMP JUMPDEST PUSH0 DUP2 MLOAD SWAP1 POP SWAP2 SWAP1 POP JUMP JUMPDEST PUSH0 DUP3 DUP3 MSTORE PUSH1 0x20 DUP3 ADD SWAP1 POP SWAP3 SWAP2 POP POP JUMP JUMPDEST DUP3 DUP2 DUP4 MCOPY PUSH0 DUP4 DUP4 ADD MSTORE POP POP POP JUMP JUMPDEST PUSH0 PUSH2 0x6DF DUP3 PUSH2 0x6AD JUMP JUMPDEST PUSH2 0x6E9 DUP2 DUP6 PUSH2 0x6B7 JUMP JUMPDEST SWAP4 POP PUSH2 0x6F9 DUP2 DUP6 PUSH1 0x20 DUP7 ADD PUSH2 0x6C7 JUMP JUMPDEST PUSH2 0x702 DUP2 PUSH2 0x437 JUMP JUMPDEST DUP5 ADD SWAP2 POP POP SWAP3 SWAP2 POP POP JUMP JUMPDEST PUSH0 PUSH1 0x20 DUP3 ADD SWAP1 POP DUP2 DUP2 SUB PUSH0 DUP4 ADD MSTORE PUSH2 0x725 DUP2 DUP5 PUSH2 0x6D5 JUMP JUMPDEST SWAP1 POP SWAP3 SWAP2 POP POP JUMP JUMPDEST PUSH0 PUSH1 0x20 DUP3 DUP5 SUB SLT ISZERO PUSH2 0x742 JUMPI PUSH2 0x741 PUSH2 0x427 JUMP JUMPDEST JUMPDEST PUSH0 PUSH2 0x74F DUP5 DUP3 DUP6 ADD PUSH2 0x65B JUMP JUMPDEST SWAP2 POP POP SWAP3 SWAP2 POP POP JUMP JUMPDEST PUSH32 0x4E487B7100000000000000000000000000000000000000000000000000000000 PUSH0 MSTORE PUSH1 0x22 PUSH1 0x4 MSTORE PUSH1 0x24 PUSH0 REVERT JUMPDEST PUSH0 PUSH1 0x2 DUP3 DIV SWAP1 POP PUSH1 0x1 DUP3 AND DUP1 PUSH2 0x79C JUMPI PUSH1 0x7F DUP3 AND SWAP2 POP JUMPDEST PUSH1 0x20 DUP3 LT DUP2 SUB PUSH2 0x7AF JUMPI PUSH2 0x7AE PUSH2 0x758 JUMP JUMPDEST JUMPDEST POP SWAP2 SWAP1 POP JUMP JUMPDEST PUSH0 DUP2 SWAP1 POP DUP2 PUSH0 MSTORE PUSH1 0x20 PUSH0 KECCAK256 SWAP1 POP SWAP2 SWAP1 POP JUMP JUMPDEST PUSH0 PUSH1 0x20 PUSH1 0x1F DUP4 ADD DIV SWAP1 POP SWAP2 SWAP1 POP JUMP JUMPDEST PUSH0 DUP3 DUP3 SHL SWAP1 POP SWAP3 SWAP2 POP POP JUMP JUMPDEST PUSH0 PUSH1 0x8 DUP4 MUL PUSH2 0x811 PUSH32 0xFFFFFFFFFFFFFFFFFFFFFFFFFFFFFFFFFFFFFFFFFFFFFFFFFFFFFFFFFFFFFFFF DUP3 PUSH2 0x7D6 JUMP JUMPDEST PUSH2 0x81B DUP7 DUP4 PUSH2 0x7D6 JUMP JUMPDEST SWAP6 POP DUP1 NOT DUP5 AND SWAP4 POP DUP1 DUP7 AND DUP5 OR SWAP3 POP POP POP SWAP4 SWAP3 POP POP POP JUMP JUMPDEST PUSH0 DUP2 SWAP1 POP SWAP2 SWAP1 POP JUMP JUMPDEST PUSH0 PUSH2 0x856 PUSH2 0x851 PUSH2 0x84C DUP5 PUSH2 0x3ED JUMP JUMPDEST PUSH2 0x833 JUMP JUMPDEST PUSH2 0x3ED JUMP JUMPDEST SWAP1 POP SWAP2 SWAP1 POP JUMP JUMPDEST PUSH0 DUP2 SWAP1 POP SWAP2 SWAP1 POP JUMP JUMPDEST PUSH2 0x86F DUP4 PUSH2 0x83C JUMP JUMPDEST PUSH2 0x883 PUSH2 0x87B DUP3 PUSH2 0x85D JUMP JUMPDEST DUP5 DUP5 SLOAD PUSH2 0x7E2 JUMP JUMPDEST DUP3 SSTORE POP POP POP POP JUMP JUMPDEST PUSH0 PUSH0 SWAP1 POP SWAP1 JUMP JUMPDEST PUSH2 0x89A PUSH2 0x88B JUMP JUMPDEST PUSH2 0x8A5 DUP2 DUP5 DUP5 PUSH2 0x866 JUMP JUMPDEST POP POP POP JUMP JUMPDEST JUMPDEST DUP2 DUP2 LT ISZERO PUSH2 0x8C8 JUMPI PUSH2 0x8BD PUSH0 DUP3 PUSH2 0x892 JUMP JUMPDEST PUSH1 0x1 DUP2 ADD SWAP1 POP PUSH2 0x8AB JUMP JUMPDEST POP POP JUMP JUMPDEST PUSH1 0x1F DUP3 GT ISZERO PUSH2 0x90D JUMPI PUSH2 0x8DE DUP2 PUSH2 0x7B5 JUMP JUMPDEST PUSH2 0x8E7 DUP5 PUSH2 0x7C7 JUMP JUMPDEST DUP2 ADD PUSH1 0x20 DUP6 LT ISZERO PUSH2 0x8F6 JUMPI DUP2 SWAP1 POP JUMPDEST PUSH2 0x90A PUSH2 0x902 DUP6 PUSH2 0x7C7 JUMP JUMPDEST DUP4 ADD DUP3 PUSH2 0x8AA JUMP JUMPDEST POP POP JUMPDEST POP POP POP JUMP JUMPDEST PUSH0 DUP3 DUP3 SHR SWAP1 POP SWAP3 SWAP2 POP POP JUMP JUMPDEST PUSH0 PUSH2 0x92D PUSH0 NOT DUP5 PUSH1 0x8 MUL PUSH2 0x912 JUMP JUMPDEST NOT DUP1 DUP4 AND SWAP2 POP POP SWAP3 SWAP2 POP POP JUMP JUMPDEST PUSH0 PUSH2 0x945 DUP4 DUP4 PUSH2 0x91E JUMP JUMPDEST SWAP2 POP DUP3 PUSH1 0x2 MUL DUP3 OR SWAP1 POP SWAP3 SWAP2 POP POP JUMP JUMPDEST PUSH2 0x95E DUP3 PUSH2 0x6AD JUMP JUMPDEST PUSH8 0xFFFFFFFFFFFFFFFF DUP2 GT ISZERO PUSH2 0x977 JUMPI PUSH2 0x976 PUSH2 0x447 JUMP JUMPDEST JUMPDEST PUSH2 0x981 DUP3 SLOAD PUSH2 0x785 JUMP JUMPDEST PUSH2 0x98C DUP3 DUP3 DUP6 PUSH2 0x8CC JUMP JUMPDEST PUSH0 PUSH1 0x20 SWAP1 POP PUSH1 0x1F DUP4 GT PUSH1 0x1 DUP2 EQ PUSH2 0x9BD JUMPI PUSH0 DUP5 ISZERO PUSH2 0x9AB JUMPI DUP3 DUP8 ADD MLOAD SWAP1 POP JUMPDEST PUSH2 0x9B5 DUP6 DUP3 PUSH2 0x93A JUMP JUMPDEST DUP7 SSTORE POP PUSH2 0xA1C JUMP JUMPDEST PUSH1 0x1F NOT DUP5 AND PUSH2 0x9CB DUP7 PUSH2 0x7B5 JUMP JUMPDEST PUSH0 JUMPDEST DUP3 DUP2 LT ISZERO PUSH2 0x9F2 JUMPI DUP5 DUP10 ADD MLOAD DUP3 SSTORE PUSH1 0x1 DUP3 ADD SWAP2 POP PUSH1 0x20 DUP6 ADD SWAP5 POP PUSH1 0x20 DUP2 ADD SWAP1 POP PUSH2 0x9CD JUMP JUMPDEST DUP7 DUP4 LT ISZERO PUSH2 0xA0F JUMPI DUP5 DUP10 ADD MLOAD PUSH2 0xA0B PUSH1 0x1F DUP10 AND DUP3 PUSH2 0x91E JUMP JUMPDEST DUP4 SSTORE POP JUMPDEST PUSH1 0x1 PUSH1 0x2 DUP9 MUL ADD DUP9 SSTORE POP POP POP JUMPDEST POP POP POP POP POP POP JUMP JUMPDEST PUSH32 0x496E73756666696369656E742062616C616E6365000000000000000000000000 PUSH0 DUP3 ADD MSTORE POP JUMP JUMPDEST PUSH0 PUSH2 0xA58 PUSH1 0x14 DUP4 PUSH2 0x6B7 JUMP JUMPDEST SWAP2 POP PUSH2 0xA63 DUP3 PUSH2 0xA24 JUMP JUMPDEST PUSH1 0x20 DUP3 ADD SWAP1 POP SWAP2 SWAP1 POP JUMP JUMPDEST PUSH0 PUSH1 0x20 DUP3 ADD SWAP1 POP DUP2 DUP2 SUB PUSH0 DUP4 ADD MSTORE PUSH2 0xA85 DUP2 PUSH2 0xA4C JUMP JUMPDEST SWAP1 POP SWAP2 SWAP1 POP JUMP JUMPDEST PUSH0 DUP2 SWAP1 POP SWAP3 SWAP2 POP POP JUMP JUMPDEST POP JUMP JUMPDEST PUSH0 PUSH2 0xAA4 PUSH0 DUP4 PUSH2 0xA8C JUMP JUMPDEST SWAP2 POP PUSH2 0xAAF DUP3 PUSH2 0xA96 JUMP JUMPDEST PUSH0 DUP3 ADD SWAP1 POP SWAP2 SWAP1 POP JUMP JUMPDEST PUSH0 PUSH2 0xAC3 DUP3 PUSH2 0xA99 JUMP JUMPDEST SWAP2 POP DUP2 SWAP1 POP SWAP2 SWAP1 POP JUMP JUMPDEST PUSH32 0x5472616E73666572206661696C65640000000000000000000000000000000000 PUSH0 DUP3 ADD MSTORE POP JUMP JUMPDEST PUSH0 PUSH2 0xB01 PUSH1 0xF DUP4 PUSH2 0x6B7 JUMP JUMPDEST SWAP2 POP PUSH2 0xB0C DUP3 PUSH2 0xACD JUMP JUMPDEST PUSH1 0x20 DUP3 ADD SWAP1 POP SWAP2 SWAP1 POP JUMP JUMPDEST PUSH0 PUSH1 0x20 DUP3 ADD SWAP1 POP DUP2 DUP2 SUB PUSH0 DUP4 ADD MSTORE PUSH2 0xB2E DUP2 PUSH2 0xAF5 JUMP JUMPDEST SWAP1 POP SWAP2 SWAP1 POP JUMP JUMPDEST PUSH32 0x4E6F7420616E206F776E65720000000000000000000000000000000000000000 PUSH0 DUP3 ADD MSTORE POP JUMP JUMPDEST PUSH0 PUSH2 0xB69 PUSH1 0xC DUP4 PUSH2 0x6B7 JUMP JUMPDEST SWAP2 POP PUSH2 0xB74 DUP3 PUSH2 0xB35 JUMP JUMPDEST PUSH1 0x20 DUP3 ADD SWAP1 POP SWAP2 SWAP1 POP JUMP JUMPDEST PUSH0 PUSH1 0x20 DUP3 ADD SWAP1 POP DUP2 DUP2 SUB PUSH0 DUP4 ADD MSTORE PUSH2 0xB96 DUP2 PUSH2 0xB5D JUMP JUMPDEST SWAP1 POP SWAP2 SWAP1 POP JUMP JUMPDEST PUSH32 0x4E487B7100000000000000000000000000000000000000000000000000000000 PUSH0 MSTORE PUSH1 0x11 PUSH1 0x4 MSTORE PUSH1 0x24 PUSH0 REVERT JUMPDEST PUSH0 PUSH2 0xBD4 DUP3 PUSH2 0x3ED JUMP JUMPDEST SWAP2 POP PUSH2 0xBDF DUP4 PUSH2 0x3ED JUMP JUMPDEST SWAP3 POP DUP3 DUP3 MUL PUSH2 0xBED DUP2 PUSH2 0x3ED JUMP JUMPDEST SWAP2 POP DUP3 DUP3 DIV DUP5 EQ DUP4 ISZERO OR PUSH2 0xC04 JUMPI PUSH2 0xC03 PUSH2 0xB9D JUMP JUMPDEST JUMPDEST POP SWAP3 SWAP2 POP POP JUMP INVALID LOG2 PUSH5 0x6970667358 0x22 SLT KECCAK256 SMOD ADD PUSH0 0xB5 CHAINID 0x2A 0xD5 SELFBALANCE 0x4B PUSH8 0x4D4D29C8FFA8522B LOG4 SGT PUSH5 0xD0D6C9E8B5 EQ PUSH10 0x4BD091E764736F6C6343 STOP ADDMOD 0x1E STOP CALLER "
				},
				"gasEstimates": {
					"creation": {
						"codeDepositCost": "627400",
						"executionCost": "infinite",
						"totalCost": "infinite"
					},
					"external": {
						"": "151",
						"getBalance()": "335",
						"getMessage()": "infinite",
						"owner()": "2508",
						"pay()": "142",
						"rate(uint256)": "infinite",
						"sendEther(address,uint256)": "infinite",
						"setMessage(string)": "infinite"
					}
				},
				"methodIdentifiers": {
					"getBalance()": "12065fe0",
					"getMessage()": "ce6d41de",
					"owner()": "8da5cb5b",
					"pay()": "1b9265b8",
					"rate(uint256)": "e7ee6ad6",
					"sendEther(address,uint256)": "c1756a2c",
					"setMessage(string)": "368b8772"
				}
			},
			"storageLayout": {
				"storage": [
					{
						"astId": 4,
						"contract": "SmartContracts/task_6.sol:urok2",
						"label": "message",
						"offset": 0,
						"slot": "0",
						"type": "t_string_storage"
					},
					{
						"astId": 6,
						"contract": "SmartContracts/task_6.sol:urok2",
						"label": "owner",
						"offset": 0,
						"slot": "1",
						"type": "t_address"
					}
				],
				"types": {
					"t_address": {
						"encoding": "inplace",
						"label": "address",
						"numberOfBytes": "20"
					},
					"t_string_storage": {
						"encoding": "bytes",
						"label": "string",
						"numberOfBytes": "32"
					}
				}
			},
			"userdoc": {
				"kind": "user",
				"methods": {},
				"version": 1
			}
		}
	}
}